{
  "_format": "hh-sol-artifact-1",
  "contractName": "IFODeployerV8",
  "sourceName": "contracts/IFODeployerV8.sol",
  "abi": [
    {
      "inputs": [],
      "name": "AdminAddressIsNull",
      "type": "error"
    },
    {
      "inputs": [],
      "name": "EndTimeTooFar",
      "type": "error"
    },
    {
      "inputs": [],
      "name": "LpTokenSameWithOfferingToken",
      "type": "error"
    },
    {
      "inputs": [],
      "name": "StartTimeMustGreaterThanCurrentBlockTime",
      "type": "error"
    },
    {
      "inputs": [],
      "name": "StartTimeMustInferiorToEndTime",
      "type": "error"
    },
    {
      "inputs": [],
      "name": "VestingStartTimeMustGreaterThanEndTime",
      "type": "error"
    },
    {
      "inputs": [],
      "name": "VestingStartTimeTooFar",
      "type": "error"
    },
    {
      "anonymous": false,
      "inputs": [
        {
          "indexed": true,
          "internalType": "address",
          "name": "tokenRecovered",
          "type": "address"
        },
        {
          "indexed": false,
          "internalType": "uint256",
          "name": "amount",
          "type": "uint256"
        }
      ],
      "name": "AdminTokenRecovery",
      "type": "event"
    },
    {
      "anonymous": false,
      "inputs": [
        {
          "indexed": true,
          "internalType": "address",
          "name": "ifoAddress",
          "type": "address"
        }
      ],
      "name": "NewIFOContract",
      "type": "event"
    },
    {
      "anonymous": false,
      "inputs": [
        {
          "indexed": true,
          "internalType": "address",
          "name": "previousOwner",
          "type": "address"
        },
        {
          "indexed": true,
          "internalType": "address",
          "name": "newOwner",
          "type": "address"
        }
      ],
      "name": "OwnershipTransferred",
      "type": "event"
    },
    {
      "inputs": [],
      "name": "MAX_BUFFER_SECONDS",
      "outputs": [
        {
          "internalType": "uint256",
          "name": "",
          "type": "uint256"
        }
      ],
      "stateMutability": "view",
      "type": "function"
    },
    {
      "inputs": [],
      "name": "MAX_BUFFER_SECONDS_VESTING",
      "outputs": [
        {
          "internalType": "uint256",
          "name": "",
          "type": "uint256"
        }
      ],
      "stateMutability": "view",
      "type": "function"
    },
    {
      "inputs": [
        {
          "internalType": "address[]",
          "name": "_addresses",
          "type": "address[]"
        },
        {
          "internalType": "uint256[]",
          "name": "_startAndEndTimestamps",
          "type": "uint256[]"
        },
        {
          "internalType": "uint8",
          "name": "_maxPoolId",
          "type": "uint8"
        },
        {
          "internalType": "uint256",
          "name": "_pointThreshold",
          "type": "uint256"
        },
        {
          "internalType": "uint256",
          "name": "_vestingStartTime",
          "type": "uint256"
        }
      ],
      "name": "createIFO",
      "outputs": [],
      "stateMutability": "nonpayable",
      "type": "function"
    },
    {
      "inputs": [],
      "name": "currIFOAddress",
      "outputs": [
        {
          "internalType": "address",
          "name": "",
          "type": "address"
        }
      ],
      "stateMutability": "view",
      "type": "function"
    },
    {
      "inputs": [],
      "name": "owner",
      "outputs": [
        {
          "internalType": "address",
          "name": "",
          "type": "address"
        }
      ],
      "stateMutability": "view",
      "type": "function"
    },
    {
      "inputs": [
        {
          "internalType": "address",
          "name": "_tokenAddress",
          "type": "address"
        }
      ],
      "name": "recoverWrongTokens",
      "outputs": [],
      "stateMutability": "nonpayable",
      "type": "function"
    },
    {
      "inputs": [],
      "name": "renounceOwnership",
      "outputs": [],
      "stateMutability": "nonpayable",
      "type": "function"
    },
    {
      "inputs": [
        {
          "internalType": "address",
          "name": "newOwner",
          "type": "address"
        }
      ],
      "name": "transferOwnership",
      "outputs": [],
      "stateMutability": "nonpayable",
      "type": "function"
    }
  ],
  "bytecode": "0x608060405234801561001057600080fd5b5061001a3361001f565b61006f565b600080546001600160a01b038381166001600160a01b0319831681178455604051919092169283917f8be0079c531659141344cd1fd0a4f28419497f9722a3daafe3b4186f6b6457e09190a35050565b61533f8061007e6000396000f3fe608060405234801561001057600080fd5b50600436106100785760003560e01c8063114c0fa81461007d57806354070e39146100a6578063715018a6146100be578063746268cc146100c85780638da5cb5b146100db578063d04cbeb3146100e3578063eec784bd146100ee578063f2fde38b14610101575b600080fd5b600154610090906001600160a01b031681565b60405161009d9190610bba565b60405180910390f35b6100b062093a8081565b60405190815260200161009d565b6100c6610114565b005b6100c66100d6366004610bea565b610158565b6100906102a4565b6100b06301e1338081565b6100c66100fc366004610c50565b6102b3565b6100c661010f366004610bea565b610811565b3361011d6102a4565b6001600160a01b03161461014c5760405162461bcd60e51b815260040161014390610ceb565b60405180910390fd5b61015660006108b1565b565b336101616102a4565b6001600160a01b0316146101875760405162461bcd60e51b815260040161014390610ceb565b6040516370a0823160e01b81526000906001600160a01b038316906370a08231906101b6903090600401610bba565b602060405180830381865afa1580156101d3573d6000803e3d6000fd5b505050506040513d601f19601f820116820180604052508101906101f79190610d20565b9050600081116102495760405162461bcd60e51b815260206004820152601f60248201527f4f7065726174696f6e733a2042616c616e6365206d757374206265203e2030006044820152606401610143565b61025d6001600160a01b0383163383610901565b816001600160a01b03167f74545154aac348a3eac92596bd1971957ca94795f4e954ec5f613b55fab781298260405161029891815260200190565b60405180910390a25050565b6000546001600160a01b031690565b336102bc6102a4565b6001600160a01b0316146102e25760405162461bcd60e51b815260040161014390610ceb565b6000878760008181106102f7576102f7610d39565b905060200201602081019061030c9190610bea565b6001600160a01b03166318160ddd6040518163ffffffff1660e01b8152600401602060405180830381865afa158015610349573d6000803e3d6000fd5b505050506040513d601f19601f8201168201806040525081019061036d9190610d20565b101561037857600080fd5b60008787600181811061038d5761038d610d39565b90506020020160208101906103a29190610bea565b6001600160a01b03166318160ddd6040518163ffffffff1660e01b8152600401602060405180830381865afa1580156103df573d6000803e3d6000fd5b505050506040513d601f19601f820116820180604052508101906104039190610d20565b101561040e57600080fd5b8686600181811061042157610421610d39565b90506020020160208101906104369190610bea565b6001600160a01b03168787600081811061045257610452610d39565b90506020020160208101906104679190610bea565b6001600160a01b0316141561048f57604051637299907360e11b815260040160405180910390fd5b6000878760048181106104a4576104a4610d39565b90506020020160208101906104b99190610bea565b6001600160a01b031614156104e157604051630e8f677560e21b815260040160405180910390fd5b6104ee62093a8042610d4f565b8585600181811061050157610501610d39565b90506020020135106105265760405163eb47c4f360e01b815260040160405180910390fd5b8484600181811061053957610539610d39565b905060200201358585600081811061055357610553610d39565b9050602002013510610578576040516311af708560e21b815260040160405180910390fd5b428585600081811061058c5761058c610d39565b90506020020135116105b15760405163582314d560e11b815260040160405180910390fd5b801561064857848460018181106105ca576105ca610d39565b9050602002013562278d006105df9190610d4f565b8110156105ff576040516395f5b5bb60e01b815260040160405180910390fd5b6301e133808585600181811061061757610617610d39565b905060200201356106289190610d4f565b8111156106485760405163934d841560e01b815260040160405180910390fd5b60006040518060200161065a90610bad565b601f1982820381018352601f90910116604052905060008888828161068157610681610d39565b90506020020160208101906106969190610bea565b898960018181106106a9576106a9610d39565b90506020020160208101906106be9190610bea565b888860008181106106d1576106d1610d39565b6040516001600160601b0319606096871b81166020838101919091529590961b90951660348601529290920201356048830152506068016040516020818303038152906040528051906020012090506000818351602085016000f5604051636865f6e960e01b81529091506001600160a01b03821690636865f6e99061076c908d908d908d908d9062093a80908e908e908e90600401610d75565b600060405180830381600087803b15801561078657600080fd5b505af115801561079a573d6000803e3d6000fd5b50506001546001600160a01b0384811691161491506107d1905057600180546001600160a01b0319166001600160a01b0383161790555b6040516001600160a01b038216907f3b823f91f23e8f12a60f36282813ffed043efcb2101731734672a4726c08645490600090a250505050505050505050565b3361081a6102a4565b6001600160a01b0316146108405760405162461bcd60e51b815260040161014390610ceb565b6001600160a01b0381166108a55760405162461bcd60e51b815260206004820152602660248201527f4f776e61626c653a206e6577206f776e657220697320746865207a65726f206160448201526564647265737360d01b6064820152608401610143565b6108ae816108b1565b50565b600080546001600160a01b038381166001600160a01b0319831681178455604051919092169283917f8be0079c531659141344cd1fd0a4f28419497f9722a3daafe3b4186f6b6457e09190a35050565b604080516001600160a01b038416602482015260448082018490528251808303909101815260649091019091526020810180516001600160e01b031663a9059cbb60e01b179052610953908490610958565b505050565b60006109ad826040518060400160405280602081526020017f5361666545524332303a206c6f772d6c6576656c2063616c6c206661696c6564815250856001600160a01b0316610a2a9092919063ffffffff16565b80519091501561095357808060200190518101906109cb9190610e1b565b6109535760405162461bcd60e51b815260206004820152602a60248201527f5361666545524332303a204552433230206f7065726174696f6e20646964206e6044820152691bdd081cdd58d8d9595960b21b6064820152608401610143565b6060610a398484600085610a43565b90505b9392505050565b606082471015610aa45760405162461bcd60e51b815260206004820152602660248201527f416464726573733a20696e73756666696369656e742062616c616e636520666f6044820152651c8818d85b1b60d21b6064820152608401610143565b6001600160a01b0385163b610afb5760405162461bcd60e51b815260206004820152601d60248201527f416464726573733a2063616c6c20746f206e6f6e2d636f6e74726163740000006044820152606401610143565b600080866001600160a01b03168587604051610b179190610e6d565b60006040518083038185875af1925050503d8060008114610b54576040519150601f19603f3d011682016040523d82523d6000602084013e610b59565b606091505b5091509150610b69828286610b74565b979650505050505050565b60608315610b83575081610a3c565b825115610b935782518084602001fd5b8160405162461bcd60e51b81526004016101439190610e89565b61444d80610ebd83390190565b6001600160a01b0391909116815260200190565b80356001600160a01b0381168114610be557600080fd5b919050565b600060208284031215610bfc57600080fd5b610a3c82610bce565b60008083601f840112610c1757600080fd5b5081356001600160401b03811115610c2e57600080fd5b6020830191508360208260051b8501011115610c4957600080fd5b9250929050565b600080600080600080600060a0888a031215610c6b57600080fd5b87356001600160401b0380821115610c8257600080fd5b610c8e8b838c01610c05565b909950975060208a0135915080821115610ca757600080fd5b50610cb48a828b01610c05565b909650945050604088013560ff81168114610cce57600080fd5b969995985093969295946060840135945060809093013592915050565b6020808252818101527f4f776e61626c653a2063616c6c6572206973206e6f7420746865206f776e6572604082015260600190565b600060208284031215610d3257600080fd5b5051919050565b634e487b7160e01b600052603260045260246000fd5b60008219821115610d7057634e487b7160e01b600052601160045260246000fd5b500190565b60c0808252810188905260008960e08301825b8b811015610db6576001600160a01b03610da184610bce565b16825260209283019290910190600101610d88565b5083810360208501528881526001600160fb1b03891115610dd657600080fd5b8860051b9150818a602083013760009101602001908152604083018790529050610e05606083018660ff169052565b608082019390935260a001529695505050505050565b600060208284031215610e2d57600080fd5b81518015158114610a3c57600080fd5b60005b83811015610e58578181015183820152602001610e40565b83811115610e67576000848401525b50505050565b60008251610e7f818460208701610e3d565b9190910192915050565b6020815260008251806020840152610ea8816040850160208701610e3d565b601f01601f1916919091016040019291505056fe60a06040523480156200001157600080fd5b50600160005562000022336200002c565b336080526200007e565b600180546001600160a01b038381166001600160a01b0319831681179093556040519116919082907f8be0079c531659141344cd1fd0a4f28419497f9722a3daafe3b4186f6b6457e090600090a35050565b6080516143b36200009a60003960006111d201526143b36000f3fe608060405234801561001057600080fd5b506004361061023b5760003560e01c806306cec8571461024057806313083617146102685780631e3bba081461027a5780632374876c1461028d57806324953eaa146102a2578063286dd3f5146102b557806328fddfaf146102c857806337f859b8146102d55780633af32abf146102e85780633f138d4b146102fb57806346ab91bf1461030e57806348deb4711461033457806349032cdb1461033c5780634af3c9b71461035c57806354070e391461037d57806367d42a8b146103865780636865f6e914610399578063715018a6146103ac578063760b3180146103b457806379795108146103bd5780637b9417c8146103c55780637f1bdd76146103d85780638518b3c5146103eb5780638af104da146104215780638da5cb5b146104345780639ef346b41461043c5780639f1b52481461049a578063a47ff7e5146104ad578063a85adeab146104ce578063a8660a78146104d7578063ae8973a0146104e0578063b0adb220146104f3578063b1ced5e7146104fc578063b6549f751461051b578063b86c6f1414610523578063c029773714610556578063ca463ca414610569578063caa7f23214610589578063d04dac151461059c578063e2ec6ec3146105af578063e6fd48bc146105c2578063e9050763146105cb578063ea1bb3d5146105de578063edf26d9b146105f1578063f2fde38b14610604578063f51321d714610617578063f7c469f01461062a578063f9cd5c121461063d578063feebf5291461065d575b600080fd5b61025361024e366004613a9a565b61067d565b60405190151581526020015b60405180910390f35b6032545b60405190815260200161025f565b61026c610288366004613ac8565b61068e565b6102a061029b366004613afd565b61072b565b005b6102a06102b0366004613b63565b610aec565b6102a06102c3366004613a9a565b610bdc565b6031546102539060ff1681565b61026c6102e3366004613ba4565b610c42565b6102536102f6366004613a9a565b610cf3565b6102a0610309366004613bbd565b610d11565b61032161031c366004613ba4565b610dc8565b60405161025f9796959493929190613bff565b60345461026c565b61026c61034a366004613a9a565b602f6020526000908152604090205481565b61036f61036a366004613c5a565b610eab565b60405161025f929190613ce9565b61026c600c5481565b6102a0610394366004613ba4565b611007565b6102a06103a7366004613d42565b6111c6565b6102a06114af565b61026c60125481565b61026c6114ea565b6102a06103d3366004613a9a565b61156f565b6102a06103e6366004613ddd565b6115d8565b6104146103f9366004613ba4565b602e602052600090815260409020546001600160a01b031681565b60405161025f9190613e00565b61026c61042f366004613bbd565b611b35565b610414611b77565b61044f61044a366004613ba4565b611b86565b60405161025f91908151151581526020808301516001600160a01b03169082015260408083015160ff1690820152606080830151908201526080918201519181019190915260a00190565b6102a06104a8366004613e14565b611bf2565b600f546010546011546104bf92919083565b60405161025f93929190613e36565b61026c600b5481565b61026c60305481565b6102a06104ee366004613e4c565b611d3d565b61026c600e5481565b600d546105099060ff1681565b60405160ff909116815260200161025f565b6102a0611da7565b610536610531366004613ba4565b611e0b565b60408051948552602085019390935291830152606082015260800161025f565b610253610564366004613a9a565b611e98565b61057c610577366004613c5a565b611fb9565b60405161025f9190613e64565b6102a0610597366004613b63565b612104565b6102536105aa366004613a9a565b6121f1565b6102a06105bd366004613b63565b61231b565b61026c600a5481565b6102a06105d9366004613edc565b612406565b61026c6105ec366004613ba4565b61266b565b6104146105ff366004613ba4565b6126ef565b6102a0610612366004613a9a565b61270f565b61044f610625366004613bbd565b6127af565b61026c610638366004613a9a565b6127c4565b61065061064b366004613c5a565b6127e8565b60405161025f9190613f6b565b61026c61066b366004613a9a565b602d6020526000908152604090205481565b600061068882610cf3565b92915050565b6000610699826128a3565b60006106a6846000611b35565b600081815260336020908152604091829020825160a081018452815460ff808216151583526001600160a01b0361010083041694830194909452600160a81b900483169381018490526001820154606082015260029091015460808201529293508516141561071757509050610688565b610722856001611b35565b95945050505050565b600260005414156107575760405162461bcd60e51b815260040161074e90613f7e565b60405180910390fd5b6002600055610765816128a3565b600b54336000908152602c6020908152604080832060ff8681168552925290912080546001909101546107999392166128cd565b336000908152602f60205260409020541561088457600654604051634c3f70ab60e11b8152600091829182916001600160a01b03169063987ee156906107e3903390600401613e00565b60c060405180830381865afa158015610800573d6000803e3d6000fd5b505050506040513d601f19601f820116820180604052508101906108249190613fcb565b95509550955050505080158061084857506009546001600160a01b03848116911614155b806108625750336000908152602f60205260409020548214155b15610880576040516319a9a2ef60e01b815260040160405180910390fd5b5050505b61088d3361292a565b336000908152602c6020908152604080832060ff8516845290915290206001908101805460ff191690911790556030546108c657426030555b60008060006108d53385612a60565b91945092509050801561092d578060138560ff16600281106108f9576108f9613fb5565b600c02016006015461090b9190614040565b60138560ff166002811061092157610921613fb5565b600c0201600601819055505b8215610acd57600060138560ff166002811061094b5761094b613fb5565b600c02016008016000015460646109629190614058565b1115610a14576000606460138660ff166002811061098257610982613fb5565b600c02016008016000015460646109999190614058565b6109a3908661406f565b6109ad919061408e565b90506109cb3382600460015b01546001600160a01b03169190612ca1565b8460ff16336001600160a01b03167f51524c2e5edfedf8b01b29719c661e4fbe27e71734e7cd773dabb7cb712fb3b38386604051610a0a9291906140b0565b60405180910390a3505b600060138560ff1660028110610a2c57610a2c613fb5565b600c0201600801600001541115610acd576000606460138660ff1660028110610a5757610a57613fb5565b600c02016008016000015485610a6d919061406f565b610a77919061408e565b9050610a84338683612cf7565b8460ff16336001600160a01b03167f4b386667138d87683f75b2e46ad8ac192b053af4c8875da8689415997663a9508386604051610ac39291906140b0565b60405180910390a3505b8115610ae157610ae13383600460006109b9565b505060016000555050565b33610af5611b77565b6001600160a01b031614610b1b5760405162461bcd60e51b815260040161074e906140be565b60005b81811015610bd757600060026000858585818110610b3e57610b3e613fb5565b9050602002016020810190610b539190613a9a565b6001600160a01b031681526020810191909152604001600020805460ff1916911515919091179055828282818110610b8d57610b8d613fb5565b9050602002016020810190610ba29190613a9a565b6001600160a01b031660008051602061435e83398151915260405160405180910390a280610bcf816140f3565b915050610b1e565b505050565b33610be5611b77565b6001600160a01b031614610c0b5760405162461bcd60e51b815260040161074e906140be565b6001600160a01b038116600081815260026020526040808220805460ff191690555160008051602061435e8339815191529190a250565b600060138260028110610c5757610c57613fb5565b600c02016003015460ff16610c6e57506000919050565b600060138360028110610c8357610c83613fb5565b600c0201600401541115610cb35760138260028110610ca457610ca4613fb5565b600c0201600401549050919050565b61068860138360028110610cc957610cc9613fb5565b600c02016005015460138460028110610ce457610ce4613fb5565b600c020154612eff565b919050565b6001600160a01b031660009081526002602052604090205460ff1690565b610d19612f9d565b6004546001600160a01b0383811691161415610d48576040516310da472360e01b815260040160405180910390fd5b6005546001600160a01b0383811691161415610d775760405163a8dfadb960e01b815260040160405180910390fd5b610d8b6001600160a01b0383163383612ca1565b7f74545154aac348a3eac92596bd1971957ca94795f4e954ec5f613b55fab781298282604051610dbc92919061410e565b60405180910390a15050565b600080600080600080600060138860028110610de657610de6613fb5565b600c02015460138960028110610dfe57610dfe613fb5565b600c02016001015460138a60028110610e1957610e19613fb5565b600c02016002015460138b60028110610e3457610e34613fb5565b600c02016003015460ff1660138c60028110610e5257610e52613fb5565b600c02016005015460138d60028110610e6d57610e6d613fb5565b600c02016006015460138e60028110610e8857610e88613fb5565b600c020160070154959e949d50929b509099509750955060ff9091169350915050565b6060806000836001600160401b03811115610ec857610ec8614127565b604051908082528060200260200182016040528015610ef1578160200160208202803683370190505b5090506000846001600160401b03811115610f0e57610f0e614127565b604051908082528060200260200182016040528015610f37578160200160208202803683370190505b50905060005b600d5460ff90811690821611610ffa576001600160a01b0388166000908152602c6020908152604080832060ff85168085529252909120548451909185918110610f8957610f89613fb5565b6020908102919091018101919091526001600160a01b0389166000908152602c8252604080822060ff8086168085529190945291206001015484519216918491908110610fd857610fd8613fb5565b9115156020928302919091019091015280610ff28161413d565b915050610f3d565b5090969095509350505050565b6002600054141561102a5760405162461bcd60e51b815260040161074e90613f7e565b600260009081558181526033602052604090205461104a9060ff16612fcd565b6000818152603360205260408120805490916101009091046001600160a01b0316331490611076611b77565b6001600160a01b0316336001600160a01b031614905081158015611098575080155b156110b6576040516361c042c160e01b815260040160405180910390fd5b6040805160a081018252845460ff808216151583526001600160a01b036101008304166020840152600160a81b9091041691810191909152600184015460608201526002840154608082015260009061110e90612feb565b90506000811161113157604051632d973f4d60e11b815260040160405180910390fd5b8084600201546111419190614040565b6002850155603454611154908290614058565b60345583546111759061010090046001600160a01b031682600460016109b9565b83546040518281526101009091046001600160a01b0316907fb21fb52d5749b80f3182f8c6992236b5e5576681880914484d7f4c9b062e619e9060200160405180910390a250506001600055505050565b6003546111f99060ff167f0000000000000000000000000000000000000000000000000000000000000000898887613140565b6003805460ff1916600117905560008888600281811061121b5761121b613fb5565b90506020020160208101906112309190613a9a565b6001600160a01b0316146112db578787600281811061125157611251613fb5565b90506020020160208101906112669190613a9a565b60405163aee2f47f60e01b8152600160048201526001600160a01b03919091169063aee2f47f90602401600060405180830381865afa1580156112ad573d6000803e3d6000fd5b505050506040513d6000823e601f3d908101601f191682016040526112d59190810190614210565b50505050505b6000888860038181106112f0576112f0613fb5565b90506020020160208101906113059190613a9a565b6001600160a01b03161461139e578787600381811061132657611326613fb5565b905060200201602081019061133b9190613a9a565b6001600160a01b031663f851a4406040518163ffffffff1660e01b8152600401602060405180830381865afa158015611378573d6000803e3d6000fd5b505050506040513d601f19601f8201168201806040525081019061139c919061429b565b505b60005b60ff811688111561141d5788888260ff168181106113c1576113c1613fb5565b90506020020160208101906113d69190613a9a565b60048260ff16600681106113ec576113ec613fb5565b0180546001600160a01b0319166001600160a01b0392909216919091179055806114158161413d565b9150506113a1565b508585600081811061143157611431613fb5565b6020029190910135600a55508585600181811061145057611450613fb5565b6020029190910135600b5550600c849055600d805460ff191660ff8516179055600e82905560308190556114a58888600481811061149057611490613fb5565b90506020020160208101906106129190613a9a565b5050505050505050565b336114b8611b77565b6001600160a01b0316146114de5760405162461bcd60e51b815260040161074e906140be565b6114e860006131f4565b565b6034546005546040516370a0823160e01b8152600092916001600160a01b0316906370a082319061151f903090600401613e00565b602060405180830381865afa15801561153c573d6000803e3d6000fd5b505050506040513d601f19601f8201168201806040525081019061156091906142b8565b61156a9190614058565b905090565b33611578611b77565b6001600160a01b03161461159e5760405162461bcd60e51b815260040161074e906140be565b6001600160a01b038116600081815260026020526040808220805460ff191660011790555160008051602061433e8339815191529190a250565b600260005414156115fb5760405162461bcd60e51b815260040161074e90613f7e565b6002600055611609816128a3565b61168b826004600201546001600160a01b0316601360ff85166002811061163257611632613fb5565b600c020160070160009054906101000a900460ff1660138560ff166002811061165d5761165d613fb5565b600c02016001015460138660ff166002811061167b5761167b613fb5565b600c020154600a54600b54613246565b6012546005546040516370a0823160e01b81526001600160a01b03909116906370a08231906116be903090600401613e00565b602060405180830381865afa1580156116db573d6000803e3d6000fd5b505050506040513d601f19601f820116820180604052508101906116ff91906142b8565b101561171e5760405163726da7d560e11b815260040160405180910390fd5b600060138260ff166002811061173657611736613fb5565b600c02016007015460ff16600281111561175257611752613be9565b148061178f5750600260138260ff166002811061177157611771613fb5565b600c02016007015460ff16600281111561178d5761178d613be9565b145b15611913576007546001600160a01b0316158015906117e05750600260138260ff16600281106117c1576117c1613fb5565b600c02016007015460ff1660028111156117dd576117dd613be9565b14155b15611898576007546040516336b5bc3760e21b81526000916001600160a01b03169063dad6f0dc90611816903390600401613e00565b602060405180830381865afa158015611833573d6000803e3d6000fd5b505050506040513d601f19601f8201168201806040525081019061185791906142b8565b336000908152602d60205260409020549091508190611877908590614040565b111561189657604051630448a42b60e21b815260040160405180910390fd5b505b6118a28282613390565b600060138260ff16600281106118ba576118ba613fb5565b600c02016007015460ff1660028111156118d6576118d6613be9565b146118e25760006118e4565b815b336000908152602d60205260409020546118fe9190614040565b336000908152602d6020526040902055611b2c565b6006546001600160a01b031615611b22576000808080600460020154604051634c3f70ab60e11b81526001600160a01b039091169063987ee1569061195c903390600401613e00565b60c060405180830381865afa158015611979573d6000803e3d6000fd5b505050506040513d601f19601f8201168201806040525081019061199d9190613fcb565b95509550955050945050806119c55760405163f7bd660760e01b815260040160405180910390fd5b6119ce84613504565b1580156119e157506119df3361067d565b155b80156119f557506119f333848461351d565b155b15611a13576040516309a318fb60e31b815260040160405180910390fd5b611a1c84613504565b158015611a2f5750611a2d3361067d565b155b8015611a4857506009546001600160a01b038481169116145b15611b1d576000828152602e60205260409020546001600160a01b0316611a8c576000828152602e6020526040902080546001600160a01b03191633179055611ac3565b6000828152602e60205260409020546001600160a01b03163314611ac35760405163d69933c360e01b815260040160405180910390fd5b336000908152602f6020526040902054611aee57336000908152602f60205260409020829055611b1d565b336000908152602f60205260409020548214611b1d57604051630236c46360e51b815260040160405180910390fd5b505050505b611b2c8282613390565b50506001600055565b6040516001600160601b0319606084901b1660208201526034810182905260009060540160405160208183030381529060405280519060200120905092915050565b6001546001600160a01b031690565b611b8e613a39565b50600090815260336020908152604091829020825160a081018452815460ff808216151583526001600160a01b0361010083041694830194909452600160a81b90049092169282019290925260018201546060820152600290910154608082015290565b611bfa612f9d565b600480546040516370a0823160e01b8152611ce49285926001600160a01b0316916370a0823191611c2d91309101613e00565b602060405180830381865afa158015611c4a573d6000803e3d6000fd5b505050506040513d601f19601f82011682018060405250810190611c6e91906142b8565b6005546040516370a0823160e01b815285916001600160a01b0316906370a0823190611c9e903090600401613e00565b602060405180830381865afa158015611cbb573d6000803e3d6000fd5b505050506040513d601f19601f82011682018060405250810190611cdf91906142b8565b61357e565b8115611cf857611cf83383600460006109b9565b8015611d0c57611d0c3382600460016109b9565b7f94ebb62a252249c867ecb758d386f50a95be7e8df9e1c52917c9cf494327dd7d8282604051610dbc9291906140b0565b611d45612f9d565b611d50600b546135c6565b602081013560108190558135600f819055604080840135601181905590517f2058a318dbdfd2edd92a32cfa0ee233a30b165b83b421830109cb22ae86f674593611d9c93929091613e36565b60405180910390a150565b611daf612f9d565b60315460ff1615611dd357604051630476d49560e21b815260040160405180910390fd5b6031805460ff191660011790556040517f44825a4b2df8acb19ce4e1afba9aa850c8b65cdb7942e2078f27d0b0960efee690600090a1565b60008060008060138560028110611e2457611e24613fb5565b600c02016008016000015460138660028110611e4257611e42613fb5565b600c02016008016001015460138760028110611e6057611e60613fb5565b600c02016008016002015460138860028110611e7e57611e7e613fb5565b600c02016008016003015493509350935093509193509193565b6006546000906001600160a01b0316611eb357506001919050565b60065460405163ea0d5dcd60e01b81526001600160a01b039091169063ea0d5dcd90611ee3908590600401613e00565b602060405180830381865afa158015611f00573d6000803e3d6000fd5b505050506040513d601f19601f82011682018060405250810190611f2491906142d1565b611f3057506000919050565b600654604051634c3f70ab60e11b81526000916001600160a01b03169063987ee15690611f61908690600401613e00565b60c060405180830381865afa158015611f7e573d6000803e3d6000fd5b505050506040513d601f19601f82011682018060405250810190611fa29190613fcb565b50505050915050611fb281613504565b9392505050565b60606000826001600160401b03811115611fd557611fd5614127565b60405190808252806020026020018201604052801561200e57816020015b611ffb613a67565b815260200190600190039081611ff35790505b50905060005b60ff81168411156120fb57600080600080601389898760ff1681811061203c5761203c613fb5565b90506020020160208101906120519190613afd565b60ff166002811061206457612064613fb5565b600c02015411156120aa576120a28989898760ff1681811061208857612088613fb5565b905060200201602081019061209d9190613afd565b612a60565b919450925090505b604051806060016040528084815260200183815260200182815250858560ff16815181106120da576120da613fb5565b602002602001018190525050505080806120f39061413d565b915050612014565b50949350505050565b61210c612f9d565b612152600c5483839050600a548585600081811061212c5761212c613fb5565b905060200201358686600181811061214657612146613fb5565b905060200201356135e6565b8181600081811061216557612165613fb5565b6020029190910135600a55508181600181811061218457612184613fb5565b6020029190910135600b55507f57df350cfad05a64accd73700fee8a7febd6d8430e035e45f0599ca62494aa8b82826000816121c2576121c2613fb5565b90506020020135838360018181106121dc576121dc613fb5565b90506020020135604051610dbc9291906140b0565b6006546000906001600160a01b031661220c57506001919050565b60065460405163ea0d5dcd60e01b81526001600160a01b039091169063ea0d5dcd9061223c908590600401613e00565b602060405180830381865afa158015612259573d6000803e3d6000fd5b505050506040513d601f19601f8201168201806040525081019061227d91906142d1565b61228957506000919050565b600080600460020154604051634c3f70ab60e11b81526001600160a01b039091169063987ee156906122bf908790600401613e00565b60c060405180830381865afa1580156122dc573d6000803e3d6000fd5b505050506040513d601f19601f820116820180604052508101906123009190613fcb565b509450945050505061231384838361351d565b949350505050565b33612324611b77565b6001600160a01b03161461234a5760405162461bcd60e51b815260040161074e906140be565b60005b81811015610bd75760016002600085858581811061236d5761236d613fb5565b90506020020160208101906123829190613a9a565b6001600160a01b031681526020810191909152604001600020805460ff19169115159190911790558282828181106123bc576123bc613fb5565b90506020020160208101906123d19190613a9a565b6001600160a01b031660008051602061433e83398151915260405160405180910390a2806123fe816140f3565b91505061234d565b61240e612f9d565b612417836128a3565b600a54612431908686843560408601356060870135613690565b8760138460ff166002811061244857612448613fb5565b600c0201600101819055508660138460ff166002811061246a5761246a613fb5565b600c02015585601360ff85166002811061248657612486613fb5565b600c0201600201819055508460138460ff16600281106124a8576124a8613fb5565b600c020160030160006101000a81548160ff0219169083151502179055508360138460ff16600281106124dd576124dd613fb5565b600c0201600401819055508160138460ff16600281106124ff576124ff613fb5565b600c020160070160006101000a81548160ff0219169083600281111561252757612527613be9565b02179055508035601360ff85166002811061254457612544613fb5565b600c020160080160000181905550806020013560138460ff166002811061256d5761256d613fb5565b600c020160080160010181905550806040013560138460ff166002811061259657612596613fb5565b600c020160080160020181905550806060013560138460ff16600281106125bf576125bf613fb5565b600c0201600b01556000805b600d5460ff908116908216116126185760138160ff16600281106125f1576125f1613fb5565b600c020160010154826126049190614040565b9150806126108161413d565b9150506125cb565b506012819055604080518a8152602081018a905260ff86168183015290517fddaf243a142670be60c19ff7116b5d8b124717b29bb4cc03cead42161614105b9181900360600190a1505050505050505050565b6000818152603360205260408120546126869060ff16612fcd565b600082815260336020908152604091829020825160a081018452815460ff808216151583526001600160a01b0361010083041694830194909452600160a81b90049092169282019290925260018201546060820152600290910154608082015261068890612feb565b600481600681106126ff57600080fd5b01546001600160a01b0316905081565b33612718611b77565b6001600160a01b03161461273e5760405162461bcd60e51b815260040161074e906140be565b6001600160a01b0381166127a35760405162461bcd60e51b815260206004820152602660248201527f4f776e61626c653a206e6577206f776e657220697320746865207a65726f206160448201526564647265737360d01b606482015260840161074e565b6127ac816131f4565b50565b6127b7613a39565b611fb261044a8484611b35565b6001600160a01b038116600090815260356020526040812054610688908390611b35565b60606000826001600160401b0381111561280457612804614127565b60405190808252806020026020018201604052801561282d578160200160208202803683370190505b50905060005b60ff81168411156120fb576128718686868460ff1681811061285757612857613fb5565b905060200201602081019061286c9190613afd565b61377c565b828260ff168151811061288657612886613fb5565b60209081029190910101528061289b8161413d565b915050612833565b600d5460ff90811690821611156127ac57604051630a26ca2560e31b815260040160405180910390fd5b8242116128ed5760405163085de62560e01b815260040160405180910390fd5b8161290b576040516337191a8560e21b815260040160405180910390fd5b8015610bd7576040516302cce53760e21b815260040160405180910390fd5b6006546001600160a01b0316156127ac576001600160a01b0381166000908152602b602052604090205460ff16158015612965575060105415155b156127ac576000805b600d5460ff908116908216116129ba57336000908152602c6020908152604080832060ff851684529091529020546129a69083614040565b9150806129b28161413d565b91505061296e565b50601154811115612a5c576001600160a01b0382166000908152602b60205260409020805460ff19166001179055600460020154601054600f54604051630dee0bfb60e11b8152336004820152602481019290925260448201526001600160a01b0390911690631bdc17f690606401600060405180830381600087803b158015612a4357600080fd5b505af1158015612a57573d6000803e3d6000fd5b505050505b5050565b60008060008060008060138760ff1660028110612a7f57612a7f613fb5565b600c020154601360ff891660028110612a9a57612a9a613fb5565b600c0201600501541115612c1c576000612ab4898961377c565b905064e8d4a510008160138a60ff1660028110612ad357612ad3613fb5565b600c020160010154612ae5919061406f565b612aef919061408e565b9350600064e8d4a510008260138b60ff1660028110612b1057612b10613fb5565b600c020154612b1f919061406f565b612b29919061408e565b6001600160a01b038b166000908152602c6020908152604080832060ff8e168452909152902054909150612b5e908290614058565b935060138960ff1660028110612b7657612b76613fb5565b600c02016003015460ff1615612c1557600060138a60ff1660028110612b9e57612b9e613fb5565b600c02016004015490508060001415612beb57612be860138b60ff1660028110612bca57612bca613fb5565b600c02016005015460138c60ff1660028110610ce457610ce4613fb5565b90505b64e8d4a51000612bfb828761406f565b612c05919061408e565b9350612c118486614058565b9450505b5050612c93565b60138760ff1660028110612c3257612c32613fb5565b600c020154601360ff891660028110612c4d57612c4d613fb5565b600c0201600101546001600160a01b038a166000908152602c6020908152604080832060ff8d168452909152902054612c86919061406f565b612c90919061408e565b92505b919450925090509250925092565b610bd78363a9059cbb60e01b8484604051602401612cc092919061410e565b60408051601f198184030181529190526020810180516001600160e01b03166001600160e01b03199093169290921790915261382b565b80612d006114ea565b1015612d6d5760405162461bcd60e51b815260206004820152603660248201527f63616e206e6f74206372656174652076657374696e67207363686564756c6520604482015275776974682073756666696369656e7420746f6b656e7360501b606482015260840161074e565b6000612d78846127c4565b60008181526033602052604090205490915061010090046001600160a01b031615612def5760405162461bcd60e51b815260206004820152602160248201527f76657374696e675363686564756c654964206973206265656e206372656174656044820152601960fa1b606482015260840161074e565b6040805160a08101825260018082526001600160a01b03878116602080850191825260ff898116868801908152606087018a81526000608089018181528b825260339095529890982096518754945191516001600160a81b0319909516901515610100600160a81b0319161761010091909516029390931760ff60a81b1916600160a81b92909316919091029190911783559251908201559051600290910155603454612e9d908390614040565b60345560328054600181019091557f11df491316f14931039edfd4f8964c9a443b862f02d4c7611d18c2bc4e6ff697018190556001600160a01b0384166000908152603560205260408120805491612ef4836140f3565b919050555050505050565b600080612f0c838561408e565b90506105dc8110612f2457630ee6b280915050610688565b6103e88110612f3a57631dcd6500915050610688565b6101f48110612f5057633b9aca00915050610688565b60fa8110612f6557634a817c80915050610688565b60648110612f7a576359682f00915050610688565b60328110612f8f57639502f900915050610688565b64012a05f200915050610688565b33612fa6611b77565b6001600160a01b0316146114e857604051635fc483c560e01b815260040160405180910390fd5b806127ac57604051638bc0c80560e01b815260040160405180910390fd5b60006013826040015160ff166002811061300757613007613fb5565b600c02016008016001015460305461301f9190614040565b42101561302e57506000919050565b6013826040015160ff166002811061304857613048613fb5565b600c0201600801600201546030546130609190614040565b42101580613070575060315460ff165b1561308957816080015182606001516106889190614058565b6000603054426130999190614058565b905060006013846040015160ff16600281106130b7576130b7613fb5565b600c0201600801600301549050600081836130d2919061408e565b905060006130e0838361406f565b905060006013876040015160ff16600281106130fe576130fe613fb5565b600c020160080160020154828860600151613119919061406f565b613123919061408e565b90508660800151816131359190614058565b979650505050505050565b841561315e5760405162dc149f60e41b815260040160405180910390fd5b336001600160a01b0385161461318757604051631966391b60e11b815260040160405180910390fd5b826006146131a857604051633b9b621f60e01b815260040160405180910390fd5b816002146131c957604051631397ee3560e31b815260040160405180910390fd5b60028160ff16106131ed5760405163a854b3bd60e01b815260040160405180910390fd5b5050505050565b600180546001600160a01b038381166001600160a01b0319831681179093556040519116919082907f8be0079c531659141344cd1fd0a4f28419497f9722a3daafe3b4186f6b6457e090600090a35050565b6001600160a01b038616158015906132705750600285600281111561326d5761326d613be9565b14155b156132ff5760405163ea0d5dcd60e01b81526001600160a01b0387169063ea0d5dcd906132a1903390600401613e00565b602060405180830381865afa1580156132be573d6000803e3d6000fd5b505050506040513d601f19601f820116820180604052508101906132e291906142d1565b6132ff5760405163645bb1bd60e11b815260040160405180910390fd5b83158061330a575082155b1561332857604051633c67586360e01b815260040160405180910390fd5b8142116133485760405163085de62560e01b815260040160405180910390fd5b804211156133695760405163ecdd1c2960e01b815260040160405180910390fd5b8661338757604051639e6c689560e01b815260040160405180910390fd5b50505050505050565b6004546133a8906001600160a01b03163330856138fd565b336000908152602c6020908152604080832060ff851684529091529020546133d1908390614040565b336000908152602c6020908152604080832060ff86168085529252822092909255906013906002811061340657613406613fb5565b600c020160020154111561346f5760138160ff166002811061342a5761342a613fb5565b600c020160020154336000908152602c6020908152604080832060ff86168452909152902054111561346f5760405163037351d360e11b815260040160405180910390fd5b8160138260ff166002811061348657613486613fb5565b600c0201600501546134989190614040565b60138260ff16600281106134ae576134ae613fb5565b600c0201600501819055508060ff16336001600160a01b03167ff763e680fce25a97ffd55d8b705370c98b47b2285f7b3b2900c43606fd418045846040516134f891815260200190565b60405180910390a35050565b6000600e54600014158015610688575050600e54111590565b60006004600501546001600160a01b03848116911614801561231357506000828152602e60205260409020546001600160a01b0316158061231357506000828152602e60205260409020546001600160a01b03858116911614949350505050565b8284111561359f576040516330a3824960e21b815260040160405180910390fd5b808211156135c057604051632af9b86160e01b815260040160405180910390fd5b50505050565b8042106127ac57604051630ffe6bd560e21b815260040160405180910390fd5b8360021461360757604051631397ee3560e31b815260040160405180910390fd5b6136118542614040565b81106136305760405163eb47c4f360e01b815260040160405180910390fd5b824210613650576040516365be5cfd60e11b815260040160405180910390fd5b808210613670576040516311af708560e21b815260040160405180910390fd5b8142106131ed5760405163582314d560e11b815260040160405180910390fd5b8542106136b0576040516365be5cfd60e11b815260040160405180910390fd5b64e8d4a5100084106136d557604051634494446160e11b815260040160405180910390fd5b60648311156136f757604051630e07a92f60e01b815260040160405180910390fd5b8161371557604051630914cb9d60e41b815260040160405180910390fd5b600181101561373757604051631018767560e11b815260040160405180910390fd5b8181111561375857604051630cdbeed760e01b815260040160405180910390fd5b84612a57578315612a57576040516355d8bb6760e01b815260040160405180910390fd5b600d5460009060ff908116908316111561379857506000610688565b600060138360ff16600281106137b0576137b0613fb5565b600c02016005015411156138235760138260ff16600281106137d4576137d4613fb5565b600c0201600501546001600160a01b0384166000908152602c6020908152604080832060ff871684529091529020546138129064e8d4a5100061406f565b61381c919061408e565b9050610688565b506000610688565b6000613880826040518060400160405280602081526020017f5361666545524332303a206c6f772d6c6576656c2063616c6c206661696c6564815250856001600160a01b03166139359092919063ffffffff16565b805190915015610bd7578080602001905181019061389e91906142d1565b610bd75760405162461bcd60e51b815260206004820152602a60248201527f5361666545524332303a204552433230206f7065726174696f6e20646964206e6044820152691bdd081cdd58d8d9595960b21b606482015260840161074e565b6040516001600160a01b03808516602483015283166044820152606481018290526135c09085906323b872dd60e01b90608401612cc0565b60606123138484600085856001600160a01b0385163b6139975760405162461bcd60e51b815260206004820152601d60248201527f416464726573733a2063616c6c20746f206e6f6e2d636f6e7472616374000000604482015260640161074e565b600080866001600160a01b031685876040516139b391906142ee565b60006040518083038185875af1925050503d80600081146139f0576040519150601f19603f3d011682016040523d82523d6000602084013e6139f5565b606091505b509150915061313582828660608315613a0f575081611fb2565b825115613a1f5782518084602001fd5b8160405162461bcd60e51b815260040161074e919061430a565b6040805160a08101825260008082526020820181905291810182905260608101829052608081019190915290565b60405180606001604052806003906020820280368337509192915050565b6001600160a01b03811681146127ac57600080fd5b600060208284031215613aac57600080fd5b8135611fb281613a85565b803560ff81168114610cee57600080fd5b60008060408385031215613adb57600080fd5b8235613ae681613a85565b9150613af460208401613ab7565b90509250929050565b600060208284031215613b0f57600080fd5b611fb282613ab7565b60008083601f840112613b2a57600080fd5b5081356001600160401b03811115613b4157600080fd5b6020830191508360208260051b8501011115613b5c57600080fd5b9250929050565b60008060208385031215613b7657600080fd5b82356001600160401b03811115613b8c57600080fd5b613b9885828601613b18565b90969095509350505050565b600060208284031215613bb657600080fd5b5035919050565b60008060408385031215613bd057600080fd5b8235613bdb81613a85565b946020939093013593505050565b634e487b7160e01b600052602160045260246000fd5b600060e08201905088825287602083015286604083015285151560608301528460808301528360a083015260038310613c4857634e487b7160e01b600052602160045260246000fd5b8260c083015298975050505050505050565b600080600060408486031215613c6f57600080fd5b8335613c7a81613a85565b925060208401356001600160401b03811115613c9557600080fd5b613ca186828701613b18565b9497909650939450505050565b600081518084526020808501945080840160005b83811015613cde57815187529582019590820190600101613cc2565b509495945050505050565b604081526000613cfc6040830185613cae565b82810360208481019190915284518083528582019282019060005b81811015613d35578451151583529383019391830191600101613d17565b5090979650505050505050565b60008060008060008060008060c0898b031215613d5e57600080fd5b88356001600160401b0380821115613d7557600080fd5b613d818c838d01613b18565b909a50985060208b0135915080821115613d9a57600080fd5b50613da78b828c01613b18565b90975095505060408901359350613dc060608a01613ab7565b92506080890135915060a089013590509295985092959890939650565b60008060408385031215613df057600080fd5b82359150613af460208401613ab7565b6001600160a01b0391909116815260200190565b60008060408385031215613e2757600080fd5b50508035926020909101359150565b9283526020830191909152604082015260600190565b600060608284031215613e5e57600080fd5b50919050565b602080825282518282018190526000919084820190604085019084805b82811015613ec157845184835b6003811015613eab57825182529188019190880190600101613e8e565b5050509385019360609390930192600101613e81565b5091979650505050505050565b80151581146127ac57600080fd5b600080600080600080600080888a03610160811215613efa57600080fd5b8935985060208a0135975060408a0135965060608a0135613f1a81613ece565b955060808a01359450613f2f60a08b01613ab7565b935060c08a013560038110613f4357600080fd5b9250608060df1982011215613f5757600080fd5b5060e0890190509295985092959890939650565b602081526000611fb26020830184613cae565b6020808252601f908201527f5265656e7472616e637947756172643a207265656e7472616e742063616c6c00604082015260600190565b634e487b7160e01b600052603260045260246000fd5b60008060008060008060c08789031215613fe457600080fd5b865195506020870151945060408701519350606087015161400481613a85565b608088015160a0890151919450925061401c81613ece565b809150509295509295509295565b634e487b7160e01b600052601160045260246000fd5b600082198211156140535761405361402a565b500190565b60008282101561406a5761406a61402a565b500390565b60008160001904831182151516156140895761408961402a565b500290565b6000826140ab57634e487b7160e01b600052601260045260246000fd5b500490565b918252602082015260400190565b6020808252818101527f4f776e61626c653a2063616c6c6572206973206e6f7420746865206f776e6572604082015260600190565b60006000198214156141075761410761402a565b5060010190565b6001600160a01b03929092168252602082015260400190565b634e487b7160e01b600052604160045260246000fd5b600060ff821660ff8114156141545761415461402a565b60010192915050565b60005b83811015614178578181015183820152602001614160565b838111156135c05750506000910152565b600082601f83011261419a57600080fd5b81516001600160401b03808211156141b4576141b4614127565b604051601f8301601f19908116603f011681019082821181831017156141dc576141dc614127565b816040528381528660208588010111156141f557600080fd5b61420684602083016020890161415d565b9695505050505050565b600080600080600060a0868803121561422857600080fd5b85516001600160401b038082111561423f57600080fd5b61424b89838a01614189565b9650602088015191508082111561426157600080fd5b5061426e88828901614189565b9450506040860151925060608601519150608086015161428d81613ece565b809150509295509295909350565b6000602082840312156142ad57600080fd5b8151611fb281613a85565b6000602082840312156142ca57600080fd5b5051919050565b6000602082840312156142e357600080fd5b8151611fb281613ece565b6000825161430081846020870161415d565b9190910192915050565b602081526000825180602084015261432981604085016020870161415d565b601f01601f1916919091016040019291505056fed1bba68c128cc3f427e5831b3c6f99f480b6efa6b9e80c757768f6124158cc3ff1abf01a1043b7c244d128e8595cf0c1d10743b022b03a02dffd8ca3bf729f5aa2646970667358221220b96edacbc682020fceeef6f4d247b83d652fdd40fb381a39ebdaa19537bbb2d264736f6c634300080a0033a26469706673582212201d5895e9324e4ad0ef6ebb67ab770e847e5a49308ff0dda881c3acab20aa13f664736f6c634300080a0033",
  "linkReferences": {},
  "deployedLinkReferences": {}
}