{
  "_format": "hh-sol-artifact-1",
  "contractName": "LZEndpointMock",
  "sourceName": "contracts/mocks/LzEndpointMock.sol",
  "abi": [
    {
      "inputs": [
        {
          "internalType": "uint16",
          "name": "_chainId",
          "type": "uint16"
        }
      ],
      "stateMutability": "nonpayable",
      "type": "constructor"
    },
    {
      "anonymous": false,
      "inputs": [
        {
          "indexed": false,
          "internalType": "uint16",
          "name": "srcChainId",
          "type": "uint16"
        },
        {
          "indexed": false,
          "internalType": "bytes",
          "name": "srcAddress",
          "type": "bytes"
        },
        {
          "indexed": false,
          "internalType": "uint64",
          "name": "nonce",
          "type": "uint64"
        },
        {
          "indexed": false,
          "internalType": "address",
          "name": "dstAddress",
          "type": "address"
        }
      ],
      "name": "PayloadCleared",
      "type": "event"
    },
    {
      "anonymous": false,
      "inputs": [
        {
          "indexed": false,
          "internalType": "uint16",
          "name": "srcChainId",
          "type": "uint16"
        },
        {
          "indexed": false,
          "internalType": "bytes",
          "name": "srcAddress",
          "type": "bytes"
        },
        {
          "indexed": false,
          "internalType": "address",
          "name": "dstAddress",
          "type": "address"
        },
        {
          "indexed": false,
          "internalType": "uint64",
          "name": "nonce",
          "type": "uint64"
        },
        {
          "indexed": false,
          "internalType": "bytes",
          "name": "payload",
          "type": "bytes"
        },
        {
          "indexed": false,
          "internalType": "bytes",
          "name": "reason",
          "type": "bytes"
        }
      ],
      "name": "PayloadStored",
      "type": "event"
    },
    {
      "anonymous": false,
      "inputs": [
        {
          "indexed": false,
          "internalType": "uint16",
          "name": "chainId",
          "type": "uint16"
        },
        {
          "indexed": false,
          "internalType": "bytes",
          "name": "srcAddress",
          "type": "bytes"
        }
      ],
      "name": "UaForceResumeReceive",
      "type": "event"
    },
    {
      "anonymous": false,
      "inputs": [
        {
          "indexed": true,
          "internalType": "address",
          "name": "to",
          "type": "address"
        },
        {
          "indexed": true,
          "internalType": "uint256",
          "name": "quantity",
          "type": "uint256"
        }
      ],
      "name": "ValueTransferFailed",
      "type": "event"
    },
    {
      "inputs": [],
      "name": "blockNextMsg",
      "outputs": [],
      "stateMutability": "nonpayable",
      "type": "function"
    },
    {
      "inputs": [],
      "name": "defaultAdapterParams",
      "outputs": [
        {
          "internalType": "bytes",
          "name": "",
          "type": "bytes"
        }
      ],
      "stateMutability": "view",
      "type": "function"
    },
    {
      "inputs": [
        {
          "internalType": "uint16",
          "name": "_dstChainId",
          "type": "uint16"
        },
        {
          "internalType": "address",
          "name": "_userApplication",
          "type": "address"
        },
        {
          "internalType": "bytes",
          "name": "_payload",
          "type": "bytes"
        },
        {
          "internalType": "bool",
          "name": "_payInZRO",
          "type": "bool"
        },
        {
          "internalType": "bytes",
          "name": "_adapterParams",
          "type": "bytes"
        }
      ],
      "name": "estimateFees",
      "outputs": [
        {
          "internalType": "uint256",
          "name": "nativeFee",
          "type": "uint256"
        },
        {
          "internalType": "uint256",
          "name": "zroFee",
          "type": "uint256"
        }
      ],
      "stateMutability": "view",
      "type": "function"
    },
    {
      "inputs": [
        {
          "internalType": "uint16",
          "name": "_srcChainId",
          "type": "uint16"
        },
        {
          "internalType": "bytes",
          "name": "_path",
          "type": "bytes"
        }
      ],
      "name": "forceResumeReceive",
      "outputs": [],
      "stateMutability": "nonpayable",
      "type": "function"
    },
    {
      "inputs": [],
      "name": "getChainId",
      "outputs": [
        {
          "internalType": "uint16",
          "name": "",
          "type": "uint16"
        }
      ],
      "stateMutability": "view",
      "type": "function"
    },
    {
      "inputs": [
        {
          "internalType": "uint16",
          "name": "",
          "type": "uint16"
        },
        {
          "internalType": "uint16",
          "name": "",
          "type": "uint16"
        },
        {
          "internalType": "address",
          "name": "",
          "type": "address"
        },
        {
          "internalType": "uint256",
          "name": "",
          "type": "uint256"
        }
      ],
      "name": "getConfig",
      "outputs": [
        {
          "internalType": "bytes",
          "name": "",
          "type": "bytes"
        }
      ],
      "stateMutability": "pure",
      "type": "function"
    },
    {
      "inputs": [
        {
          "internalType": "uint16",
          "name": "_chainID",
          "type": "uint16"
        },
        {
          "internalType": "bytes",
          "name": "_path",
          "type": "bytes"
        }
      ],
      "name": "getInboundNonce",
      "outputs": [
        {
          "internalType": "uint64",
          "name": "",
          "type": "uint64"
        }
      ],
      "stateMutability": "view",
      "type": "function"
    },
    {
      "inputs": [
        {
          "internalType": "uint16",
          "name": "_srcChainId",
          "type": "uint16"
        },
        {
          "internalType": "bytes",
          "name": "_srcAddress",
          "type": "bytes"
        }
      ],
      "name": "getLengthOfQueue",
      "outputs": [
        {
          "internalType": "uint256",
          "name": "",
          "type": "uint256"
        }
      ],
      "stateMutability": "view",
      "type": "function"
    },
    {
      "inputs": [
        {
          "internalType": "uint16",
          "name": "_chainID",
          "type": "uint16"
        },
        {
          "internalType": "address",
          "name": "_srcAddress",
          "type": "address"
        }
      ],
      "name": "getOutboundNonce",
      "outputs": [
        {
          "internalType": "uint64",
          "name": "",
          "type": "uint64"
        }
      ],
      "stateMutability": "view",
      "type": "function"
    },
    {
      "inputs": [
        {
          "internalType": "address",
          "name": "",
          "type": "address"
        }
      ],
      "name": "getReceiveLibraryAddress",
      "outputs": [
        {
          "internalType": "address",
          "name": "",
          "type": "address"
        }
      ],
      "stateMutability": "view",
      "type": "function"
    },
    {
      "inputs": [
        {
          "internalType": "address",
          "name": "",
          "type": "address"
        }
      ],
      "name": "getReceiveVersion",
      "outputs": [
        {
          "internalType": "uint16",
          "name": "",
          "type": "uint16"
        }
      ],
      "stateMutability": "pure",
      "type": "function"
    },
    {
      "inputs": [
        {
          "internalType": "address",
          "name": "",
          "type": "address"
        }
      ],
      "name": "getSendLibraryAddress",
      "outputs": [
        {
          "internalType": "address",
          "name": "",
          "type": "address"
        }
      ],
      "stateMutability": "view",
      "type": "function"
    },
    {
      "inputs": [
        {
          "internalType": "address",
          "name": "",
          "type": "address"
        }
      ],
      "name": "getSendVersion",
      "outputs": [
        {
          "internalType": "uint16",
          "name": "",
          "type": "uint16"
        }
      ],
      "stateMutability": "pure",
      "type": "function"
    },
    {
      "inputs": [
        {
          "internalType": "uint16",
          "name": "_srcChainId",
          "type": "uint16"
        },
        {
          "internalType": "bytes",
          "name": "_path",
          "type": "bytes"
        }
      ],
      "name": "hasStoredPayload",
      "outputs": [
        {
          "internalType": "bool",
          "name": "",
          "type": "bool"
        }
      ],
      "stateMutability": "view",
      "type": "function"
    },
    {
      "inputs": [
        {
          "internalType": "uint16",
          "name": "",
          "type": "uint16"
        },
        {
          "internalType": "bytes",
          "name": "",
          "type": "bytes"
        }
      ],
      "name": "inboundNonce",
      "outputs": [
        {
          "internalType": "uint64",
          "name": "",
          "type": "uint64"
        }
      ],
      "stateMutability": "view",
      "type": "function"
    },
    {
      "inputs": [],
      "name": "isReceivingPayload",
      "outputs": [
        {
          "internalType": "bool",
          "name": "",
          "type": "bool"
        }
      ],
      "stateMutability": "view",
      "type": "function"
    },
    {
      "inputs": [],
      "name": "isSendingPayload",
      "outputs": [
        {
          "internalType": "bool",
          "name": "",
          "type": "bool"
        }
      ],
      "stateMutability": "view",
      "type": "function"
    },
    {
      "inputs": [
        {
          "internalType": "address",
          "name": "",
          "type": "address"
        }
      ],
      "name": "lzEndpointLookup",
      "outputs": [
        {
          "internalType": "address",
          "name": "",
          "type": "address"
        }
      ],
      "stateMutability": "view",
      "type": "function"
    },
    {
      "inputs": [],
      "name": "mockChainId",
      "outputs": [
        {
          "internalType": "uint16",
          "name": "",
          "type": "uint16"
        }
      ],
      "stateMutability": "view",
      "type": "function"
    },
    {
      "inputs": [
        {
          "internalType": "uint16",
          "name": "",
          "type": "uint16"
        },
        {
          "internalType": "bytes",
          "name": "",
          "type": "bytes"
        },
        {
          "internalType": "uint256",
          "name": "",
          "type": "uint256"
        }
      ],
      "name": "msgsToDeliver",
      "outputs": [
        {
          "internalType": "address",
          "name": "dstAddress",
          "type": "address"
        },
        {
          "internalType": "uint64",
          "name": "nonce",
          "type": "uint64"
        },
        {
          "internalType": "bytes",
          "name": "payload",
          "type": "bytes"
        }
      ],
      "stateMutability": "view",
      "type": "function"
    },
    {
      "inputs": [],
      "name": "nextMsgBlocked",
      "outputs": [
        {
          "internalType": "bool",
          "name": "",
          "type": "bool"
        }
      ],
      "stateMutability": "view",
      "type": "function"
    },
    {
      "inputs": [],
      "name": "oracleFee",
      "outputs": [
        {
          "internalType": "uint256",
          "name": "",
          "type": "uint256"
        }
      ],
      "stateMutability": "view",
      "type": "function"
    },
    {
      "inputs": [
        {
          "internalType": "uint16",
          "name": "",
          "type": "uint16"
        },
        {
          "internalType": "address",
          "name": "",
          "type": "address"
        }
      ],
      "name": "outboundNonce",
      "outputs": [
        {
          "internalType": "uint64",
          "name": "",
          "type": "uint64"
        }
      ],
      "stateMutability": "view",
      "type": "function"
    },
    {
      "inputs": [],
      "name": "protocolFeeConfig",
      "outputs": [
        {
          "internalType": "uint256",
          "name": "zroFee",
          "type": "uint256"
        },
        {
          "internalType": "uint256",
          "name": "nativeBP",
          "type": "uint256"
        }
      ],
      "stateMutability": "view",
      "type": "function"
    },
    {
      "inputs": [
        {
          "internalType": "uint16",
          "name": "_srcChainId",
          "type": "uint16"
        },
        {
          "internalType": "bytes",
          "name": "_path",
          "type": "bytes"
        },
        {
          "internalType": "address",
          "name": "_dstAddress",
          "type": "address"
        },
        {
          "internalType": "uint64",
          "name": "_nonce",
          "type": "uint64"
        },
        {
          "internalType": "uint256",
          "name": "_gasLimit",
          "type": "uint256"
        },
        {
          "internalType": "bytes",
          "name": "_payload",
          "type": "bytes"
        }
      ],
      "name": "receivePayload",
      "outputs": [],
      "stateMutability": "nonpayable",
      "type": "function"
    },
    {
      "inputs": [],
      "name": "relayerFeeConfig",
      "outputs": [
        {
          "internalType": "uint128",
          "name": "dstPriceRatio",
          "type": "uint128"
        },
        {
          "internalType": "uint128",
          "name": "dstGasPriceInWei",
          "type": "uint128"
        },
        {
          "internalType": "uint128",
          "name": "dstNativeAmtCap",
          "type": "uint128"
        },
        {
          "internalType": "uint64",
          "name": "baseGas",
          "type": "uint64"
        },
        {
          "internalType": "uint64",
          "name": "gasPerByte",
          "type": "uint64"
        }
      ],
      "stateMutability": "view",
      "type": "function"
    },
    {
      "inputs": [
        {
          "internalType": "uint16",
          "name": "_srcChainId",
          "type": "uint16"
        },
        {
          "internalType": "bytes",
          "name": "_path",
          "type": "bytes"
        },
        {
          "internalType": "bytes",
          "name": "_payload",
          "type": "bytes"
        }
      ],
      "name": "retryPayload",
      "outputs": [],
      "stateMutability": "nonpayable",
      "type": "function"
    },
    {
      "inputs": [
        {
          "internalType": "uint16",
          "name": "_chainId",
          "type": "uint16"
        },
        {
          "internalType": "bytes",
          "name": "_path",
          "type": "bytes"
        },
        {
          "internalType": "bytes",
          "name": "_payload",
          "type": "bytes"
        },
        {
          "internalType": "address payable",
          "name": "_refundAddress",
          "type": "address"
        },
        {
          "internalType": "address",
          "name": "_zroPaymentAddress",
          "type": "address"
        },
        {
          "internalType": "bytes",
          "name": "_adapterParams",
          "type": "bytes"
        }
      ],
      "name": "send",
      "outputs": [],
      "stateMutability": "payable",
      "type": "function"
    },
    {
      "inputs": [
        {
          "internalType": "uint16",
          "name": "",
          "type": "uint16"
        },
        {
          "internalType": "uint16",
          "name": "",
          "type": "uint16"
        },
        {
          "internalType": "uint256",
          "name": "",
          "type": "uint256"
        },
        {
          "internalType": "bytes",
          "name": "",
          "type": "bytes"
        }
      ],
      "name": "setConfig",
      "outputs": [],
      "stateMutability": "nonpayable",
      "type": "function"
    },
    {
      "inputs": [
        {
          "internalType": "bytes",
          "name": "_adapterParams",
          "type": "bytes"
        }
      ],
      "name": "setDefaultAdapterParams",
      "outputs": [],
      "stateMutability": "nonpayable",
      "type": "function"
    },
    {
      "inputs": [
        {
          "internalType": "address",
          "name": "destAddr",
          "type": "address"
        },
        {
          "internalType": "address",
          "name": "lzEndpointAddr",
          "type": "address"
        }
      ],
      "name": "setDestLzEndpoint",
      "outputs": [],
      "stateMutability": "nonpayable",
      "type": "function"
    },
    {
      "inputs": [
        {
          "internalType": "uint256",
          "name": "_oracleFee",
          "type": "uint256"
        }
      ],
      "name": "setOracleFee",
      "outputs": [],
      "stateMutability": "nonpayable",
      "type": "function"
    },
    {
      "inputs": [
        {
          "internalType": "uint256",
          "name": "_zroFee",
          "type": "uint256"
        },
        {
          "internalType": "uint256",
          "name": "_nativeBP",
          "type": "uint256"
        }
      ],
      "name": "setProtocolFee",
      "outputs": [],
      "stateMutability": "nonpayable",
      "type": "function"
    },
    {
      "inputs": [
        {
          "internalType": "uint16",
          "name": "",
          "type": "uint16"
        }
      ],
      "name": "setReceiveVersion",
      "outputs": [],
      "stateMutability": "nonpayable",
      "type": "function"
    },
    {
      "inputs": [
        {
          "internalType": "uint128",
          "name": "_dstPriceRatio",
          "type": "uint128"
        },
        {
          "internalType": "uint128",
          "name": "_dstGasPriceInWei",
          "type": "uint128"
        },
        {
          "internalType": "uint128",
          "name": "_dstNativeAmtCap",
          "type": "uint128"
        },
        {
          "internalType": "uint64",
          "name": "_baseGas",
          "type": "uint64"
        },
        {
          "internalType": "uint64",
          "name": "_gasPerByte",
          "type": "uint64"
        }
      ],
      "name": "setRelayerPrice",
      "outputs": [],
      "stateMutability": "nonpayable",
      "type": "function"
    },
    {
      "inputs": [
        {
          "internalType": "uint16",
          "name": "",
          "type": "uint16"
        }
      ],
      "name": "setSendVersion",
      "outputs": [],
      "stateMutability": "nonpayable",
      "type": "function"
    },
    {
      "inputs": [
        {
          "internalType": "uint16",
          "name": "",
          "type": "uint16"
        },
        {
          "internalType": "bytes",
          "name": "",
          "type": "bytes"
        }
      ],
      "name": "storedPayload",
      "outputs": [
        {
          "internalType": "uint64",
          "name": "payloadLength",
          "type": "uint64"
        },
        {
          "internalType": "address",
          "name": "dstAddress",
          "type": "address"
        },
        {
          "internalType": "bytes32",
          "name": "payloadHash",
          "type": "bytes32"
        }
      ],
      "stateMutability": "view",
      "type": "function"
    }
  ],
  "bytecode": "0x6080604052600c805461ffff19166101011790553480156200002057600080fd5b506040516200300e3803806200300e8339810160408190526200004391620001f7565b6001805461ffff191661ffff83161781556040805160a0810182526402540be400808252602080830191909152678ac7230489e8000082840152606460608301526080909101929092527402540be400000000000000000000000002540be4006002557801000000000000006400000000000000008ac7230489e800006003558051808201909152670de0b6b3a76400008082526103e8918301829052600455600555662386f26fc100006006556200010a9062030d409062000128811b62001b9f17901c565b8051620001209160079160209091019062000151565b505062000261565b60408051600160f01b602082015260228082019390935281518082039093018352604201905290565b8280546200015f9062000224565b90600052602060002090601f016020900481019282620001835760008555620001ce565b82601f106200019e57805160ff1916838001178555620001ce565b82800160010185558215620001ce579182015b82811115620001ce578251825591602001919060010190620001b1565b50620001dc929150620001e0565b5090565b5b80821115620001dc5760008155600101620001e1565b6000602082840312156200020a57600080fd5b815161ffff811681146200021d57600080fd5b9392505050565b600181811c908216806200023957607f821691505b602082108114156200025b57634e487b7160e01b600052602260045260246000fd5b50919050565b612d9d80620002716000396000f3fe6080604052600436106101aa5760003560e01c806307d3277f146101af57806307e0db17146101e4578063096568f6146102045780630eaf6ea61461023857806310ddb137146101e457806312a9ee6b14610268578063240de27714610297578063272bd384146102bd5780632c365e25146102df5780633408e470146103555780633e0dd83e1461036e57806340a7bb101461038e57806342d65a8d146103ae57806371ba2fd6146103ce57806376a386dc146104065780637a1457481461049f5780637f6df8e614610509578063907c5e7e146105375780639924d33b146105c75780639c729da1146103ce578063aaff5f1614610619578063b208649914610639578063b6d9ef601461067a578063c08f15a11461069a578063c2fa4813146106e3578063c580310014610703578063c81b383a14610716578063ca066b351461074c578063cbed8b9c1461076d578063d23104f11461078e578063da1a7c9a14610204578063db14f305146107b1578063e97a448a146107cc578063f5ecbdbc146107e8578063f9cd3ceb1461081a578063fbba623b14610830578063fdc07c7014610850575b600080fd5b3480156101bb57600080fd5b506004546005546101ca919082565b604080519283526020830191909152015b60405180910390f35b3480156101f057600080fd5b506102026101ff366004612217565b50565b005b34801561021057600080fd5b5061022561021f366004612247565b50600190565b60405161ffff90911681526020016101db565b34801561024457600080fd5b506102586102533660046122ac565b610870565b60405190151581526020016101db565b34801561027457600080fd5b506102886102833660046123a0565b6108b6565b6040516101db93929190612443565b3480156102a357600080fd5b506102026102b236600461247f565b600491909155600555565b3480156102c957600080fd5b506102d26109b3565b6040516101db91906124a1565b3480156102eb57600080fd5b506102026102fa3660046124e2565b6001600160801b03948516600160801b94861685021760025560038054939095166001600160c01b0319909316929092176001600160401b03918216909302929092176001600160c01b0316600160c01b9190921602179055565b34801561036157600080fd5b5060015461ffff16610225565b34801561037a57600080fd5b506001546102589062010000900460ff1681565b34801561039a57600080fd5b506101ca6103a9366004612547565b610a41565b3480156103ba57600080fd5b506102026103c93660046122ac565b610b40565b3480156103da57600080fd5b506103ee6103e9366004612247565b503090565b6040516001600160a01b0390911681526020016101db565b34801561041257600080fd5b506104726104213660046125e7565b600a6020908152600092835260409092208151808301840180519281529084019290930191909120915280546001909101546001600160401b03821691600160401b90046001600160a01b03169083565b604080516001600160401b0390941684526001600160a01b039092166020840152908201526060016101db565b3480156104ab57600080fd5b506104f16104ba366004612634565b61ffff821660009081526009602090815260408083206001600160a01b03851684529091529020546001600160401b031692915050565b6040516001600160401b0390911681526020016101db565b34801561051557600080fd5b506105296105243660046122ac565b610c5b565b6040519081526020016101db565b34801561054357600080fd5b50600254600354610583916001600160801b0380821692600160801b92839004821692918116916001600160401b03908204811691600160c01b90041685565b604080516001600160801b039687168152948616602086015292909416918301919091526001600160401b039081166060830152909116608082015260a0016101db565b3480156105d357600080fd5b506104f16105e23660046125e7565b600860209081526000928352604090922081518083018401805192815290840192909301919091209152546001600160401b031681565b34801561062557600080fd5b5061020261063436600461266b565b610c97565b34801561064557600080fd5b506104f1610654366004612634565b60096020908152600092835260408084209091529082529020546001600160401b031681565b34801561068657600080fd5b506102026106953660046126eb565b600655565b3480156106a657600080fd5b506102026106b5366004612704565b6001600160a01b03918216600090815260208190526040902080546001600160a01b03191691909216179055565b3480156106ef57600080fd5b506102026106fe366004612722565b610e7d565b6102026107113660046127d1565b6115b3565b34801561072257600080fd5b506103ee610731366004612247565b6000602081905290815260409020546001600160a01b031681565b34801561075857600080fd5b50610258600c54610100900460ff1660021490565b34801561077957600080fd5b50610202610788366004612898565b50505050565b34801561079a57600080fd5b506102026001805462ff0000191662010000179055565b3480156107bd57600080fd5b506001546102259061ffff1681565b3480156107d857600080fd5b50610258600c5460ff1660021490565b3480156107f457600080fd5b506102d26108033660046128ff565b604080516020810190915260008152949350505050565b34801561082657600080fd5b5061052960065481565b34801561083c57600080fd5b5061020261084b36600461294c565b611b43565b34801561085c57600080fd5b506104f161086b3660046122ac565b611b5a565b61ffff83166000908152600a602052604080822090518291906108969086908690612988565b9081526040519081900360200190206001015415159150505b9392505050565b600b60209081526000848152604090208351808501830180519281529083019285019290922091528054829081106108ed57600080fd5b6000918252602090912060029091020180546001820180546001600160a01b0383169650600160a01b9092046001600160401b0316945091925061093090612998565b80601f016020809104026020016040519081016040528092919081815260200182805461095c90612998565b80156109a95780601f1061097e576101008083540402835291602001916109a9565b820191906000526020600020905b81548152906001019060200180831161098c57829003601f168201915b5050505050905083565b600780546109c090612998565b80601f01602080910402602001604051908101604052809291908181526020018280546109ec90612998565b8015610a395780601f10610a0e57610100808354040283529160200191610a39565b820191906000526020600020905b815481529060010190602001808311610a1c57829003601f168201915b505050505081565b600080600080845111610ade5760078054610a5b90612998565b80601f0160208091040260200160405190810160405280929190818152602001828054610a8790612998565b8015610ad45780601f10610aa957610100808354040283529160200191610ad4565b820191906000526020600020905b815481529060010190602001808311610ab757829003601f168201915b5050505050610ae0565b835b90506000610af38960018a8a5186611bc8565b90506000610b048783600654611d62565b905086610b145780945084610b19565b809350835b50600654610b2783876129e9565b610b3191906129e9565b94505050509550959350505050565b61ffff83166000908152600a60205260408082209051610b639085908590612988565b9081526040519081900360200190206001810154909150610b9f5760405162461bcd60e51b8152600401610b9690612a01565b60405180910390fd5b8054600160401b90046001600160a01b03163314610bff5760405162461bcd60e51b815260206004820152601d60248201527f4c617965725a65726f4d6f636b3a20696e76616c69642063616c6c65720000006044820152606401610b96565b80546001600160e01b0319168155600060018201556040517f23d2684f396e92a6e2ff2d16f98e6fea00d50cb27a64b531bc0748f730211f9890610c4890869086908690612a5f565b60405180910390a1610788848484611d9f565b61ffff83166000908152600b60205260408082209051610c7e9085908590612988565b9081526040519081900360200190205490509392505050565b61ffff85166000908152600a60205260408082209051610cba9087908790612988565b9081526040519081900360200190206001810154909150610ced5760405162461bcd60e51b8152600401610b9690612a01565b80546001600160401b031682148015610d20575080600101548383604051610d16929190612988565b6040518091039020145b610d6c5760405162461bcd60e51b815260206004820152601e60248201527f4c617965725a65726f4d6f636b3a20696e76616c6964207061796c6f616400006044820152606401610b96565b80546001600160e01b03198116825560006001830181905561ffff88168152600860205260408082209051600160401b9093046001600160a01b031692610db69089908990612988565b90815260405190819003602001812054621d356760e01b82526001600160401b031691506001600160a01b03831690621d356790610e02908b908b908b9087908c908c90600401612a7d565b600060405180830381600087803b158015610e1c57600080fd5b505af1158015610e30573d6000803e3d6000fd5b505050507f612434f39581c8e7d99746c9c20c6eb0ce8c0eb99f007c5719d620841370957d8888888486604051610e6b959493929190612aca565b60405180910390a15050505050505050565b600c54610100900460ff16600114610ee35760405162461bcd60e51b8152602060048201526024808201527f4c617965725a65726f4d6f636b3a206e6f2072656365697665207265656e7472604482015263616e637960e01b6064820152608401610b96565b600c805461ff00191661020017905561ffff88166000908152600a60205260408082209051610f15908a908a90612988565b90815260200160405180910390209050600860008a61ffff1661ffff1681526020019081526020016000208888604051610f50929190612988565b9081526040519081900360200190208054600090610f76906001600160401b0316612b13565b91906101000a8154816001600160401b0302191690836001600160401b0316021790556001600160401b0316856001600160401b031614610ff65760405162461bcd60e51b815260206004820152601a6024820152794c617965725a65726f4d6f636b3a2077726f6e67206e6f6e636560301b6044820152606401610b96565b6001810154156112ea5761ffff89166000908152600b60205260408082209051611023908b908b90612988565b9081526020016040518091039020905060006040518060600160405280896001600160a01b03168152602001886001600160401b0316815260200186868080601f016020809104026020016040519081016040528093929190818152602001838380828437600092019190915250505091525082549091501561127457815460018181018455600084815260209081902084516002909402018054828601516001600160401b0316600160a01b026001600160e01b03199091166001600160a01b03909516949094179390931783556040840151805185949361110b939085019201906120b6565b50505060005b825461111f90600190612b3a565b8110156111f25782818154811061113857611138612b51565b90600052602060002090600202018382600161115491906129e9565b8154811061116457611164612b51565b60009182526020909120825460029092020180546001600160a01b039092166001600160a01b031983168117825583546001600160e01b031990931617600160a01b928390046001600160401b031690920291909117815560018083018054918301916111d090612998565b6111db92919061213a565b5090505080806111ea90612b67565b915050611111565b50808260008154811061120757611207612b51565b600091825260209182902083516002909202018054848401516001600160401b0316600160a01b026001600160e01b03199091166001600160a01b039093169290921791909117815560408301518051919261126b926001850192909101906120b6565b509050506112e3565b815460018181018455600084815260209081902084516002909402018054828601516001600160401b0316600160a01b026001600160e01b03199091166001600160a01b0390951694909417939093178355604084015180518594936112df939085019201906120b6565b5050505b5050611599565b60015462010000900460ff1615611406576040518060600160405280848490506001600160401b03168152602001876001600160a01b031681526020018484604051611337929190612988565b604080519182900390912090915261ffff8b166000908152600a6020528190209051611366908b908b90612988565b90815260408051918290036020908101832084518154868401516001600160a01b0316600160401b026001600160e01b03199091166001600160401b0390921691909117178155938201516001909401939093559181018252600081529051600080516020612d48833981519152916113ed918c918c918c918c918c918b918b9190612b82565b60405180910390a16001805462ff000019169055611599565b604051621d356760e01b81526001600160a01b03871690621d356790869061143c908d908d908d908c908b908b90600401612a7d565b600060405180830381600088803b15801561145657600080fd5b5087f193505050508015611468575060015b611599573d808015611496576040519150601f19603f3d011682016040523d82523d6000602084013e61149b565b606091505b506040518060600160405280858590506001600160401b03168152602001886001600160a01b0316815260200185856040516114d8929190612988565b604080519182900390912090915261ffff8c166000908152600a6020528190209051611507908c908c90612988565b90815260408051918290036020908101832084518154928601516001600160a01b0316600160401b026001600160e01b03199093166001600160401b0390911617919091178155920151600190920191909155600080516020612d4883398151915290611583908c908c908c908c908c908b908b908a90612b82565b60405180910390a1506001805462ff0000191690555b5050600c805461ff00191661010017905550505050505050565b600c5460ff166001146116125760405162461bcd60e51b815260206004820152602160248201527f4c617965725a65726f4d6f636b3a206e6f2073656e64207265656e7472616e636044820152607960f81b6064820152608401610b96565b600c805460ff1916600217905585516028146116855760405162461bcd60e51b815260206004820152602c60248201527f4c617965725a65726f4d6f636b3a20696e636f72726563742072656d6f74652060448201526b616464726573732073697a6560a01b6064820152608401610b96565b60148601516001600160a01b0380821660009081526020819052604090205416806117125760405162461bcd60e51b815260206004820152603760248201527f4c617965725a65726f4d6f636b3a2064657374696e6174696f6e204c6179657260448201527616995c9bc8115b991c1bda5b9d081b9bdd08199bdd5b99604a1b6064820152608401610b96565b6000808451116117ac576007805461172990612998565b80601f016020809104026020016040519081016040528092919081815260200182805461175590612998565b80156117a25780601f10611777576101008083540402835291602001916117a2565b820191906000526020600020905b81548152906001019060200180831161178557829003601f168201915b50505050506117ae565b835b905060006117ff8b338b8b8080601f0160208091040260200160405190810160405280939291908181526020018383808284376000920191909152505050506001600160a01b038a16151586610a41565b509050803410156118645760405162461bcd60e51b815260206004820152602960248201527f4c617965725a65726f4d6f636b3a206e6f7420656e6f756768206e617469766560448201526820666f72206665657360b81b6064820152608401610b96565b61ffff8b166000908152600960209081526040808320338452909152812080548290611898906001600160401b0316612b13565b91906101000a8154816001600160401b0302191690836001600160401b0316021790559050600082346118cb9190612b3a565b90508015611978576000896001600160a01b03168260405160006040518083038185875af1925050503d8060008114611920576040519150601f19603f3d011682016040523d82523d6000602084013e611925565b606091505b50509050806119765760405162461bcd60e51b815260206004820152601f60248201527f4c617965725a65726f4d6f636b3a206661696c656420746f20726566756e64006044820152606401610b96565b505b600080600061198687611f96565b91955093509150508115611a28576000816001600160a01b03168360405160006040518083038185875af1925050503d80600081146119e1576040519150601f19603f3d011682016040523d82523d6000602084013e6119e6565b606091505b5050905080611a265760405183906001600160a01b038416907f2c7a964ca3de5ec1d42d9822f9bbd0eb142a59cc9f855e9d93813b773192c7a390600090a35b505b6040516001600160601b031933606090811b821660208401528b901b166034820152600090604801604051602081830303815290604052905060008f8f8080601f016020809104026020016040519081016040528093929190818152602001838380828437600081840152601f19601f820116905080830192505050505050509050896001600160a01b031663c2fa4813600160009054906101000a900461ffff16848e8b8a876040518763ffffffff1660e01b8152600401611af096959493929190612bf4565b600060405180830381600087803b158015611b0a57600080fd5b505af1158015611b1e573d6000803e3d6000fd5b5050600c805460ff191660011790555050505050505050505050505050505050505050565b8051611b569060079060208401906120b6565b5050565b61ffff83166000908152600860205260408082209051611b7d9085908590612988565b908152604051908190036020019020546001600160401b031690509392505050565b60408051600160f01b602082015260228082019390935281518082039093018352604201905290565b600080600080611bd785611f96565b5092509250925060008361ffff1660021415611c64576003546001600160801b0316821115611c575760405162461bcd60e51b815260206004820152602660248201527f4c617965725a65726f4d6f636b3a206473744e6174697665416d7420746f6f2060448201526503630b933b2960d51b6064820152608401610b96565b611c6182826129e9565b90505b600354600090611c85908590600160801b90046001600160401b03166129e9565b600254611ca29190600160801b90046001600160801b0316612c48565b9050611cae81836129e9565b6002549092506000906402540be40090611cd1906001600160801b031685612c48565b611cdb9190612c7d565b6002546003549192506000916402540be400916001600160801b0380821692611d1e92600160c01b9091046001600160401b031691600160801b90910416612c91565b611d289190612c91565b611d329190612cc0565b6001600160801b03169050611d47818b612c48565b611d5190836129e9565b9d9c50505050505050505050505050565b60008315611d7357506004546108af565b60055461271090611d8484866129e9565b611d8e9190612c48565b611d989190612c7d565b90506108af565b61ffff83166000908152600b60205260408082209051611dc29085908590612988565b908152602001604051809103902090505b8054156107885780546000908290611ded90600190612b3a565b81548110611dfd57611dfd612b51565b600091825260209182902060408051606081018252600290930290910180546001600160a01b03811684526001600160401b03600160a01b909104169383019390935260018301805492939291840191611e5690612998565b80601f0160208091040260200160405190810160405280929190818152602001828054611e8290612998565b8015611ecf5780601f10611ea457610100808354040283529160200191611ecf565b820191906000526020600020905b815481529060010190602001808311611eb257829003601f168201915b505050505081525050905080600001516001600160a01b0316621d3567868686856020015186604001516040518663ffffffff1660e01b8152600401611f19959493929190612ce6565b600060405180830381600087803b158015611f3357600080fd5b505af1158015611f47573d6000803e3d6000fd5b5050505081805480611f5b57611f5b612d31565b60008281526020812060026000199093019283020180546001600160e01b031916815590611f8c60018301826121b5565b5050905550611dd3565b600080600080845160221480611fad575060428551115b611ff15760405162461bcd60e51b8152602060048201526015602482015274496e76616c69642061646170746572506172616d7360581b6044820152606401610b96565b60028501519350602285015192508361ffff166001148061201657508361ffff166002145b6120575760405162461bcd60e51b8152602060048201526012602482015271556e737570706f727465642074785479706560701b6044820152606401610b96565b600083116120955760405162461bcd60e51b815260206004820152600b60248201526a47617320746f6f206c6f7760a81b6044820152606401610b96565b8361ffff16600214156120af575050604283015160568401515b9193509193565b8280546120c290612998565b90600052602060002090601f0160209004810192826120e4576000855561212a565b82601f106120fd57805160ff191683800117855561212a565b8280016001018555821561212a579182015b8281111561212a57825182559160200191906001019061210f565b506121369291506121eb565b5090565b82805461214690612998565b90600052602060002090601f016020900481019282612168576000855561212a565b82601f10612179578054855561212a565b8280016001018555821561212a57600052602060002091601f016020900482015b8281111561212a57825482559160010191906001019061219a565b5080546121c190612998565b6000825580601f106121d1575050565b601f0160209004906000526020600020908101906101ff91905b5b8082111561213657600081556001016121ec565b803561ffff8116811461221257600080fd5b919050565b60006020828403121561222957600080fd5b6108af82612200565b6001600160a01b03811681146101ff57600080fd5b60006020828403121561225957600080fd5b81356108af81612232565b60008083601f84011261227657600080fd5b5081356001600160401b0381111561228d57600080fd5b6020830191508360208285010111156122a557600080fd5b9250929050565b6000806000604084860312156122c157600080fd5b6122ca84612200565b925060208401356001600160401b038111156122e557600080fd5b6122f186828701612264565b9497909650939450505050565b634e487b7160e01b600052604160045260246000fd5b600082601f83011261232557600080fd5b81356001600160401b038082111561233f5761233f6122fe565b604051601f8301601f19908116603f01168101908282118183101715612367576123676122fe565b8160405283815286602085880101111561238057600080fd5b836020870160208301376000602085830101528094505050505092915050565b6000806000606084860312156123b557600080fd5b6123be84612200565b925060208401356001600160401b038111156123d957600080fd5b6123e586828701612314565b925050604084013590509250925092565b6000815180845260005b8181101561241c57602081850181015186830182015201612400565b8181111561242e576000602083870101525b50601f01601f19169290920160200192915050565b6001600160a01b03841681526001600160401b0383166020820152606060408201819052600090612476908301846123f6565b95945050505050565b6000806040838503121561249257600080fd5b50508035926020909101359150565b6020815260006108af60208301846123f6565b80356001600160801b038116811461221257600080fd5b80356001600160401b038116811461221257600080fd5b600080600080600060a086880312156124fa57600080fd5b612503866124b4565b9450612511602087016124b4565b935061251f604087016124b4565b925061252d606087016124cb565b915061253b608087016124cb565b90509295509295909350565b600080600080600060a0868803121561255f57600080fd5b61256886612200565b9450602086013561257881612232565b935060408601356001600160401b038082111561259457600080fd5b6125a089838a01612314565b94506060880135915081151582146125b757600080fd5b909250608087013590808211156125cd57600080fd5b506125da88828901612314565b9150509295509295909350565b600080604083850312156125fa57600080fd5b61260383612200565b915060208301356001600160401b0381111561261e57600080fd5b61262a85828601612314565b9150509250929050565b6000806040838503121561264757600080fd5b61265083612200565b9150602083013561266081612232565b809150509250929050565b60008060008060006060868803121561268357600080fd5b61268c86612200565b945060208601356001600160401b03808211156126a857600080fd5b6126b489838a01612264565b909650945060408801359150808211156126cd57600080fd5b506126da88828901612264565b969995985093965092949392505050565b6000602082840312156126fd57600080fd5b5035919050565b6000806040838503121561271757600080fd5b823561265081612232565b60008060008060008060008060c0898b03121561273e57600080fd5b61274789612200565b975060208901356001600160401b038082111561276357600080fd5b61276f8c838d01612264565b909950975060408b0135915061278482612232565b81965061279360608c016124cb565b955060808b0135945060a08b01359150808211156127b057600080fd5b506127bd8b828c01612264565b999c989b5096995094979396929594505050565b600080600080600080600060c0888a0312156127ec57600080fd5b6127f588612200565b965060208801356001600160401b038082111561281157600080fd5b61281d8b838c01612314565b975060408a013591508082111561283357600080fd5b61283f8b838c01612264565b909750955060608a0135915061285482612232565b90935060808901359061286682612232565b90925060a0890135908082111561287c57600080fd5b506128898a828b01612314565b91505092959891949750929550565b600080600080608085870312156128ae57600080fd5b6128b785612200565b93506128c560208601612200565b92506040850135915060608501356001600160401b038111156128e757600080fd5b6128f387828801612314565b91505092959194509250565b6000806000806080858703121561291557600080fd5b61291e85612200565b935061292c60208601612200565b9250604085013561293c81612232565b9396929550929360600135925050565b60006020828403121561295e57600080fd5b81356001600160401b0381111561297457600080fd5b61298084828501612314565b949350505050565b8183823760009101908152919050565b600181811c908216806129ac57607f821691505b602082108114156129cd57634e487b7160e01b600052602260045260246000fd5b50919050565b634e487b7160e01b600052601160045260246000fd5b600082198211156129fc576129fc6129d3565b500190565b6020808252818101527f4c617965725a65726f4d6f636b3a206e6f2073746f726564207061796c6f6164604082015260600190565b81835281816020850137506000828201602090810191909152601f909101601f19169091010190565b61ffff84168152604060208201526000612476604083018486612a36565b61ffff87168152608060208201526000612a9b608083018789612a36565b6001600160401b03861660408401528281036060840152612abd818587612a36565b9998505050505050505050565b61ffff86168152608060208201526000612ae8608083018688612a36565b6001600160401b03949094166040830152506001600160a01b03919091166060909101529392505050565b60006001600160401b0382811680821415612b3057612b306129d3565b6001019392505050565b600082821015612b4c57612b4c6129d3565b500390565b634e487b7160e01b600052603260045260246000fd5b6000600019821415612b7b57612b7b6129d3565b5060010190565b61ffff8916815260c060208201526000612ba060c08301898b612a36565b6001600160a01b03881660408401526001600160401b03871660608401528281036080840152612bd1818688612a36565b905082810360a0840152612be581856123f6565b9b9a5050505050505050505050565b61ffff8716815260c060208201526000612c1160c08301886123f6565b6001600160a01b03871660408401526001600160401b03861660608401526080830185905282810360a0840152612abd81856123f6565b6000816000190483118215151615612c6257612c626129d3565b500290565b634e487b7160e01b600052601260045260246000fd5b600082612c8c57612c8c612c67565b500490565b60006001600160801b0382811684821681151582840482111615612cb757612cb76129d3565b02949350505050565b60006001600160801b0383811680612cda57612cda612c67565b92169190910492915050565b61ffff86168152608060208201526000612d04608083018688612a36565b6001600160401b03851660408401528281036060840152612d2581856123f6565b98975050505050505050565b634e487b7160e01b600052603160045260246000fdfe0f9e4d95b62f08222d612b5ab92039cd8fbbbea550a95e8df9f927436bbdf5dba2646970667358221220d5fef53a164986240940900bd25275483e4d5b9fcc23244abc852b8db94d3cf264736f6c634300080a0033",
  "linkReferences": {},
  "deployedLinkReferences": {}
}