{
  "_format": "hh-sol-artifact-1",
  "contractName": "MockCrossChainReceiver",
  "sourceName": "contracts/test/MockCrossChainReceiver.sol",
  "abi": [
    {
      "inputs": [
        {
          "internalType": "address",
          "name": "router",
          "type": "address"
        }
      ],
      "stateMutability": "nonpayable",
      "type": "constructor"
    },
    {
      "inputs": [
        {
          "internalType": "address",
          "name": "router",
          "type": "address"
        }
      ],
      "name": "InvalidRouter",
      "type": "error"
    },
    {
      "anonymous": false,
      "inputs": [
        {
          "indexed": true,
          "internalType": "bytes32",
          "name": "messageId",
          "type": "bytes32"
        },
        {
          "indexed": true,
          "internalType": "uint64",
          "name": "sourceChainSelector",
          "type": "uint64"
        },
        {
          "indexed": false,
          "internalType": "address",
          "name": "userAddress",
          "type": "address"
        },
        {
          "indexed": false,
          "internalType": "uint256",
          "name": "amount",
          "type": "uint256"
        },
        {
          "indexed": false,
          "internalType": "uint256",
          "name": "end",
          "type": "uint256"
        }
      ],
      "name": "MessageReceived",
      "type": "event"
    },
    {
      "anonymous": false,
      "inputs": [
        {
          "indexed": true,
          "internalType": "address",
          "name": "previousOwner",
          "type": "address"
        },
        {
          "indexed": true,
          "internalType": "address",
          "name": "newOwner",
          "type": "address"
        }
      ],
      "name": "OwnershipTransferred",
      "type": "event"
    },
    {
      "anonymous": false,
      "inputs": [
        {
          "indexed": true,
          "internalType": "address",
          "name": "veCakeSyncer",
          "type": "address"
        }
      ],
      "name": "VECakeSyncerContactUpdated",
      "type": "event"
    },
    {
      "inputs": [
        {
          "components": [
            {
              "internalType": "bytes32",
              "name": "messageId",
              "type": "bytes32"
            },
            {
              "internalType": "uint64",
              "name": "sourceChainSelector",
              "type": "uint64"
            },
            {
              "internalType": "bytes",
              "name": "sender",
              "type": "bytes"
            },
            {
              "internalType": "bytes",
              "name": "data",
              "type": "bytes"
            },
            {
              "components": [
                {
                  "internalType": "address",
                  "name": "token",
                  "type": "address"
                },
                {
                  "internalType": "uint256",
                  "name": "amount",
                  "type": "uint256"
                }
              ],
              "internalType": "struct Client.EVMTokenAmount[]",
              "name": "destTokenAmounts",
              "type": "tuple[]"
            }
          ],
          "internalType": "struct Client.Any2EVMMessage",
          "name": "message",
          "type": "tuple"
        }
      ],
      "name": "ccipReceive",
      "outputs": [],
      "stateMutability": "nonpayable",
      "type": "function"
    },
    {
      "inputs": [],
      "name": "getLastReceivedMessageDetails",
      "outputs": [
        {
          "internalType": "bytes32",
          "name": "messageId",
          "type": "bytes32"
        }
      ],
      "stateMutability": "view",
      "type": "function"
    },
    {
      "inputs": [],
      "name": "getRouter",
      "outputs": [
        {
          "internalType": "address",
          "name": "",
          "type": "address"
        }
      ],
      "stateMutability": "view",
      "type": "function"
    },
    {
      "inputs": [
        {
          "internalType": "bytes",
          "name": "_payload",
          "type": "bytes"
        }
      ],
      "name": "handleReceive",
      "outputs": [],
      "stateMutability": "nonpayable",
      "type": "function"
    },
    {
      "inputs": [],
      "name": "owner",
      "outputs": [
        {
          "internalType": "address",
          "name": "",
          "type": "address"
        }
      ],
      "stateMutability": "view",
      "type": "function"
    },
    {
      "inputs": [],
      "name": "renounceOwnership",
      "outputs": [],
      "stateMutability": "nonpayable",
      "type": "function"
    },
    {
      "inputs": [
        {
          "internalType": "bytes4",
          "name": "interfaceId",
          "type": "bytes4"
        }
      ],
      "name": "supportsInterface",
      "outputs": [
        {
          "internalType": "bool",
          "name": "",
          "type": "bool"
        }
      ],
      "stateMutability": "pure",
      "type": "function"
    },
    {
      "inputs": [
        {
          "internalType": "address",
          "name": "newOwner",
          "type": "address"
        }
      ],
      "name": "transferOwnership",
      "outputs": [],
      "stateMutability": "nonpayable",
      "type": "function"
    },
    {
      "inputs": [
        {
          "internalType": "address",
          "name": "_veCakeSyncer",
          "type": "address"
        }
      ],
      "name": "updateVECakeSyncerContract",
      "outputs": [],
      "stateMutability": "nonpayable",
      "type": "function"
    },
    {
      "inputs": [],
      "name": "veCakeSyncer",
      "outputs": [
        {
          "internalType": "address",
          "name": "",
          "type": "address"
        }
      ],
      "stateMutability": "view",
      "type": "function"
    }
  ],
  "bytecode": "0x60a060405234801561001057600080fd5b50604051610ff1380380610ff183398101604081905261002f916100c9565b8061003933610079565b6001600160a01b038116610067576040516335fdcccd60e21b81526000600482015260240160405180910390fd5b6001600160a01b0316608052506100f9565b600080546001600160a01b038381166001600160a01b0319831681178455604051919092169283917f8be0079c531659141344cd1fd0a4f28419497f9722a3daafe3b4186f6b6457e09190a35050565b6000602082840312156100db57600080fd5b81516001600160a01b03811681146100f257600080fd5b9392505050565b608051610ed661011b6000396000818161011301526101f60152610ed66000f3fe608060405234801561001057600080fd5b506004361061008e5760003560e01c806301ffc9a714610093578063263596a5146100bb5780633a9ac7fe146100cc578063715018a6146100ec57806385572ffb146100f65780638da5cb5b14610109578063b0f479a114610111578063e31e130514610137578063e34381a11461014a578063f2fde38b1461015d575b600080fd5b6100a66100a13660046108c4565b610170565b60405190151581526020015b60405180910390f35b6002546040519081526020016100b2565b6001546100df906001600160a01b031681565b6040516100b291906108f5565b6100f46101a7565b005b6100f4610104366004610909565b6101eb565b6100df61024a565b7f00000000000000000000000000000000000000000000000000000000000000006100df565b6100f4610145366004610958565b610259565b6100f4610158366004610975565b6102d2565b6100f461016b366004610958565b6102f6565b60006001600160e01b031982166385572ffb60e01b14806101a157506001600160e01b031982166301ffc9a760e01b145b92915050565b336101b061024a565b6001600160a01b0316146101df5760405162461bcd60e51b81526004016101d6906109e6565b60405180910390fd5b6101e9600061038f565b565b336001600160a01b037f0000000000000000000000000000000000000000000000000000000000000000161461023657336040516335fdcccd60e21b81526004016101d691906108f5565b61024761024282610c04565b6103df565b50565b6000546001600160a01b031690565b3361026261024a565b6001600160a01b0316146102885760405162461bcd60e51b81526004016101d6906109e6565b600180546001600160a01b0319166001600160a01b0383169081179091556040517fd446fc91d3fe87a867abb7ad9748b7dd2e93e113d9957ec5d993904f06e2c14190600090a250565b6102da610893565b6102e682840184610cb0565b90506102f1816104e7565b505050565b336102ff61024a565b6001600160a01b0316146103255760405162461bcd60e51b81526004016101d6906109e6565b6001600160a01b03811661038a5760405162461bcd60e51b815260206004820152602660248201527f4f776e61626c653a206e6577206f776e657220697320746865207a65726f206160448201526564647265737360d01b60648201526084016101d6565b610247815b600080546001600160a01b038381166001600160a01b0319831681178455604051919092169283917f8be0079c531659141344cd1fd0a4f28419497f9722a3daafe3b4186f6b6457e09190a35050565b80516002556103ec610893565b81606001518060200190518101906104049190610d01565b9050600082604001518060200190518101906104209190610d52565b9050806001600160a01b031682600001516001600160a01b03161461047f5760405162461bcd60e51b81526020600482015260156024820152741cd95b99195c881a5cc81b9bdd0818dbdc9c9958dd605a1b60448201526064016101d6565b610488826104e7565b82602001516001600160401b031683600001517fc05038a93d52e0ef1633710a75708e51e98b553a3707ba07ff0834ea88476eb38460000151856020015186604001516040516104da93929190610d6f565b60405180910390a3505050565b6001546001600160a01b03166105375760405162461bcd60e51b8152602060048201526015602482015274564543616b6553796e63657220697320656d70747960581b60448201526064016101d6565b6001548151604051636386c1c760e01b815260009283926001600160a01b0390911691636386c1c79161056c916004016108f5565b61010060405180830381865afa15801561058a573d6000803e3d6000fd5b505050506040513d601f19601f820116820180604052508101906105ae9190610db8565b5050505050509150915060006105c683600f0b61083d565b9050806106425760015484516020860151604080880151905163650e150560e01b81526001600160a01b039094169363650e15059361060b9390929091600401610d6f565b600060405180830381600087803b15801561062557600080fd5b505af1158015610639573d6000803e3d6000fd5b50505050610837565b836020015181101561070d57600154845160208601516001600160a01b0390921691637c8234479190610676908590610e62565b6040518363ffffffff1660e01b8152600401610693929190610e87565b600060405180830381600087803b1580156106ad57600080fd5b505af11580156106c1573d6000803e3d6000fd5b505050508184604001511115610708576001548451604080870151905163cb5f06cd60e01b81526001600160a01b039093169263cb5f06cd9261060b929091600401610e87565b610837565b83602001518111156107c15760015484516040516301395c5960e31b81526001600160a01b039182166004820181905260248201529116906309cae2c890604401600060405180830381600087803b15801561076857600080fd5b505af115801561077c573d6000803e3d6000fd5b505050506020840151156107085760015484516020860151604051637c82344760e01b81526001600160a01b0390931692637c8234479261060b929091600401610e87565b8184604001511115610837576001548451604080870151905163cb5f06cd60e01b81526001600160a01b039093169263cb5f06cd92610804929091600401610e87565b600060405180830381600087803b15801561081e57600080fd5b505af1158015610832573d6000803e3d6000fd5b505050505b50505050565b60008082121561088f5760405162461bcd60e51b815260206004820181905260248201527f53616665436173743a2076616c7565206d75737420626520706f73697469766560448201526064016101d6565b5090565b604051806080016040528060006001600160a01b031681526020016000815260200160008152602001600081525090565b6000602082840312156108d657600080fd5b81356001600160e01b0319811681146108ee57600080fd5b9392505050565b6001600160a01b0391909116815260200190565b60006020828403121561091b57600080fd5b81356001600160401b0381111561093157600080fd5b820160a081850312156108ee57600080fd5b6001600160a01b038116811461024757600080fd5b60006020828403121561096a57600080fd5b81356108ee81610943565b6000806020838503121561098857600080fd5b82356001600160401b038082111561099f57600080fd5b818501915085601f8301126109b357600080fd5b8135818111156109c257600080fd5b8660208285010111156109d457600080fd5b60209290920196919550909350505050565b6020808252818101527f4f776e61626c653a2063616c6c6572206973206e6f7420746865206f776e6572604082015260600190565b634e487b7160e01b600052604160045260246000fd5b604080519081016001600160401b0381118282101715610a5357610a53610a1b565b60405290565b60405160a081016001600160401b0381118282101715610a5357610a53610a1b565b604051608081016001600160401b0381118282101715610a5357610a53610a1b565b604051601f8201601f191681016001600160401b0381118282101715610ac557610ac5610a1b565b604052919050565b80356001600160401b0381168114610ae457600080fd5b919050565b600082601f830112610afa57600080fd5b81356001600160401b03811115610b1357610b13610a1b565b610b26601f8201601f1916602001610a9d565b818152846020838601011115610b3b57600080fd5b816020850160208301376000918101602001919091529392505050565b600082601f830112610b6957600080fd5b813560206001600160401b03821115610b8457610b84610a1b565b610b92818360051b01610a9d565b82815260069290921b84018101918181019086841115610bb157600080fd5b8286015b84811015610bf95760408189031215610bce5760008081fd5b610bd6610a31565b8135610be181610943565b81528185013585820152835291830191604001610bb5565b509695505050505050565b600060a08236031215610c1657600080fd5b610c1e610a59565b82358152610c2e60208401610acd565b602082015260408301356001600160401b0380821115610c4d57600080fd5b610c5936838701610ae9565b60408401526060850135915080821115610c7257600080fd5b610c7e36838701610ae9565b60608401526080850135915080821115610c9757600080fd5b50610ca436828601610b58565b60808301525092915050565b600060808284031215610cc257600080fd5b610cca610a7b565b8235610cd581610943565b808252506020830135602082015260408301356040820152606083013560608201528091505092915050565b600060808284031215610d1357600080fd5b610d1b610a7b565b8251610d2681610943565b808252506020830151602082015260408301516040820152606083015160608201528091505092915050565b600060208284031215610d6457600080fd5b81516108ee81610943565b6001600160a01b039390931683526020830191909152604082015260600190565b805165ffffffffffff81168114610ae457600080fd5b805161ffff81168114610ae457600080fd5b600080600080600080600080610100898b031215610dd557600080fd5b885180600f0b8114610de657600080fd5b60208a015160408b01519199509750610dfe81610943565b60608a01519096506001600160801b0381168114610e1b57600080fd5b9450610e2960808a01610d90565b9350610e3760a08a01610d90565b9250610e4560c08a01610da6565b9150610e5360e08a01610da6565b90509295985092959890939650565b600082821015610e8257634e487b7160e01b600052601160045260246000fd5b500390565b6001600160a01b0392909216825260208201526040019056fea2646970667358221220d74e8212f39c02f0fed2ccba481e5eeaafd20d72e91ae76f0a26f1291eb9554464736f6c634300080a0033",
  "linkReferences": {},
  "deployedLinkReferences": {}
}