{
  "_format": "hh-sol-artifact-1",
  "contractName": "MockBunnies",
  "sourceName": "contracts/test/MockBunnies.sol",
  "abi": [
    {
      "inputs": [],
      "stateMutability": "nonpayable",
      "type": "constructor"
    },
    {
      "anonymous": false,
      "inputs": [
        {
          "indexed": true,
          "internalType": "address",
          "name": "owner",
          "type": "address"
        },
        {
          "indexed": true,
          "internalType": "address",
          "name": "approved",
          "type": "address"
        },
        {
          "indexed": true,
          "internalType": "uint256",
          "name": "tokenId",
          "type": "uint256"
        }
      ],
      "name": "Approval",
      "type": "event"
    },
    {
      "anonymous": false,
      "inputs": [
        {
          "indexed": true,
          "internalType": "address",
          "name": "owner",
          "type": "address"
        },
        {
          "indexed": true,
          "internalType": "address",
          "name": "operator",
          "type": "address"
        },
        {
          "indexed": false,
          "internalType": "bool",
          "name": "approved",
          "type": "bool"
        }
      ],
      "name": "ApprovalForAll",
      "type": "event"
    },
    {
      "anonymous": false,
      "inputs": [
        {
          "indexed": true,
          "internalType": "address",
          "name": "previousOwner",
          "type": "address"
        },
        {
          "indexed": true,
          "internalType": "address",
          "name": "newOwner",
          "type": "address"
        }
      ],
      "name": "OwnershipTransferred",
      "type": "event"
    },
    {
      "anonymous": false,
      "inputs": [
        {
          "indexed": true,
          "internalType": "address",
          "name": "from",
          "type": "address"
        },
        {
          "indexed": true,
          "internalType": "address",
          "name": "to",
          "type": "address"
        },
        {
          "indexed": true,
          "internalType": "uint256",
          "name": "tokenId",
          "type": "uint256"
        }
      ],
      "name": "Transfer",
      "type": "event"
    },
    {
      "inputs": [
        {
          "internalType": "address",
          "name": "to",
          "type": "address"
        },
        {
          "internalType": "uint256",
          "name": "tokenId",
          "type": "uint256"
        }
      ],
      "name": "approve",
      "outputs": [],
      "stateMutability": "nonpayable",
      "type": "function"
    },
    {
      "inputs": [
        {
          "internalType": "address",
          "name": "owner",
          "type": "address"
        }
      ],
      "name": "balanceOf",
      "outputs": [
        {
          "internalType": "uint256",
          "name": "",
          "type": "uint256"
        }
      ],
      "stateMutability": "view",
      "type": "function"
    },
    {
      "inputs": [],
      "name": "baseURI",
      "outputs": [
        {
          "internalType": "string",
          "name": "",
          "type": "string"
        }
      ],
      "stateMutability": "view",
      "type": "function"
    },
    {
      "inputs": [
        {
          "internalType": "uint256",
          "name": "tokenId",
          "type": "uint256"
        }
      ],
      "name": "getApproved",
      "outputs": [
        {
          "internalType": "address",
          "name": "",
          "type": "address"
        }
      ],
      "stateMutability": "view",
      "type": "function"
    },
    {
      "inputs": [
        {
          "internalType": "address",
          "name": "owner",
          "type": "address"
        },
        {
          "internalType": "address",
          "name": "operator",
          "type": "address"
        }
      ],
      "name": "isApprovedForAll",
      "outputs": [
        {
          "internalType": "bool",
          "name": "",
          "type": "bool"
        }
      ],
      "stateMutability": "view",
      "type": "function"
    },
    {
      "inputs": [],
      "name": "mint",
      "outputs": [
        {
          "internalType": "uint256",
          "name": "",
          "type": "uint256"
        }
      ],
      "stateMutability": "nonpayable",
      "type": "function"
    },
    {
      "inputs": [],
      "name": "name",
      "outputs": [
        {
          "internalType": "string",
          "name": "",
          "type": "string"
        }
      ],
      "stateMutability": "view",
      "type": "function"
    },
    {
      "inputs": [],
      "name": "owner",
      "outputs": [
        {
          "internalType": "address",
          "name": "",
          "type": "address"
        }
      ],
      "stateMutability": "view",
      "type": "function"
    },
    {
      "inputs": [
        {
          "internalType": "uint256",
          "name": "tokenId",
          "type": "uint256"
        }
      ],
      "name": "ownerOf",
      "outputs": [
        {
          "internalType": "address",
          "name": "",
          "type": "address"
        }
      ],
      "stateMutability": "view",
      "type": "function"
    },
    {
      "inputs": [],
      "name": "renounceOwnership",
      "outputs": [],
      "stateMutability": "nonpayable",
      "type": "function"
    },
    {
      "inputs": [
        {
          "internalType": "address",
          "name": "from",
          "type": "address"
        },
        {
          "internalType": "address",
          "name": "to",
          "type": "address"
        },
        {
          "internalType": "uint256",
          "name": "tokenId",
          "type": "uint256"
        }
      ],
      "name": "safeTransferFrom",
      "outputs": [],
      "stateMutability": "nonpayable",
      "type": "function"
    },
    {
      "inputs": [
        {
          "internalType": "address",
          "name": "from",
          "type": "address"
        },
        {
          "internalType": "address",
          "name": "to",
          "type": "address"
        },
        {
          "internalType": "uint256",
          "name": "tokenId",
          "type": "uint256"
        },
        {
          "internalType": "bytes",
          "name": "_data",
          "type": "bytes"
        }
      ],
      "name": "safeTransferFrom",
      "outputs": [],
      "stateMutability": "nonpayable",
      "type": "function"
    },
    {
      "inputs": [
        {
          "internalType": "address",
          "name": "operator",
          "type": "address"
        },
        {
          "internalType": "bool",
          "name": "approved",
          "type": "bool"
        }
      ],
      "name": "setApprovalForAll",
      "outputs": [],
      "stateMutability": "nonpayable",
      "type": "function"
    },
    {
      "inputs": [
        {
          "internalType": "bytes4",
          "name": "interfaceId",
          "type": "bytes4"
        }
      ],
      "name": "supportsInterface",
      "outputs": [
        {
          "internalType": "bool",
          "name": "",
          "type": "bool"
        }
      ],
      "stateMutability": "view",
      "type": "function"
    },
    {
      "inputs": [],
      "name": "symbol",
      "outputs": [
        {
          "internalType": "string",
          "name": "",
          "type": "string"
        }
      ],
      "stateMutability": "view",
      "type": "function"
    },
    {
      "inputs": [
        {
          "internalType": "uint256",
          "name": "index",
          "type": "uint256"
        }
      ],
      "name": "tokenByIndex",
      "outputs": [
        {
          "internalType": "uint256",
          "name": "",
          "type": "uint256"
        }
      ],
      "stateMutability": "view",
      "type": "function"
    },
    {
      "inputs": [
        {
          "internalType": "address",
          "name": "owner",
          "type": "address"
        },
        {
          "internalType": "uint256",
          "name": "index",
          "type": "uint256"
        }
      ],
      "name": "tokenOfOwnerByIndex",
      "outputs": [
        {
          "internalType": "uint256",
          "name": "",
          "type": "uint256"
        }
      ],
      "stateMutability": "view",
      "type": "function"
    },
    {
      "inputs": [
        {
          "internalType": "uint256",
          "name": "tokenId",
          "type": "uint256"
        }
      ],
      "name": "tokenURI",
      "outputs": [
        {
          "internalType": "string",
          "name": "",
          "type": "string"
        }
      ],
      "stateMutability": "view",
      "type": "function"
    },
    {
      "inputs": [],
      "name": "totalSupply",
      "outputs": [
        {
          "internalType": "uint256",
          "name": "",
          "type": "uint256"
        }
      ],
      "stateMutability": "view",
      "type": "function"
    },
    {
      "inputs": [
        {
          "internalType": "address",
          "name": "from",
          "type": "address"
        },
        {
          "internalType": "address",
          "name": "to",
          "type": "address"
        },
        {
          "internalType": "uint256",
          "name": "tokenId",
          "type": "uint256"
        }
      ],
      "name": "transferFrom",
      "outputs": [],
      "stateMutability": "nonpayable",
      "type": "function"
    },
    {
      "inputs": [
        {
          "internalType": "address",
          "name": "newOwner",
          "type": "address"
        }
      ],
      "name": "transferOwnership",
      "outputs": [],
      "stateMutability": "nonpayable",
      "type": "function"
    }
  ],
  "bytecode": "0x60806040523480156200001157600080fd5b50604080518082018252600c81526b4d6f636b2042756e6e69657360a01b6020808301919091528251808401909352600283526126a160f11b9083015290620000616301ffc9a760e01b6200014d565b815162000076906006906020850190620001ef565b5080516200008c906007906020840190620001ef565b506200009f6380ac58cd60e01b6200014d565b620000b1635b5e139f60e01b6200014d565b620000c363780e9d6360e01b6200014d565b5060009050620000d2620001d2565b600a80546001600160a01b0319166001600160a01b038316908117909155604051919250906000907f8be0079c531659141344cd1fd0a4f28419497f9722a3daafe3b4186f6b6457e0908290a350604080518082019091526005815264746573742f60d81b60208201526200014790620001d6565b6200028b565b6001600160e01b03198082161415620001ad576040805162461bcd60e51b815260206004820152601c60248201527f4552433136353a20696e76616c696420696e7465726661636520696400000000604482015290519081900360640190fd5b6001600160e01b0319166000908152602081905260409020805460ff19166001179055565b3390565b8051620001eb906009906020840190620001ef565b5050565b828054600181600116156101000203166002900490600052602060002090601f016020900481019282601f106200023257805160ff191683800117855562000262565b8280016001018555821562000262579182015b828111156200026257825182559160200191906001019062000245565b506200027092915062000274565b5090565b5b8082111562000270576000815560010162000275565b611e61806200029b6000396000f3fe608060405234801561001057600080fd5b50600436106101075760003560e01c806301ffc9a71461010c57806306fdde0314610147578063081812fc146101c4578063095ea7b3146101fd5780631249c58b1461022b57806318160ddd1461024557806323b872dd1461024d5780632f745c591461028357806342842e0e146102af5780634f6ccce7146102e55780636352211e146103025780636c0360eb1461031f57806370a0823114610327578063715018a61461034d5780638da5cb5b1461035557806395d89b411461035d578063a22cb46514610365578063b88d4fde14610393578063c87b56dd14610457578063e985e9c514610474578063f2fde38b146104a2575b600080fd5b6101336004803603602081101561012257600080fd5b50356001600160e01b0319166104c8565b604080519115158252519081900360200190f35b61014f6104eb565b6040805160208082528351818301528351919283929083019185019080838360005b83811015610189578181015183820152602001610171565b50505050905090810190601f1680156101b65780820380516001836020036101000a031916815260200191505b509250505060405180910390f35b6101e1600480360360208110156101da57600080fd5b5035610581565b604080516001600160a01b039092168252519081900360200190f35b6102296004803603604081101561021357600080fd5b506001600160a01b0381351690602001356105e3565b005b6102336106be565b60408051918252519081900360200190f35b61023361070f565b6102296004803603606081101561026357600080fd5b506001600160a01b0381358116916020810135909116906040013561071b565b6102336004803603604081101561029957600080fd5b506001600160a01b038135169060200135610772565b610229600480360360608110156102c557600080fd5b506001600160a01b0381358116916020810135909116906040013561079d565b610233600480360360208110156102fb57600080fd5b50356107b8565b6101e16004803603602081101561031857600080fd5b50356107ce565b61014f6107f6565b6102336004803603602081101561033d57600080fd5b50356001600160a01b0316610857565b6102296108bf565b6101e161094f565b61014f61095e565b6102296004803603604081101561037b57600080fd5b506001600160a01b03813516906020013515156109bf565b610229600480360360808110156103a957600080fd5b6001600160a01b03823581169260208101359091169160408201359190810190608081016060820135600160201b8111156103e357600080fd5b8201836020820111156103f557600080fd5b803590602001918460018302840111600160201b8311171561041657600080fd5b91908080601f016020809104026020016040519081016040528093929190818152602001838380828437600092019190915250929550610ac0945050505050565b61014f6004803603602081101561046d57600080fd5b5035610b1e565b6101336004803603604081101561048a57600080fd5b506001600160a01b0381358116916020013516610dc5565b610229600480360360208110156104b857600080fd5b50356001600160a01b0316610df3565b6001600160e01b0319811660009081526020819052604090205460ff165b919050565b60068054604080516020601f60026000196101006001881615020190951694909404938401819004810282018101909252828152606093909290918301828280156105775780601f1061054c57610100808354040283529160200191610577565b820191906000526020600020905b81548152906001019060200180831161055a57829003601f168201915b5050505050905090565b600061058c82610eda565b6105c75760405162461bcd60e51b815260040180806020018281038252602c815260200180611cca602c913960400191505060405180910390fd5b506000908152600460205260409020546001600160a01b031690565b60006105ee826107ce565b9050806001600160a01b0316836001600160a01b031614156106415760405162461bcd60e51b8152600401808060200182810382526021815260200180611dda6021913960400191505060405180910390fd5b806001600160a01b0316610653610ee7565b6001600160a01b0316148061067457506106748161066f610ee7565b610dc5565b6106af5760405162461bcd60e51b8152600401808060200182810382526038815260200180611c1d6038913960400191505060405180910390fd5b6106b98383610eeb565b505050565b6000806106cb600b610f59565b90506106d7600b610f5d565b6106e13382610f66565b61070a8160405180604001604052806007815260200166191959985d5b1d60ca1b815250611081565b905090565b600061070a60026110e4565b61072c610726610ee7565b826110ef565b6107675760405162461bcd60e51b8152600401808060200182810382526031815260200180611dfb6031913960400191505060405180910390fd5b6106b9838383611193565b6001600160a01b038216600090815260016020526040812061079490836112cd565b90505b92915050565b6106b983838360405180602001604052806000815250610ac0565b6000806107c66002846112d9565b509392505050565b600061079782604051806060016040528060298152602001611c7f60299139600291906112f5565b60098054604080516020601f60026000196101006001881615020190951694909404938401819004810282018101909252828152606093909290918301828280156105775780601f1061054c57610100808354040283529160200191610577565b60006001600160a01b03821661089e5760405162461bcd60e51b815260040180806020018281038252602a815260200180611c55602a913960400191505060405180910390fd5b6001600160a01b0382166000908152600160205260409020610797906110e4565b6108c7610ee7565b600a546001600160a01b03908116911614610917576040805162461bcd60e51b81526020600482018190526024820152600080516020611d22833981519152604482015290519081900360640190fd5b600a546040516000916001600160a01b031690600080516020611d42833981519152908390a3600a80546001600160a01b0319169055565b600a546001600160a01b031690565b60078054604080516020601f60026000196101006001881615020190951694909404938401819004810282018101909252828152606093909290918301828280156105775780601f1061054c57610100808354040283529160200191610577565b6109c7610ee7565b6001600160a01b0316826001600160a01b03161415610a29576040805162461bcd60e51b815260206004820152601960248201527822a9219b99189d1030b8383937bb32903a379031b0b63632b960391b604482015290519081900360640190fd5b8060056000610a36610ee7565b6001600160a01b03908116825260208083019390935260409182016000908120918716808252919093529120805460ff191692151592909217909155610a7a610ee7565b6001600160a01b03167f17307eab39ab6107e8899845ad3d59bd9653f200f220920489ca2b5937696c318360405180821515815260200191505060405180910390a35050565b610ad1610acb610ee7565b836110ef565b610b0c5760405162461bcd60e51b8152600401808060200182810382526031815260200180611dfb6031913960400191505060405180910390fd5b610b188484848461130c565b50505050565b6060610b2982610eda565b610b645760405162461bcd60e51b815260040180806020018281038252602f815260200180611d8b602f913960400191505060405180910390fd5b60008281526008602090815260409182902080548351601f6002600019610100600186161502019093169290920491820184900484028101840190945280845260609392830182828015610bf95780601f10610bce57610100808354040283529160200191610bf9565b820191906000526020600020905b815481529060010190602001808311610bdc57829003601f168201915b505060095493945050505060026000196101006001841615020190911604610c225790506104e6565b805115610cf3576009816040516020018083805460018160011615610100020316600290048015610c8a5780601f10610c68576101008083540402835291820191610c8a565b820191906000526020600020905b815481529060010190602001808311610c76575b5050825160208401908083835b60208310610cb65780518252601f199092019160209182019101610c97565b6001836020036101000a038019825116818451168082178552505050505050905001925050506040516020818303038152906040529150506104e6565b6009610cfe8461135e565b6040516020018083805460018160011615610100020316600290048015610d5c5780601f10610d3a576101008083540402835291820191610d5c565b820191906000526020600020905b815481529060010190602001808311610d48575b5050825160208401908083835b60208310610d885780518252601f199092019160209182019101610d69565b6001836020036101000a03801982511681845116808217855250505050505090500192505050604051602081830303815290604052915050919050565b6001600160a01b03918216600090815260056020908152604080832093909416825291909152205460ff1690565b610dfb610ee7565b600a546001600160a01b03908116911614610e4b576040805162461bcd60e51b81526020600482018190526024820152600080516020611d22833981519152604482015290519081900360640190fd5b6001600160a01b038116610e905760405162461bcd60e51b8152600401808060200182810382526026815260200180611ba76026913960400191505060405180910390fd5b600a546040516001600160a01b03808416921690600080516020611d4283398151915290600090a3600a80546001600160a01b0319166001600160a01b0392909216919091179055565b6000610797600283611438565b3390565b600081815260046020526040902080546001600160a01b0319166001600160a01b0384169081179091558190610f20826107ce565b6001600160a01b03167f8c5be1e5ebec7d5bd14f71427d1e84f3dd0314c0f7b2291e5b200ac8c7c3b92560405160405180910390a45050565b5490565b80546001019055565b6001600160a01b038216610fc1576040805162461bcd60e51b815260206004820181905260248201527f4552433732313a206d696e7420746f20746865207a65726f2061646472657373604482015290519081900360640190fd5b610fca81610eda565b1561101b576040805162461bcd60e51b815260206004820152601c60248201527b115490cdcc8c4e881d1bdad95b88185b1c9958591e481b5a5b9d195960221b604482015290519081900360640190fd5b611027600083836106b9565b6001600160a01b03821660009081526001602052604090206110499082611444565b5061105660028284611450565b5060405181906001600160a01b03841690600090600080516020611dba833981519152908290a45050565b61108a82610eda565b6110c55760405162461bcd60e51b815260040180806020018281038252602c815260200180611cf6602c913960400191505060405180910390fd5b600082815260086020908152604090912082516106b992840190611abf565b600061079782610f59565b60006110fa82610eda565b6111355760405162461bcd60e51b815260040180806020018281038252602c815260200180611bf1602c913960400191505060405180910390fd5b6000611140836107ce565b9050806001600160a01b0316846001600160a01b0316148061117b5750836001600160a01b031661117084610581565b6001600160a01b0316145b8061118b575061118b8185610dc5565b949350505050565b826001600160a01b03166111a6826107ce565b6001600160a01b0316146111eb5760405162461bcd60e51b8152600401808060200182810382526029815260200180611d626029913960400191505060405180910390fd5b6001600160a01b0382166112305760405162461bcd60e51b8152600401808060200182810382526024815260200180611bcd6024913960400191505060405180910390fd5b61123b8383836106b9565b611246600082610eeb565b6001600160a01b03831660009081526001602052604090206112689082611466565b506001600160a01b038216600090815260016020526040902061128b9082611444565b5061129860028284611450565b5080826001600160a01b0316846001600160a01b0316600080516020611dba83398151915260405160405180910390a4505050565b60006107948383611472565b60008080806112e886866114d6565b9097909650945050505050565b6000611302848484611551565b90505b9392505050565b611317848484611193565b6113238484848461161b565b610b185760405162461bcd60e51b8152600401808060200182810382526032815260200180611b756032913960400191505060405180910390fd5b60608161138357506040805180820190915260018152600360fc1b60208201526104e6565b8160005b811561139b57600101600a82049150611387565b6060816001600160401b03811180156113b357600080fd5b506040519080825280601f01601f1916602001820160405280156113de576020820181803683370190505b50859350905060001982015b831561142f57600a840660300160f81b8282806001900393508151811061140d57fe5b60200101906001600160f81b031916908160001a905350600a840493506113ea565b50949350505050565b60006107948383611783565b6000610794838361179b565b600061130284846001600160a01b0385166117e5565b6000610794838361187c565b815460009082106114b45760405162461bcd60e51b8152600401808060200182810382526022815260200180611b536022913960400191505060405180910390fd5b8260000182815481106114c357fe5b9060005260206000200154905092915050565b81546000908190831061151a5760405162461bcd60e51b8152600401808060200182810382526022815260200180611ca86022913960400191505060405180910390fd5b600084600001848154811061152b57fe5b906000526020600020906002020190508060000154816001015492509250509250929050565b600082815260018401602052604081205482816115ec5760405162461bcd60e51b81526004018080602001828103825283818151815260200191508051906020019080838360005b838110156115b1578181015183820152602001611599565b50505050905090810190601f1680156115de5780820380516001836020036101000a031916815260200191505b509250505060405180910390fd5b508460000160018203815481106115ff57fe5b9060005260206000209060020201600101549150509392505050565b600061162f846001600160a01b0316611942565b61163b5750600161118b565b6060611749630a85bd0160e11b611650610ee7565b88878760405160240180856001600160a01b03168152602001846001600160a01b0316815260200183815260200180602001828103825283818151815260200191508051906020019080838360005b838110156116b757818101518382015260200161169f565b50505050905090810190601f1680156116e45780820380516001836020036101000a031916815260200191505b5095505050505050604051602081830303815290604052906001600160e01b0319166020820180516001600160e01b038381831617835250505050604051806060016040528060328152602001611b75603291396001600160a01b0388169190611948565b9050600081806020019051602081101561176257600080fd5b50516001600160e01b031916630a85bd0160e11b1492505050949350505050565b60009081526001919091016020526040902054151590565b60006117a78383611783565b6117dd57508154600181810184556000848152602080822090930184905584548482528286019093526040902091909155610797565b506000610797565b60008281526001840160205260408120548061184a575050604080518082018252838152602080820184815286546001818101895560008981528481209551600290930290950191825591519082015586548684528188019092529290912055611305565b8285600001600183038154811061185d57fe5b9060005260206000209060020201600101819055506000915050611305565b6000818152600183016020526040812054801561193857835460001980830191908101906000908790839081106118af57fe5b90600052602060002001549050808760000184815481106118cc57fe5b6000918252602080832090910192909255828152600189810190925260409020908401905586548790806118fc57fe5b60019003818190600052602060002001600090559055866001016000878152602001908152602001600020600090556001945050505050610797565b6000915050610797565b3b151590565b60606113028484600085606061195d85611942565b6119ae576040805162461bcd60e51b815260206004820152601d60248201527f416464726573733a2063616c6c20746f206e6f6e2d636f6e7472616374000000604482015290519081900360640190fd5b60006060866001600160a01b031685876040518082805190602001908083835b602083106119ed5780518252601f1990920191602091820191016119ce565b6001836020036101000a03801982511681845116808217855250505050505090500191505060006040518083038185875af1925050503d8060008114611a4f576040519150601f19603f3d011682016040523d82523d6000602084013e611a54565b606091505b50915091508115611a6857915061118b9050565b805115611a785780518082602001fd5b60405162461bcd60e51b81526020600482018181528651602484015286518793919283926044019190850190808383600083156115b1578181015183820152602001611599565b828054600181600116156101000203166002900490600052602060002090601f016020900481019282601f10611b0057805160ff1916838001178555611b2d565b82800160010185558215611b2d579182015b82811115611b2d578251825591602001919060010190611b12565b50611b39929150611b3d565b5090565b5b80821115611b395760008155600101611b3e56fe456e756d657261626c655365743a20696e646578206f7574206f6620626f756e64734552433732313a207472616e7366657220746f206e6f6e20455243373231526563656976657220696d706c656d656e7465724f776e61626c653a206e6577206f776e657220697320746865207a65726f20616464726573734552433732313a207472616e7366657220746f20746865207a65726f20616464726573734552433732313a206f70657261746f7220717565727920666f72206e6f6e6578697374656e7420746f6b656e4552433732313a20617070726f76652063616c6c6572206973206e6f74206f776e6572206e6f7220617070726f76656420666f7220616c6c4552433732313a2062616c616e636520717565727920666f7220746865207a65726f20616464726573734552433732313a206f776e657220717565727920666f72206e6f6e6578697374656e7420746f6b656e456e756d657261626c654d61703a20696e646578206f7574206f6620626f756e64734552433732313a20617070726f76656420717565727920666f72206e6f6e6578697374656e7420746f6b656e4552433732314d657461646174613a2055524920736574206f66206e6f6e6578697374656e7420746f6b656e4f776e61626c653a2063616c6c6572206973206e6f7420746865206f776e65728be0079c531659141344cd1fd0a4f28419497f9722a3daafe3b4186f6b6457e04552433732313a207472616e73666572206f6620746f6b656e2074686174206973206e6f74206f776e4552433732314d657461646174613a2055524920717565727920666f72206e6f6e6578697374656e7420746f6b656eddf252ad1be2c89b69c2b068fc378daa952ba7f163c4a11628f55a4df523b3ef4552433732313a20617070726f76616c20746f2063757272656e74206f776e65724552433732313a207472616e736665722063616c6c6572206973206e6f74206f776e6572206e6f7220617070726f766564a2646970667358221220809f07310c8b6ebc89cfac19f2420693bd8d4207b650b4d5ef7733fe637d526a64736f6c634300060c0033",
  "linkReferences": {},
  "deployedLinkReferences": {}
}