{
  "_format": "hh-sol-artifact-1",
  "contractName": "MockCrossChainSender",
  "sourceName": "contracts/test/MockCrossChainSender.sol",
  "abi": [
    {
      "inputs": [
        {
          "internalType": "address",
          "name": "_veCake",
          "type": "address"
        },
        {
          "internalType": "address",
          "name": "_router",
          "type": "address"
        },
        {
          "internalType": "address",
          "name": "_link",
          "type": "address"
        }
      ],
      "stateMutability": "nonpayable",
      "type": "constructor"
    },
    {
      "anonymous": false,
      "inputs": [
        {
          "indexed": true,
          "internalType": "bytes32",
          "name": "messageId",
          "type": "bytes32"
        },
        {
          "indexed": true,
          "internalType": "uint64",
          "name": "destinationChainSelector",
          "type": "uint64"
        },
        {
          "indexed": false,
          "internalType": "address",
          "name": "receiver",
          "type": "address"
        },
        {
          "indexed": false,
          "internalType": "string",
          "name": "text",
          "type": "string"
        },
        {
          "indexed": false,
          "internalType": "address",
          "name": "feeToken",
          "type": "address"
        },
        {
          "indexed": false,
          "internalType": "uint256",
          "name": "fees",
          "type": "uint256"
        }
      ],
      "name": "MessageSent",
      "type": "event"
    },
    {
      "anonymous": false,
      "inputs": [
        {
          "indexed": true,
          "internalType": "address",
          "name": "from",
          "type": "address"
        },
        {
          "indexed": true,
          "internalType": "address",
          "name": "to",
          "type": "address"
        }
      ],
      "name": "OwnershipTransferRequested",
      "type": "event"
    },
    {
      "anonymous": false,
      "inputs": [
        {
          "indexed": true,
          "internalType": "address",
          "name": "from",
          "type": "address"
        },
        {
          "indexed": true,
          "internalType": "address",
          "name": "to",
          "type": "address"
        }
      ],
      "name": "OwnershipTransferred",
      "type": "event"
    },
    {
      "anonymous": false,
      "inputs": [
        {
          "indexed": false,
          "internalType": "address",
          "name": "account",
          "type": "address"
        }
      ],
      "name": "Paused",
      "type": "event"
    },
    {
      "anonymous": false,
      "inputs": [
        {
          "indexed": false,
          "internalType": "address",
          "name": "account",
          "type": "address"
        }
      ],
      "name": "Unpaused",
      "type": "event"
    },
    {
      "inputs": [],
      "name": "acceptOwnership",
      "outputs": [],
      "stateMutability": "nonpayable",
      "type": "function"
    },
    {
      "inputs": [],
      "name": "owner",
      "outputs": [
        {
          "internalType": "address",
          "name": "",
          "type": "address"
        }
      ],
      "stateMutability": "view",
      "type": "function"
    },
    {
      "inputs": [
        {
          "internalType": "bool",
          "name": "en",
          "type": "bool"
        }
      ],
      "name": "pause",
      "outputs": [],
      "stateMutability": "nonpayable",
      "type": "function"
    },
    {
      "inputs": [],
      "name": "paused",
      "outputs": [
        {
          "internalType": "bool",
          "name": "",
          "type": "bool"
        }
      ],
      "stateMutability": "view",
      "type": "function"
    },
    {
      "inputs": [
        {
          "internalType": "uint64",
          "name": "destinationChainSelector",
          "type": "uint64"
        },
        {
          "internalType": "address",
          "name": "receiver",
          "type": "address"
        }
      ],
      "name": "sendSyncMsg",
      "outputs": [
        {
          "internalType": "bytes32",
          "name": "messageId",
          "type": "bytes32"
        }
      ],
      "stateMutability": "nonpayable",
      "type": "function"
    },
    {
      "inputs": [
        {
          "internalType": "address",
          "name": "to",
          "type": "address"
        }
      ],
      "name": "transferOwnership",
      "outputs": [],
      "stateMutability": "nonpayable",
      "type": "function"
    },
    {
      "inputs": [],
      "name": "veCake",
      "outputs": [
        {
          "internalType": "address",
          "name": "",
          "type": "address"
        }
      ],
      "stateMutability": "view",
      "type": "function"
    }
  ],
  "bytecode": "0x60a060405234801561001057600080fd5b50604051610cd7380380610cd783398101604081905261002f9161019e565b33806000816100855760405162461bcd60e51b815260206004820152601860248201527f43616e6e6f7420736574206f776e657220746f207a65726f000000000000000060448201526064015b60405180910390fd5b600080546001600160a01b0319166001600160a01b03848116919091179091558116156100b5576100b5816100d8565b50506001805460ff60a01b191690555050506001600160a01b03166080526101e1565b6001600160a01b0381163314156101315760405162461bcd60e51b815260206004820152601760248201527f43616e6e6f74207472616e7366657220746f2073656c66000000000000000000604482015260640161007c565b600180546001600160a01b0319166001600160a01b0383811691821790925560008054604051929316917fed8889f560326eb138920d842192f0eb3dd22b4f139c87a2c57538e05bae12789190a350565b80516001600160a01b038116811461019957600080fd5b919050565b6000806000606084860312156101b357600080fd5b6101bc84610182565b92506101ca60208501610182565b91506101d860408501610182565b90509250925092565b608051610ac761021060003960008181608c0152818161053b015281816105e801526106990152610ac76000f3fe608060405234801561001057600080fd5b506004361061006d5760003560e01c806302329a291461007257806340990c82146100875780635c975abb146100c457806379ba5097146100dc5780638da5cb5b146100e4578063f2fde38b146100f5578063fd64939114610108575b600080fd5b6100856100803660046107ca565b610129565b005b6100ae7f000000000000000000000000000000000000000000000000000000000000000081565b6040516100bb91906107f3565b60405180910390f35b6100cc61014a565b60405190151581526020016100bb565b61008561015a565b6000546001600160a01b03166100ae565b61008561010336600461081c565b610209565b61011b610116366004610839565b61021a565b6040519081526020016100bb565b610131610341565b80156101425761013f610396565b50565b61013f61040d565b600154600160a01b900460ff1690565b6001546001600160a01b031633146101b25760405162461bcd60e51b815260206004820152601660248201527526bab9ba10313290383937b837b9b2b21037bbb732b960511b60448201526064015b60405180910390fd5b60008054336001600160a01b0319808316821784556001805490911690556040516001600160a01b0390921692909183917f8be0079c531659141344cd1fd0a4f28419497f9722a3daafe3b4186f6b6457e091a350565b610211610341565b61013f8161048c565b600061022461014a565b156102415760405162461bcd60e51b81526004016101a99061087e565b60008061024d33610530565b91509150610285604051806080016040528060006001600160a01b031681526020016000815260200160008152602001600081525090565b338152602080820184905260408083018490525160009182916102aa918591016108a8565b60405160208183030381529060405290506203078360ec1b9550876001600160401b0316867fd36445359b3c6e26c120659aef090ce0f2eb005cf9af450d11aa1225609b4f4d898660405160200161030291906108a8565b60408051601f198184030181529082905260035461032e93926001600160a01b039091169089906108dc565b60405180910390a3505050505092915050565b6000546001600160a01b031633146103945760405162461bcd60e51b815260206004820152601660248201527527b7363c9031b0b63630b1363290313c9037bbb732b960511b60448201526064016101a9565b565b61039e61014a565b156103bb5760405162461bcd60e51b81526004016101a99061087e565b6001805460ff60a01b1916600160a01b1790557f62e78cea01bee320cd4e420270b5ea74000d11b0c9f74754ebdbfc544b05a2586103f63390565b60405161040391906107f3565b60405180910390a1565b61041561014a565b6104585760405162461bcd60e51b815260206004820152601460248201527314185d5cd8589b194e881b9bdd081c185d5cd95960621b60448201526064016101a9565b6001805460ff60a01b191690557f5db9ee0a495bf2e6ff9c91a7834c1ba4fdd244a5e8aa4e537bd38aeae4b073aa336103f6565b6001600160a01b0381163314156104df5760405162461bcd60e51b815260206004820152601760248201527621b0b73737ba103a3930b739b332b9103a379039b2b63360491b60448201526064016101a9565b600180546001600160a01b0319166001600160a01b0383811691821790925560008054604051929316917fed8889f560326eb138920d842192f0eb3dd22b4f139c87a2c57538e05bae12789190a350565b6000806000806000807f00000000000000000000000000000000000000000000000000000000000000006001600160a01b0316635de9a137886040518263ffffffff1660e01b815260040161058591906107f3565b6040805180830381865afa1580156105a1573d6000803e3d6000fd5b505050506040513d601f19601f820116820180604052508101906105c59190610976565b604051636386c1c760e01b81529193509150600090819081906001600160a01b037f00000000000000000000000000000000000000000000000000000000000000001690636386c1c79061061d908d906004016107f3565b61010060405180830381865afa15801561063b573d6000803e3d6000fd5b505050506040513d601f19601f8201168201806040525081019061065f91906109ca565b50505050509250505060006001600160a01b0316816001600160a01b03161461071457604051635de9a13760e01b81526001600160a01b037f00000000000000000000000000000000000000000000000000000000000000001690635de9a137906106ce9084906004016107f3565b6040805180830381865afa1580156106ea573d6000803e3d6000fd5b505050506040513d601f19601f8201168201806040525081019061070e9190610976565b90935091505b61072083600f0b610774565b61072c86600f0b610774565b6107369190610a6b565b96508361074557819550610764565b8161075257839550610764565b81841061075f5781610761565b835b95505b5094989397509295505050505050565b6000808212156107c65760405162461bcd60e51b815260206004820181905260248201527f53616665436173743a2076616c7565206d75737420626520706f73697469766560448201526064016101a9565b5090565b6000602082840312156107dc57600080fd5b813580151581146107ec57600080fd5b9392505050565b6001600160a01b0391909116815260200190565b6001600160a01b038116811461013f57600080fd5b60006020828403121561082e57600080fd5b81356107ec81610807565b6000806040838503121561084c57600080fd5b82356001600160401b038116811461086357600080fd5b9150602083013561087381610807565b809150509250929050565b60208082526010908201526f14185d5cd8589b194e881c185d5cd95960821b604082015260600190565b81516001600160a01b0316815260208083015190820152604080830151908201526060918201519181019190915260800190565b60018060a01b038516815260006020608081840152855180608085015260005b818110156109185787810183015185820160a0015282016108fc565b8181111561092a57600060a083870101525b50601f01601f1916830160a0019150610950905060408301856001600160a01b03169052565b82606083015295945050505050565b8051600f81900b811461097157600080fd5b919050565b6000806040838503121561098957600080fd5b6109928361095f565b9150602083015190509250929050565b805165ffffffffffff8116811461097157600080fd5b805161ffff8116811461097157600080fd5b600080600080600080600080610100898b0312156109e757600080fd5b6109f08961095f565b9750602089015196506040890151610a0781610807565b60608a01519096506001600160801b0381168114610a2457600080fd5b9450610a3260808a016109a2565b9350610a4060a08a016109a2565b9250610a4e60c08a016109b8565b9150610a5c60e08a016109b8565b90509295985092959890939650565b60008219821115610a8c57634e487b7160e01b600052601160045260246000fd5b50019056fea2646970667358221220e8d17a4ebc9917b9f44b371bb5d9da15fef83e04227fc6e855cd28fec0dec0f664736f6c634300080a0033",
  "linkReferences": {},
  "deployedLinkReferences": {}
}