{
  "_format": "hh-sol-artifact-1",
  "contractName": "PancakeProfileProxyV2",
  "sourceName": "contracts/PancakeProfileProxyV2.sol",
  "abi": [
    {
      "inputs": [
        {
          "internalType": "address",
          "name": "_deployer",
          "type": "address"
        },
        {
          "internalType": "address",
          "name": "_receiver",
          "type": "address"
        }
      ],
      "stateMutability": "nonpayable",
      "type": "constructor"
    },
    {
      "anonymous": false,
      "inputs": [
        {
          "indexed": true,
          "internalType": "address",
          "name": "previousOwner",
          "type": "address"
        },
        {
          "indexed": true,
          "internalType": "address",
          "name": "newOwner",
          "type": "address"
        }
      ],
      "name": "OwnershipTransferred",
      "type": "event"
    },
    {
      "anonymous": false,
      "inputs": [
        {
          "indexed": true,
          "internalType": "bytes32",
          "name": "role",
          "type": "bytes32"
        },
        {
          "indexed": true,
          "internalType": "bytes32",
          "name": "previousAdminRole",
          "type": "bytes32"
        },
        {
          "indexed": true,
          "internalType": "bytes32",
          "name": "newAdminRole",
          "type": "bytes32"
        }
      ],
      "name": "RoleAdminChanged",
      "type": "event"
    },
    {
      "anonymous": false,
      "inputs": [
        {
          "indexed": true,
          "internalType": "bytes32",
          "name": "role",
          "type": "bytes32"
        },
        {
          "indexed": true,
          "internalType": "address",
          "name": "account",
          "type": "address"
        },
        {
          "indexed": true,
          "internalType": "address",
          "name": "sender",
          "type": "address"
        }
      ],
      "name": "RoleGranted",
      "type": "event"
    },
    {
      "anonymous": false,
      "inputs": [
        {
          "indexed": true,
          "internalType": "bytes32",
          "name": "role",
          "type": "bytes32"
        },
        {
          "indexed": true,
          "internalType": "address",
          "name": "account",
          "type": "address"
        },
        {
          "indexed": true,
          "internalType": "address",
          "name": "sender",
          "type": "address"
        }
      ],
      "name": "RoleRevoked",
      "type": "event"
    },
    {
      "anonymous": false,
      "inputs": [
        {
          "indexed": true,
          "internalType": "address",
          "name": "userAddress",
          "type": "address"
        },
        {
          "indexed": false,
          "internalType": "uint256",
          "name": "userId",
          "type": "uint256"
        },
        {
          "indexed": false,
          "internalType": "bool",
          "name": "isActive",
          "type": "bool"
        }
      ],
      "name": "UserProfileUpdated",
      "type": "event"
    },
    {
      "inputs": [],
      "name": "DEFAULT_ADMIN_ROLE",
      "outputs": [
        {
          "internalType": "bytes32",
          "name": "",
          "type": "bytes32"
        }
      ],
      "stateMutability": "view",
      "type": "function"
    },
    {
      "inputs": [],
      "name": "IFODeployerV8Address",
      "outputs": [
        {
          "internalType": "address",
          "name": "",
          "type": "address"
        }
      ],
      "stateMutability": "view",
      "type": "function"
    },
    {
      "inputs": [
        {
          "internalType": "address",
          "name": "",
          "type": "address"
        },
        {
          "internalType": "address",
          "name": "",
          "type": "address"
        }
      ],
      "name": "dataExpireDates",
      "outputs": [
        {
          "internalType": "uint256",
          "name": "",
          "type": "uint256"
        }
      ],
      "stateMutability": "view",
      "type": "function"
    },
    {
      "inputs": [
        {
          "internalType": "bytes32",
          "name": "role",
          "type": "bytes32"
        }
      ],
      "name": "getRoleAdmin",
      "outputs": [
        {
          "internalType": "bytes32",
          "name": "",
          "type": "bytes32"
        }
      ],
      "stateMutability": "view",
      "type": "function"
    },
    {
      "inputs": [
        {
          "internalType": "uint256",
          "name": "",
          "type": "uint256"
        }
      ],
      "name": "getTeamProfile",
      "outputs": [
        {
          "internalType": "string",
          "name": "",
          "type": "string"
        },
        {
          "internalType": "string",
          "name": "",
          "type": "string"
        },
        {
          "internalType": "uint256",
          "name": "",
          "type": "uint256"
        },
        {
          "internalType": "uint256",
          "name": "",
          "type": "uint256"
        },
        {
          "internalType": "bool",
          "name": "",
          "type": "bool"
        }
      ],
      "stateMutability": "pure",
      "type": "function"
    },
    {
      "inputs": [
        {
          "internalType": "address",
          "name": "_userAddress",
          "type": "address"
        }
      ],
      "name": "getUserProfile",
      "outputs": [
        {
          "internalType": "uint256",
          "name": "",
          "type": "uint256"
        },
        {
          "internalType": "uint256",
          "name": "",
          "type": "uint256"
        },
        {
          "internalType": "uint256",
          "name": "",
          "type": "uint256"
        },
        {
          "internalType": "address",
          "name": "",
          "type": "address"
        },
        {
          "internalType": "uint256",
          "name": "",
          "type": "uint256"
        },
        {
          "internalType": "bool",
          "name": "",
          "type": "bool"
        }
      ],
      "stateMutability": "view",
      "type": "function"
    },
    {
      "inputs": [
        {
          "internalType": "address",
          "name": "_userAddress",
          "type": "address"
        }
      ],
      "name": "getUserStatus",
      "outputs": [
        {
          "internalType": "bool",
          "name": "",
          "type": "bool"
        }
      ],
      "stateMutability": "view",
      "type": "function"
    },
    {
      "inputs": [
        {
          "internalType": "bytes32",
          "name": "role",
          "type": "bytes32"
        },
        {
          "internalType": "address",
          "name": "account",
          "type": "address"
        }
      ],
      "name": "grantRole",
      "outputs": [],
      "stateMutability": "nonpayable",
      "type": "function"
    },
    {
      "inputs": [
        {
          "internalType": "bytes32",
          "name": "role",
          "type": "bytes32"
        },
        {
          "internalType": "address",
          "name": "account",
          "type": "address"
        }
      ],
      "name": "hasRole",
      "outputs": [
        {
          "internalType": "bool",
          "name": "",
          "type": "bool"
        }
      ],
      "stateMutability": "view",
      "type": "function"
    },
    {
      "inputs": [
        {
          "internalType": "address",
          "name": "_userAddress",
          "type": "address"
        },
        {
          "internalType": "uint256",
          "name": "_numberPoints",
          "type": "uint256"
        },
        {
          "internalType": "uint256",
          "name": "_campaignId",
          "type": "uint256"
        }
      ],
      "name": "increaseUserPoints",
      "outputs": [],
      "stateMutability": "nonpayable",
      "type": "function"
    },
    {
      "inputs": [],
      "name": "owner",
      "outputs": [
        {
          "internalType": "address",
          "name": "",
          "type": "address"
        }
      ],
      "stateMutability": "view",
      "type": "function"
    },
    {
      "inputs": [],
      "name": "receiver",
      "outputs": [
        {
          "internalType": "address",
          "name": "",
          "type": "address"
        }
      ],
      "stateMutability": "view",
      "type": "function"
    },
    {
      "inputs": [],
      "name": "renounceOwnership",
      "outputs": [],
      "stateMutability": "nonpayable",
      "type": "function"
    },
    {
      "inputs": [
        {
          "internalType": "bytes32",
          "name": "role",
          "type": "bytes32"
        },
        {
          "internalType": "address",
          "name": "account",
          "type": "address"
        }
      ],
      "name": "renounceRole",
      "outputs": [],
      "stateMutability": "nonpayable",
      "type": "function"
    },
    {
      "inputs": [
        {
          "internalType": "bytes32",
          "name": "role",
          "type": "bytes32"
        },
        {
          "internalType": "address",
          "name": "account",
          "type": "address"
        }
      ],
      "name": "revokeRole",
      "outputs": [],
      "stateMutability": "nonpayable",
      "type": "function"
    },
    {
      "inputs": [
        {
          "internalType": "address",
          "name": "_userAddress",
          "type": "address"
        },
        {
          "internalType": "uint256",
          "name": "_userId",
          "type": "uint256"
        },
        {
          "internalType": "uint256",
          "name": "_numberPoints",
          "type": "uint256"
        },
        {
          "internalType": "address",
          "name": "_nftAddress",
          "type": "address"
        },
        {
          "internalType": "uint256",
          "name": "_tokenId",
          "type": "uint256"
        },
        {
          "internalType": "bool",
          "name": "_isActive",
          "type": "bool"
        }
      ],
      "name": "setUserProfile",
      "outputs": [],
      "stateMutability": "nonpayable",
      "type": "function"
    },
    {
      "inputs": [
        {
          "internalType": "bytes4",
          "name": "interfaceId",
          "type": "bytes4"
        }
      ],
      "name": "supportsInterface",
      "outputs": [
        {
          "internalType": "bool",
          "name": "",
          "type": "bool"
        }
      ],
      "stateMutability": "view",
      "type": "function"
    },
    {
      "inputs": [
        {
          "internalType": "address",
          "name": "newOwner",
          "type": "address"
        }
      ],
      "name": "transferOwnership",
      "outputs": [],
      "stateMutability": "nonpayable",
      "type": "function"
    },
    {
      "inputs": [
        {
          "internalType": "address",
          "name": "_deployer",
          "type": "address"
        }
      ],
      "name": "updateDeployer",
      "outputs": [],
      "stateMutability": "nonpayable",
      "type": "function"
    },
    {
      "inputs": [
        {
          "internalType": "address",
          "name": "_receiver",
          "type": "address"
        }
      ],
      "name": "updateReceiver",
      "outputs": [],
      "stateMutability": "nonpayable",
      "type": "function"
    },
    {
      "inputs": [
        {
          "internalType": "address",
          "name": "",
          "type": "address"
        }
      ],
      "name": "userProfiles",
      "outputs": [
        {
          "internalType": "address",
          "name": "userAddress",
          "type": "address"
        },
        {
          "internalType": "uint256",
          "name": "userId",
          "type": "uint256"
        },
        {
          "internalType": "uint256",
          "name": "numberPoints",
          "type": "uint256"
        },
        {
          "internalType": "address",
          "name": "nftAddress",
          "type": "address"
        },
        {
          "internalType": "uint256",
          "name": "tokenId",
          "type": "uint256"
        },
        {
          "internalType": "bool",
          "name": "isActive",
          "type": "bool"
        }
      ],
      "stateMutability": "view",
      "type": "function"
    }
  ],
  "bytecode": "0x608060405234801561001057600080fd5b506040516200146238038062001462833981016040819052610031916100d9565b61003a3361006b565b600280546001600160a01b039384166001600160a01b0319918216179091556003805492909316911617905561010c565b600180546001600160a01b038381166001600160a01b0319831681179093556040519116919082907f8be0079c531659141344cd1fd0a4f28419497f9722a3daafe3b4186f6b6457e090600090a35050565b80516001600160a01b03811681146100d457600080fd5b919050565b600080604083850312156100ec57600080fd5b6100f5836100bd565b9150610103602084016100bd565b90509250929050565b611346806200011c6000396000f3fe608060405234801561001057600080fd5b50600436106101075760003560e01c806301ffc9a71461010c5780631bdc17f614610134578063248a9ca3146101495780632490906f1461016a5780632f2ff15d14610195578063332d56d7146101a857806336568abe1461023a5780634d413e7d1461024d5780636f71d3a414610260578063715018a61461028b5780637ba2196a146102935780638da5cb5b146102a657806391d14854146102ae578063926baddf146102c1578063987ee156146102d4578063a217fddf1461031f578063aee2f47f14610327578063d547741f1461036d578063ea0d5dcd14610380578063f2fde38b14610393578063f7260d3e146103a6575b600080fd5b61011f61011a366004610f7e565b6103b9565b60405190151581526020015b60405180910390f35b610147610142366004610fbd565b505050565b005b61015c610157366004610ff2565b6103f0565b60405190815260200161012b565b60025461017d906001600160a01b031681565b6040516001600160a01b03909116815260200161012b565b6101476101a336600461100b565b610405565b6101fc6101b636600461103b565b60046020819052600091825260409091208054600182015460028301546003840154948401546005909401546001600160a01b0393841695929491939092169160ff1686565b604080516001600160a01b039788168152602081019690965285019390935293166060830152608082019290925290151560a082015260c00161012b565b61014761024836600461100b565b610422565b61014761025b36600461103b565b6104a5565b61015c61026e366004611058565b600560209081526000928352604080842090915290825290205481565b610147610554565b6101476102a136600461103b565b61058f565b61017d610634565b61011f6102bc36600461100b565b610643565b6101476102cf366004611086565b61066c565b6102e76102e236600461103b565b6108f8565b604080519687526020870195909552938501929092526001600160a01b031660608401526080830152151560a082015260c00161012b565b61015c600081565b61035c610335366004610ff2565b50604080516020808201835260008083528351918201909352828152909290919081908190565b60405161012b95949392919061114e565b61014761037b36600461100b565b610a5e565b61011f61038e36600461103b565b610a7b565b6101476103a136600461103b565b610b9d565b60035461017d906001600160a01b031681565b60006001600160e01b03198216637965db0b60e01b14806103ea57506301ffc9a760e01b6001600160e01b03198316145b92915050565b60009081526020819052604090206001015490565b61040e826103f0565b6104188133610c3d565b6101428383610ca1565b6001600160a01b03811633146104975760405162461bcd60e51b815260206004820152602f60248201527f416363657373436f6e74726f6c3a2063616e206f6e6c792072656e6f756e636560448201526e103937b632b9903337b91039b2b63360891b60648201526084015b60405180910390fd5b6104a18282610d25565b5050565b336104ae610634565b6001600160a01b0316146104d45760405162461bcd60e51b815260040161048e90611193565b6002546001600160a01b03828116911614156105325760405162461bcd60e51b815260206004820152601f60248201527f49464f4465706c6f796572563841646472657373206e6f74206368616e676500604482015260640161048e565b600280546001600160a01b0319166001600160a01b0392909216919091179055565b3361055d610634565b6001600160a01b0316146105835760405162461bcd60e51b815260040161048e90611193565b61058d6000610d8a565b565b33610598610634565b6001600160a01b0316146105be5760405162461bcd60e51b815260040161048e90611193565b6003546001600160a01b03828116911614156106125760405162461bcd60e51b81526020600482015260136024820152727265636569766572206e6f74206368616e676560681b604482015260640161048e565b600380546001600160a01b0319166001600160a01b0392909216919091179055565b6001546001600160a01b031690565b6000918252602082815260408084206001600160a01b0393909316845291905290205460ff1690565b6003546001600160a01b031633146106b75760405162461bcd60e51b815260206004820152600e60248201526d4e6f6e652072656365697665722160901b604482015260640161048e565b6001600160a01b03861661070d5760405162461bcd60e51b815260206004820152601f60248201527f7365745573657250726f66696c653a20496e76616c6964206164647265737300604482015260640161048e565b6001600160a01b03868116600081815260046020818152604080842080546001600160a01b03199081169096178155600181018c905560028082018c90556003820180549097168b89161790965580840189905560058101805460ff19168915151790559454815163022981f560e31b815291519596949594169363114c0fa89382810193928290030181865afa1580156107ac573d6000803e3d6000fd5b505050506040513d601f19601f820116820180604052508101906107d091906111c8565b90506001600160a01b038116156108a9576000816001600160a01b031663a85adeab6040518163ffffffff1660e01b8152600401602060405180830381865afa158015610821573d6000803e3d6000fd5b505050506040513d601f19601f8201168201806040525081019061084591906111e5565b90508042101561087c576001600160a01b03808a1660009081526005602090815260408083209386168352929052208190556108a7565b6001600160a01b03808a16600090815260056020908152604080832093861683529290522060001990555b505b6040805188815284151560208201526001600160a01b038a16917f03f7385d30a14788ac34460d3b29d0a1d7c2c1c5d84a02f8b102cc31d7feb865910160405180910390a25050505050505050565b600080808080806001600160a01b0387166109555760405162461bcd60e51b815260206004820152601f60248201527f6765745573657250726f66696c653a20496e76616c6964206164647265737300604482015260640161048e565b6002546040805163022981f560e31b815290516000926001600160a01b03169163114c0fa89160048083019260209291908290030181865afa15801561099f573d6000803e3d6000fd5b505050506040513d601f19601f820116820180604052508101906109c391906111c8565b6001600160a01b03808a16600090815260056020908152604080832093851683529290522054909150421115610a0e5760008060008060008096509650965096509650965050610a55565b5050506001600160a01b03808616600090815260046020819052604082206001810154600282015460038301549383015460059093015491995097509295509216925060ff165b91939550919395565b610a67826103f0565b610a718133610c3d565b6101428383610d25565b60006001600160a01b038216610ad35760405162461bcd60e51b815260206004820152601e60248201527f676574557365725374617475733a20496e76616c696420616464726573730000604482015260640161048e565b6002546040805163022981f560e31b815290516000926001600160a01b03169163114c0fa89160048083019260209291908290030181865afa158015610b1d573d6000803e3d6000fd5b505050506040513d601f19601f82011682018060405250810190610b4191906111c8565b6001600160a01b03808516600090815260056020908152604080832093851683529290522054909150421115610b7a5750600092915050565b50506001600160a01b031660009081526004602052604090206005015460ff1690565b33610ba6610634565b6001600160a01b031614610bcc5760405162461bcd60e51b815260040161048e90611193565b6001600160a01b038116610c315760405162461bcd60e51b815260206004820152602660248201527f4f776e61626c653a206e6577206f776e657220697320746865207a65726f206160448201526564647265737360d01b606482015260840161048e565b610c3a81610d8a565b50565b610c478282610643565b6104a157610c5f816001600160a01b03166014610ddc565b610c6a836020610ddc565b604051602001610c7b9291906111fe565b60408051601f198184030181529082905262461bcd60e51b825261048e9160040161126d565b610cab8282610643565b6104a1576000828152602081815260408083206001600160a01b03851684529091529020805460ff19166001179055610ce13390565b6001600160a01b0316816001600160a01b0316837f2f8788117e7eff1d82e926ec794901d17c78024a50270940304540a733656f0d60405160405180910390a45050565b610d2f8282610643565b156104a1576000828152602081815260408083206001600160a01b0385168085529252808320805460ff1916905551339285917ff6391f5c32d9c69d2a47ea670b442974b53935d1edc7fd64eb21e047a839171b9190a45050565b600180546001600160a01b038381166001600160a01b0319831681179093556040519116919082907f8be0079c531659141344cd1fd0a4f28419497f9722a3daafe3b4186f6b6457e090600090a35050565b60606000610deb836002611296565b610df69060026112b5565b6001600160401b03811115610e0d57610e0d6112cd565b6040519080825280601f01601f191660200182016040528015610e37576020820181803683370190505b509050600360fc1b81600081518110610e5257610e526112e3565b60200101906001600160f81b031916908160001a905350600f60fb1b81600181518110610e8157610e816112e3565b60200101906001600160f81b031916908160001a9053506000610ea5846002611296565b610eb09060016112b5565b90505b6001811115610f28576f181899199a1a9b1b9c1cb0b131b232b360811b85600f1660108110610ee457610ee46112e3565b1a60f81b828281518110610efa57610efa6112e3565b60200101906001600160f81b031916908160001a90535060049490941c93610f21816112f9565b9050610eb3565b508315610f775760405162461bcd60e51b815260206004820181905260248201527f537472696e67733a20686578206c656e67746820696e73756666696369656e74604482015260640161048e565b9392505050565b600060208284031215610f9057600080fd5b81356001600160e01b031981168114610f7757600080fd5b6001600160a01b0381168114610c3a57600080fd5b600080600060608486031215610fd257600080fd5b8335610fdd81610fa8565b95602085013595506040909401359392505050565b60006020828403121561100457600080fd5b5035919050565b6000806040838503121561101e57600080fd5b82359150602083013561103081610fa8565b809150509250929050565b60006020828403121561104d57600080fd5b8135610f7781610fa8565b6000806040838503121561106b57600080fd5b823561107681610fa8565b9150602083013561103081610fa8565b60008060008060008060c0878903121561109f57600080fd5b86356110aa81610fa8565b9550602087013594506040870135935060608701356110c881610fa8565b92506080870135915060a087013580151581146110e457600080fd5b809150509295509295509295565b60005b8381101561110d5781810151838201526020016110f5565b8381111561111c576000848401525b50505050565b6000815180845261113a8160208601602086016110f2565b601f01601f19169290920160200192915050565b60a08152600061116160a0830188611122565b82810360208401526111738188611122565b604084019690965250506060810192909252151560809091015292915050565b6020808252818101527f4f776e61626c653a2063616c6c6572206973206e6f7420746865206f776e6572604082015260600190565b6000602082840312156111da57600080fd5b8151610f7781610fa8565b6000602082840312156111f757600080fd5b5051919050565b76020b1b1b2b9b9a1b7b73a3937b61d1030b1b1b7bab73a1604d1b8152600083516112308160178501602088016110f2565b7001034b99036b4b9b9b4b733903937b6329607d1b60179184019182015283516112618160288401602088016110f2565b01602801949350505050565b602081526000610f776020830184611122565b634e487b7160e01b600052601160045260246000fd5b60008160001904831182151516156112b0576112b0611280565b500290565b600082198211156112c8576112c8611280565b500190565b634e487b7160e01b600052604160045260246000fd5b634e487b7160e01b600052603260045260246000fd5b60008161130857611308611280565b50600019019056fea2646970667358221220edbb9ccdfd48a0c44226f6e54f65fc8091568fbafb21910866fc6c2c3942b60c64736f6c634300080a0033",
  "linkReferences": {},
  "deployedLinkReferences": {}
}