{
  "_format": "hh-sol-artifact-1",
  "contractName": "PancakeVeSender",
  "sourceName": "contracts/PancakeVeSender.sol",
  "abi": [
    {
      "inputs": [
        {
          "internalType": "address",
          "name": "veCake_",
          "type": "address"
        },
        {
          "internalType": "address",
          "name": "pancakeProfileAddress_",
          "type": "address"
        },
        {
          "internalType": "address",
          "name": "endpoint_",
          "type": "address"
        }
      ],
      "stateMutability": "nonpayable",
      "type": "constructor"
    },
    {
      "anonymous": false,
      "inputs": [
        {
          "indexed": false,
          "internalType": "uint16",
          "name": "version",
          "type": "uint16"
        },
        {
          "indexed": false,
          "internalType": "uint256",
          "name": "gas",
          "type": "uint256"
        }
      ],
      "name": "GasForDestinationLzReceiveUpdated",
      "type": "event"
    },
    {
      "anonymous": false,
      "inputs": [
        {
          "indexed": false,
          "internalType": "uint16",
          "name": "_srcChainId",
          "type": "uint16"
        },
        {
          "indexed": false,
          "internalType": "bytes",
          "name": "_srcAddress",
          "type": "bytes"
        },
        {
          "indexed": false,
          "internalType": "uint64",
          "name": "_nonce",
          "type": "uint64"
        },
        {
          "indexed": false,
          "internalType": "bytes",
          "name": "_payload",
          "type": "bytes"
        },
        {
          "indexed": false,
          "internalType": "bytes",
          "name": "_reason",
          "type": "bytes"
        }
      ],
      "name": "MessageFailed",
      "type": "event"
    },
    {
      "anonymous": false,
      "inputs": [
        {
          "indexed": true,
          "internalType": "address",
          "name": "previousOwner",
          "type": "address"
        },
        {
          "indexed": true,
          "internalType": "address",
          "name": "newOwner",
          "type": "address"
        }
      ],
      "name": "OwnershipTransferred",
      "type": "event"
    },
    {
      "anonymous": false,
      "inputs": [
        {
          "indexed": false,
          "internalType": "address",
          "name": "account",
          "type": "address"
        }
      ],
      "name": "Paused",
      "type": "event"
    },
    {
      "anonymous": false,
      "inputs": [
        {
          "indexed": false,
          "internalType": "uint16",
          "name": "_srcChainId",
          "type": "uint16"
        },
        {
          "indexed": false,
          "internalType": "bytes",
          "name": "_srcAddress",
          "type": "bytes"
        },
        {
          "indexed": false,
          "internalType": "uint64",
          "name": "_nonce",
          "type": "uint64"
        },
        {
          "indexed": false,
          "internalType": "bytes32",
          "name": "_payloadHash",
          "type": "bytes32"
        }
      ],
      "name": "RetryMessageSuccess",
      "type": "event"
    },
    {
      "anonymous": false,
      "inputs": [
        {
          "indexed": false,
          "internalType": "uint16",
          "name": "_dstChainId",
          "type": "uint16"
        },
        {
          "indexed": false,
          "internalType": "uint16",
          "name": "_type",
          "type": "uint16"
        },
        {
          "indexed": false,
          "internalType": "uint256",
          "name": "_minDstGas",
          "type": "uint256"
        }
      ],
      "name": "SetMinDstGas",
      "type": "event"
    },
    {
      "anonymous": false,
      "inputs": [
        {
          "indexed": false,
          "internalType": "address",
          "name": "precrime",
          "type": "address"
        }
      ],
      "name": "SetPrecrime",
      "type": "event"
    },
    {
      "anonymous": false,
      "inputs": [
        {
          "indexed": false,
          "internalType": "uint16",
          "name": "_remoteChainId",
          "type": "uint16"
        },
        {
          "indexed": false,
          "internalType": "bytes",
          "name": "_path",
          "type": "bytes"
        }
      ],
      "name": "SetTrustedRemote",
      "type": "event"
    },
    {
      "anonymous": false,
      "inputs": [
        {
          "indexed": false,
          "internalType": "uint16",
          "name": "_remoteChainId",
          "type": "uint16"
        },
        {
          "indexed": false,
          "internalType": "bytes",
          "name": "_remoteAddress",
          "type": "bytes"
        }
      ],
      "name": "SetTrustedRemoteAddress",
      "type": "event"
    },
    {
      "anonymous": false,
      "inputs": [
        {
          "indexed": true,
          "internalType": "address",
          "name": "userAddress",
          "type": "address"
        },
        {
          "indexed": false,
          "internalType": "uint256",
          "name": "userId",
          "type": "uint256"
        },
        {
          "indexed": false,
          "internalType": "int128",
          "name": "amount",
          "type": "int128"
        },
        {
          "indexed": false,
          "internalType": "uint256",
          "name": "end",
          "type": "uint256"
        },
        {
          "indexed": false,
          "internalType": "address",
          "name": "cakePoolProxy",
          "type": "address"
        },
        {
          "indexed": false,
          "internalType": "uint128",
          "name": "cakeAmount",
          "type": "uint128"
        },
        {
          "indexed": false,
          "internalType": "uint48",
          "name": "lockEndTime",
          "type": "uint48"
        },
        {
          "indexed": false,
          "internalType": "uint256",
          "name": "totalSupply",
          "type": "uint256"
        }
      ],
      "name": "SyncMsgSend",
      "type": "event"
    },
    {
      "anonymous": false,
      "inputs": [
        {
          "indexed": false,
          "internalType": "address",
          "name": "account",
          "type": "address"
        }
      ],
      "name": "Unpaused",
      "type": "event"
    },
    {
      "anonymous": false,
      "inputs": [
        {
          "indexed": false,
          "internalType": "uint256",
          "name": "bridge_buffer",
          "type": "uint256"
        }
      ],
      "name": "UpdateBridgeBuffer",
      "type": "event"
    },
    {
      "inputs": [],
      "name": "BRIDGE_BUFFER",
      "outputs": [
        {
          "internalType": "uint256",
          "name": "",
          "type": "uint256"
        }
      ],
      "stateMutability": "view",
      "type": "function"
    },
    {
      "inputs": [],
      "name": "DEFAULT_PAYLOAD_SIZE_LIMIT",
      "outputs": [
        {
          "internalType": "uint256",
          "name": "",
          "type": "uint256"
        }
      ],
      "stateMutability": "view",
      "type": "function"
    },
    {
      "inputs": [
        {
          "internalType": "uint16",
          "name": "",
          "type": "uint16"
        },
        {
          "internalType": "bytes",
          "name": "",
          "type": "bytes"
        },
        {
          "internalType": "uint64",
          "name": "",
          "type": "uint64"
        }
      ],
      "name": "failedMessages",
      "outputs": [
        {
          "internalType": "bytes32",
          "name": "",
          "type": "bytes32"
        }
      ],
      "stateMutability": "view",
      "type": "function"
    },
    {
      "inputs": [
        {
          "internalType": "uint16",
          "name": "_srcChainId",
          "type": "uint16"
        },
        {
          "internalType": "bytes",
          "name": "_srcAddress",
          "type": "bytes"
        }
      ],
      "name": "forceResumeReceive",
      "outputs": [],
      "stateMutability": "nonpayable",
      "type": "function"
    },
    {
      "inputs": [],
      "name": "gasForDestinationLzReceive",
      "outputs": [
        {
          "internalType": "uint256",
          "name": "",
          "type": "uint256"
        }
      ],
      "stateMutability": "view",
      "type": "function"
    },
    {
      "inputs": [
        {
          "internalType": "uint16",
          "name": "_version",
          "type": "uint16"
        },
        {
          "internalType": "uint16",
          "name": "_chainId",
          "type": "uint16"
        },
        {
          "internalType": "address",
          "name": "",
          "type": "address"
        },
        {
          "internalType": "uint256",
          "name": "_configType",
          "type": "uint256"
        }
      ],
      "name": "getConfig",
      "outputs": [
        {
          "internalType": "bytes",
          "name": "",
          "type": "bytes"
        }
      ],
      "stateMutability": "view",
      "type": "function"
    },
    {
      "inputs": [
        {
          "internalType": "uint16",
          "name": "_dstChainId",
          "type": "uint16"
        }
      ],
      "name": "getEstimateGasFees",
      "outputs": [
        {
          "internalType": "uint256",
          "name": "",
          "type": "uint256"
        },
        {
          "internalType": "uint256",
          "name": "",
          "type": "uint256"
        }
      ],
      "stateMutability": "view",
      "type": "function"
    },
    {
      "inputs": [
        {
          "internalType": "uint16",
          "name": "_remoteChainId",
          "type": "uint16"
        }
      ],
      "name": "getTrustedRemoteAddress",
      "outputs": [
        {
          "internalType": "bytes",
          "name": "",
          "type": "bytes"
        }
      ],
      "stateMutability": "view",
      "type": "function"
    },
    {
      "inputs": [
        {
          "internalType": "uint16",
          "name": "_srcChainId",
          "type": "uint16"
        },
        {
          "internalType": "bytes",
          "name": "_srcAddress",
          "type": "bytes"
        }
      ],
      "name": "isTrustedRemote",
      "outputs": [
        {
          "internalType": "bool",
          "name": "",
          "type": "bool"
        }
      ],
      "stateMutability": "view",
      "type": "function"
    },
    {
      "inputs": [],
      "name": "lzEndpoint",
      "outputs": [
        {
          "internalType": "contract ILayerZeroEndpoint",
          "name": "",
          "type": "address"
        }
      ],
      "stateMutability": "view",
      "type": "function"
    },
    {
      "inputs": [
        {
          "internalType": "uint16",
          "name": "_srcChainId",
          "type": "uint16"
        },
        {
          "internalType": "bytes",
          "name": "_srcAddress",
          "type": "bytes"
        },
        {
          "internalType": "uint64",
          "name": "_nonce",
          "type": "uint64"
        },
        {
          "internalType": "bytes",
          "name": "_payload",
          "type": "bytes"
        }
      ],
      "name": "lzReceive",
      "outputs": [],
      "stateMutability": "nonpayable",
      "type": "function"
    },
    {
      "inputs": [
        {
          "internalType": "uint16",
          "name": "",
          "type": "uint16"
        },
        {
          "internalType": "uint16",
          "name": "",
          "type": "uint16"
        }
      ],
      "name": "minDstGasLookup",
      "outputs": [
        {
          "internalType": "uint256",
          "name": "",
          "type": "uint256"
        }
      ],
      "stateMutability": "view",
      "type": "function"
    },
    {
      "inputs": [
        {
          "internalType": "uint16",
          "name": "_srcChainId",
          "type": "uint16"
        },
        {
          "internalType": "bytes",
          "name": "_srcAddress",
          "type": "bytes"
        },
        {
          "internalType": "uint64",
          "name": "_nonce",
          "type": "uint64"
        },
        {
          "internalType": "bytes",
          "name": "_payload",
          "type": "bytes"
        }
      ],
      "name": "nonblockingLzReceive",
      "outputs": [],
      "stateMutability": "nonpayable",
      "type": "function"
    },
    {
      "inputs": [],
      "name": "owner",
      "outputs": [
        {
          "internalType": "address",
          "name": "",
          "type": "address"
        }
      ],
      "stateMutability": "view",
      "type": "function"
    },
    {
      "inputs": [],
      "name": "pancakeProfileAddress",
      "outputs": [
        {
          "internalType": "address",
          "name": "",
          "type": "address"
        }
      ],
      "stateMutability": "view",
      "type": "function"
    },
    {
      "inputs": [
        {
          "internalType": "bool",
          "name": "en",
          "type": "bool"
        }
      ],
      "name": "pause",
      "outputs": [],
      "stateMutability": "nonpayable",
      "type": "function"
    },
    {
      "inputs": [],
      "name": "paused",
      "outputs": [
        {
          "internalType": "bool",
          "name": "",
          "type": "bool"
        }
      ],
      "stateMutability": "view",
      "type": "function"
    },
    {
      "inputs": [
        {
          "internalType": "uint16",
          "name": "",
          "type": "uint16"
        }
      ],
      "name": "payloadSizeLimitLookup",
      "outputs": [
        {
          "internalType": "uint256",
          "name": "",
          "type": "uint256"
        }
      ],
      "stateMutability": "view",
      "type": "function"
    },
    {
      "inputs": [],
      "name": "precrime",
      "outputs": [
        {
          "internalType": "address",
          "name": "",
          "type": "address"
        }
      ],
      "stateMutability": "view",
      "type": "function"
    },
    {
      "inputs": [],
      "name": "renounceOwnership",
      "outputs": [],
      "stateMutability": "nonpayable",
      "type": "function"
    },
    {
      "inputs": [
        {
          "internalType": "uint16",
          "name": "_srcChainId",
          "type": "uint16"
        },
        {
          "internalType": "bytes",
          "name": "_srcAddress",
          "type": "bytes"
        },
        {
          "internalType": "uint64",
          "name": "_nonce",
          "type": "uint64"
        },
        {
          "internalType": "bytes",
          "name": "_payload",
          "type": "bytes"
        }
      ],
      "name": "retryMessage",
      "outputs": [],
      "stateMutability": "payable",
      "type": "function"
    },
    {
      "inputs": [
        {
          "internalType": "uint16",
          "name": "_dstChainId",
          "type": "uint16"
        },
        {
          "internalType": "address",
          "name": "_user",
          "type": "address"
        },
        {
          "internalType": "bool",
          "name": "_syncVeCake",
          "type": "bool"
        },
        {
          "internalType": "bool",
          "name": "_syncProfile",
          "type": "bool"
        }
      ],
      "name": "sendSyncMsg",
      "outputs": [],
      "stateMutability": "payable",
      "type": "function"
    },
    {
      "inputs": [
        {
          "internalType": "uint16",
          "name": "_version",
          "type": "uint16"
        },
        {
          "internalType": "uint16",
          "name": "_chainId",
          "type": "uint16"
        },
        {
          "internalType": "uint256",
          "name": "_configType",
          "type": "uint256"
        },
        {
          "internalType": "bytes",
          "name": "_config",
          "type": "bytes"
        }
      ],
      "name": "setConfig",
      "outputs": [],
      "stateMutability": "nonpayable",
      "type": "function"
    },
    {
      "inputs": [
        {
          "internalType": "uint16",
          "name": "_dstChainId",
          "type": "uint16"
        },
        {
          "internalType": "uint16",
          "name": "_packetType",
          "type": "uint16"
        },
        {
          "internalType": "uint256",
          "name": "_minGas",
          "type": "uint256"
        }
      ],
      "name": "setMinDstGas",
      "outputs": [],
      "stateMutability": "nonpayable",
      "type": "function"
    },
    {
      "inputs": [
        {
          "internalType": "uint16",
          "name": "_dstChainId",
          "type": "uint16"
        },
        {
          "internalType": "uint256",
          "name": "_size",
          "type": "uint256"
        }
      ],
      "name": "setPayloadSizeLimit",
      "outputs": [],
      "stateMutability": "nonpayable",
      "type": "function"
    },
    {
      "inputs": [
        {
          "internalType": "address",
          "name": "_precrime",
          "type": "address"
        }
      ],
      "name": "setPrecrime",
      "outputs": [],
      "stateMutability": "nonpayable",
      "type": "function"
    },
    {
      "inputs": [
        {
          "internalType": "uint16",
          "name": "_version",
          "type": "uint16"
        }
      ],
      "name": "setReceiveVersion",
      "outputs": [],
      "stateMutability": "nonpayable",
      "type": "function"
    },
    {
      "inputs": [
        {
          "internalType": "uint16",
          "name": "_version",
          "type": "uint16"
        }
      ],
      "name": "setSendVersion",
      "outputs": [],
      "stateMutability": "nonpayable",
      "type": "function"
    },
    {
      "inputs": [
        {
          "internalType": "uint16",
          "name": "_remoteChainId",
          "type": "uint16"
        },
        {
          "internalType": "bytes",
          "name": "_path",
          "type": "bytes"
        }
      ],
      "name": "setTrustedRemote",
      "outputs": [],
      "stateMutability": "nonpayable",
      "type": "function"
    },
    {
      "inputs": [
        {
          "internalType": "uint16",
          "name": "_remoteChainId",
          "type": "uint16"
        },
        {
          "internalType": "bytes",
          "name": "_remoteAddress",
          "type": "bytes"
        }
      ],
      "name": "setTrustedRemoteAddress",
      "outputs": [],
      "stateMutability": "nonpayable",
      "type": "function"
    },
    {
      "inputs": [
        {
          "internalType": "address",
          "name": "newOwner",
          "type": "address"
        }
      ],
      "name": "transferOwnership",
      "outputs": [],
      "stateMutability": "nonpayable",
      "type": "function"
    },
    {
      "inputs": [
        {
          "internalType": "uint16",
          "name": "",
          "type": "uint16"
        }
      ],
      "name": "trustedRemoteLookup",
      "outputs": [
        {
          "internalType": "bytes",
          "name": "",
          "type": "bytes"
        }
      ],
      "stateMutability": "view",
      "type": "function"
    },
    {
      "inputs": [
        {
          "internalType": "uint256",
          "name": "_bridge_buffer",
          "type": "uint256"
        }
      ],
      "name": "updateBridgeBuffer",
      "outputs": [],
      "stateMutability": "nonpayable",
      "type": "function"
    },
    {
      "inputs": [
        {
          "internalType": "uint16",
          "name": "_version",
          "type": "uint16"
        },
        {
          "internalType": "uint256",
          "name": "_gasForDestinationLzReceive",
          "type": "uint256"
        }
      ],
      "name": "updateGasForDestinationLzReceive",
      "outputs": [],
      "stateMutability": "nonpayable",
      "type": "function"
    },
    {
      "inputs": [],
      "name": "veCake",
      "outputs": [
        {
          "internalType": "address",
          "name": "",
          "type": "address"
        }
      ],
      "stateMutability": "view",
      "type": "function"
    },
    {
      "inputs": [],
      "name": "version",
      "outputs": [
        {
          "internalType": "uint16",
          "name": "",
          "type": "uint16"
        }
      ],
      "stateMutability": "view",
      "type": "function"
    }
  ],
  "bytecode": "0x60e06040523480156200001157600080fd5b5060405162003223380380620032238339810160408190526200003491620000ee565b8080620000413362000081565b6001600160a01b039081166080526006805495821660a052931660c052505062ffffff19909116610100179055620927c0600755610e1060085562000138565b600080546001600160a01b038381166001600160a01b0319831681178455604051919092169283917f8be0079c531659141344cd1fd0a4f28419497f9722a3daafe3b4186f6b6457e09190a35050565b80516001600160a01b0381168114620000e957600080fd5b919050565b6000806000606084860312156200010457600080fd5b6200010f84620000d1565b92506200011f60208501620000d1565b91506200012f60408501620000d1565b90509250925092565b60805160a05160c051613060620001c36000396000818161064c01528181610f280152611d5901526000818161031c01528181610e3401528181611c650152611e3f01526000818161056f015281816106c70152818161098501528181610b0801528181610bcf01528181610d85015281816115ac01528181611a600152611fee01526130606000f3fe60806040526004361061019e5760003560e01c80621d3567146101a357806302329a29146101c557806307e0db17146101e55780630d8c0068146102055780630df374831461022557806310ddb1371461024557806317a438c3146102655780633d8b38f61461029f5780633f1f4fa4146102cf57806340990c821461030a57806342d65a8d1461034b57806354fd4d501461036b5780635b8c41e61461039e5780635c975abb146103ed5780635d679f621461040557806366ad5c8a146104185780636e9d099a14610438578063715018a6146104585780637533d7881461046d5780638cfd8f5c1461049a5780638da5cb5b146104d2578063950c8a74146104e75780639bb995d3146105075780639f38369a1461051d578063a6c3d1651461053d578063b353aaa71461055d578063baf3292d14610591578063c4461834146105b1578063cbed8b9c146105c7578063d1deba1f146105e7578063df2a5b3b146105fa578063eb8d72b71461061a578063f25930aa1461063a578063f2fde38b1461066e578063f3234f401461068e578063f5ecbdbc146106a4575b600080fd5b3480156101af57600080fd5b506101c36101be36600461255b565b6106c4565b005b3480156101d157600080fd5b506101c36101e03660046125fe565b6108f5565b3480156101f157600080fd5b506101c361020036600461261b565b61093d565b34801561021157600080fd5b506101c3610220366004612638565b6109ed565b34801561023157600080fd5b506101c3610240366004612638565b610a7a565b34801561025157600080fd5b506101c361026036600461261b565b610ac0565b34801561027157600080fd5b5061028561028036600461261b565b610b3f565b604080519283526020830191909152015b60405180910390f35b3480156102ab57600080fd5b506102bf6102ba366004612664565b610c73565b6040519015158152602001610296565b3480156102db57600080fd5b506102fc6102ea36600461261b565b60036020526000908152604090205481565b604051908152602001610296565b34801561031657600080fd5b5061033e7f000000000000000000000000000000000000000000000000000000000000000081565b60405161029691906126b8565b34801561035757600080fd5b506101c3610366366004612664565b610d3f565b34801561037757600080fd5b5060065461038b90610100900461ffff1681565b60405161ffff9091168152602001610296565b3480156103aa57600080fd5b506102fc6103b9366004612739565b6005602090815260009384526040808520845180860184018051928152908401958401959095209452929052825290205481565b3480156103f957600080fd5b5060065460ff166102bf565b6101c36104133660046127f0565b610dec565b34801561042457600080fd5b506101c361043336600461255b565b6110f0565b34801561044457600080fd5b506101c361045336600461284c565b6111cc565b34801561046457600080fd5b506101c3611237565b34801561047957600080fd5b5061048d61048836600461261b565b611272565b60405161029691906128bd565b3480156104a657600080fd5b506102fc6104b53660046128d0565b600260209081526000928352604080842090915290825290205481565b3480156104de57600080fd5b5061033e61130c565b3480156104f357600080fd5b5060045461033e906001600160a01b031681565b34801561051357600080fd5b506102fc60085481565b34801561052957600080fd5b5061048d61053836600461261b565b61131b565b34801561054957600080fd5b506101c3610558366004612664565b611432565b34801561056957600080fd5b5061033e7f000000000000000000000000000000000000000000000000000000000000000081565b34801561059d57600080fd5b506101c36105ac366004612909565b6114ec565b3480156105bd57600080fd5b506102fc61271081565b3480156105d357600080fd5b506101c36105e2366004612926565b611566565b6101c36105f536600461255b565b611622565b34801561060657600080fd5b506101c3610615366004612998565b611838565b34801561062657600080fd5b506101c3610635366004612664565b611911565b34801561064657600080fd5b5061033e7f000000000000000000000000000000000000000000000000000000000000000081565b34801561067a57600080fd5b506101c3610689366004612909565b611992565b34801561069a57600080fd5b506102fc60075481565b3480156106b057600080fd5b5061048d6106bf3660046129d9565b611a2f565b337f00000000000000000000000000000000000000000000000000000000000000006001600160a01b0316146107415760405162461bcd60e51b815260206004820152601e60248201527f4c7a4170703a20696e76616c696420656e64706f696e742063616c6c6572000060448201526064015b60405180910390fd5b61ffff86166000908152600160205260408120805461075f90612a2a565b80601f016020809104026020016040519081016040528092919081815260200182805461078b90612a2a565b80156107d85780601f106107ad576101008083540402835291602001916107d8565b820191906000526020600020905b8154815290600101906020018083116107bb57829003601f168201915b505050505090508051868690501480156107f3575060008151115b801561081b5750805160208201206040516108119088908890612a65565b6040518091039020145b6108765760405162461bcd60e51b815260206004820152602660248201527f4c7a4170703a20696e76616c696420736f757263652073656e64696e6720636f6044820152651b9d1c9858dd60d21b6064820152608401610738565b6108ec8787878080601f01602080910402602001604051908101604052809392919081815260200183838082843760009201919091525050604080516020601f8a018190048102820181019092528881528a935091508890889081908401838280828437600092019190915250611ae292505050565b50505050505050565b336108fe61130c565b6001600160a01b0316146109245760405162461bcd60e51b815260040161073890612a75565b801561093557610932611b5b565b50565b610932611bca565b3361094661130c565b6001600160a01b03161461096c5760405162461bcd60e51b815260040161073890612a75565b6040516307e0db1760e01b815261ffff821660048201527f00000000000000000000000000000000000000000000000000000000000000006001600160a01b0316906307e0db17906024015b600060405180830381600087803b1580156109d257600080fd5b505af11580156109e6573d6000803e3d6000fd5b5050505050565b336109f661130c565b6001600160a01b031614610a1c5760405162461bcd60e51b815260040161073890612a75565b6006805462ffff00191661010061ffff851690810291909117909155600782905560408051918252602082018390527fcb674928d1dc4539b31c5260da727bcec0dfce237728781ad9395c95ac19f8f9910160405180910390a15050565b33610a8361130c565b6001600160a01b031614610aa95760405162461bcd60e51b815260040161073890612a75565b61ffff909116600090815260036020526040902055565b33610ac961130c565b6001600160a01b031614610aef5760405162461bcd60e51b815260040161073890612a75565b6040516310ddb13760e01b815261ffff821660048201527f00000000000000000000000000000000000000000000000000000000000000006001600160a01b0316906310ddb137906024016109b8565b6000806000610b4e6000611c44565b90506000610b5c6000611d38565b90506000610b68611e20565b90506000818484604051602001610b8193929190612aaa565b60405160208183030381529060405290506000600660019054906101000a900461ffff16600754604051602001610bb9929190612b65565b60405160208183030381529060405290506000807f00000000000000000000000000000000000000000000000000000000000000006001600160a01b03166340a7bb108b30876000886040518663ffffffff1660e01b8152600401610c22959493929190612b82565b6040805180830381865afa158015610c3e573d6000803e3d6000fd5b505050506040513d601f19601f82011682018060405250810190610c629190612bd6565b909b909a5098505050505050505050565b61ffff831660009081526001602052604081208054829190610c9490612a2a565b80601f0160208091040260200160405190810160405280929190818152602001828054610cc090612a2a565b8015610d0d5780601f10610ce257610100808354040283529160200191610d0d565b820191906000526020600020905b815481529060010190602001808311610cf057829003601f168201915b505050505090508383604051610d24929190612a65565b60405180910390208180519060200120149150509392505050565b33610d4861130c565b6001600160a01b031614610d6e5760405162461bcd60e51b815260040161073890612a75565b6040516342d65a8d60e01b81526001600160a01b037f000000000000000000000000000000000000000000000000000000000000000016906342d65a8d90610dbe90869086908690600401612c23565b600060405180830381600087803b158015610dd857600080fd5b505af11580156108ec573d6000803e3d6000fd5b60065460ff1615610e0f5760405162461bcd60e51b815260040161073890612c41565b610e17612367565b8215610f03576040516370a0823160e01b81526001600160a01b037f000000000000000000000000000000000000000000000000000000000000000016906370a0823190610e699087906004016126b8565b602060405180830381865afa158015610e86573d6000803e3d6000fd5b505050506040513d601f19601f82011682018060405250810190610eaa9190612c6b565b610eb75760009250610f03565b610ec084611c44565b905060085442610ed09190612c9a565b816080015165ffffffffffff16108015610ef95750600854610ef29042612c9a565b8160200151105b15610f0357600092505b610f0b612395565b8215610fb75760405163ea0d5dcd60e01b81526001600160a01b037f0000000000000000000000000000000000000000000000000000000000000000169063ea0d5dcd90610f5d9088906004016126b8565b602060405180830381865afa158015610f7a573d6000803e3d6000fd5b505050506040513d601f19601f82011682018060405250810190610f9e9190612cb2565b610fab5760009250610fb7565b610fb485611d38565b90505b6000610fc1611e20565b85151560208083019190915285151560408084019190915251919250600091610ff09184918791879101612aaa565b60405160208183030381529060405290506000600660019054906101000a900461ffff16600754604051602001611028929190612b65565b604051602081830303815290604052905061104889833360008534611ec4565b83516020808601518751888301516040808b01516060808d01516080808f01518d518651998a52600f9890980b99890199909952938701949094526001600160a01b03918216908601526001600160801b039092169084015265ffffffffffff90931660a083015260c08201529116907fac2f60f83b168f44283f88806da0102f7f757ffa0428442c2317d91f034ff3079060e00160405180910390a2505050505050505050565b33301461114e5760405162461bcd60e51b815260206004820152602660248201527f4e6f6e626c6f636b696e674c7a4170703a2063616c6c6572206d7573742062656044820152650204c7a4170760d41b6064820152608401610738565b6111c48686868080601f01602080910402602001604051908101604052809392919081815260200183838082843760009201919091525050604080516020601f89018190048102820181019092528781528993509150879087908190840183828082843760009201919091525061206a92505050565b505050505050565b336111d561130c565b6001600160a01b0316146111fb5760405162461bcd60e51b815260040161073890612a75565b60088190556040518181527fc042924616ed66ea8c92dabcc30a3ed9ef80f79869ab588a2eed6a55e4a275b1906020015b60405180910390a150565b3361124061130c565b6001600160a01b0316146112665760405162461bcd60e51b815260040161073890612a75565b6112706000612070565b565b6001602052600090815260409020805461128b90612a2a565b80601f01602080910402602001604051908101604052809291908181526020018280546112b790612a2a565b80156113045780601f106112d957610100808354040283529160200191611304565b820191906000526020600020905b8154815290600101906020018083116112e757829003601f168201915b505050505081565b6000546001600160a01b031690565b61ffff811660009081526001602052604081208054606092919061133e90612a2a565b80601f016020809104026020016040519081016040528092919081815260200182805461136a90612a2a565b80156113b75780601f1061138c576101008083540402835291602001916113b7565b820191906000526020600020905b81548152906001019060200180831161139a57829003601f168201915b505050505090508051600014156114105760405162461bcd60e51b815260206004820152601d60248201527f4c7a4170703a206e6f20747275737465642070617468207265636f72640000006044820152606401610738565b61142b6000601483516114239190612ccf565b8391906120c0565b9392505050565b3361143b61130c565b6001600160a01b0316146114615760405162461bcd60e51b815260040161073890612a75565b81813060405160200161147693929190612ce6565b60408051601f1981840301815291815261ffff851660009081526001602090815291902082516114ab939192909101906123df565b507f8c0400cfe2d1199b1a725c78960bcc2a344d869b80590d0f2bd005db15a572ce8383836040516114df93929190612c23565b60405180910390a1505050565b336114f561130c565b6001600160a01b03161461151b5760405162461bcd60e51b815260040161073890612a75565b600480546001600160a01b0319166001600160a01b0383161790556040517f5db758e995a17ec1ad84bdef7e8c3293a0bd6179bcce400dff5d4c3d87db726b9061122c9083906126b8565b3361156f61130c565b6001600160a01b0316146115955760405162461bcd60e51b815260040161073890612a75565b6040516332fb62e760e21b81526001600160a01b037f0000000000000000000000000000000000000000000000000000000000000000169063cbed8b9c906115e99088908890889088908890600401612d07565b600060405180830381600087803b15801561160357600080fd5b505af1158015611617573d6000803e3d6000fd5b505050505050505050565b61ffff861660009081526005602052604080822090516116459088908890612a65565b90815260408051602092819003830190206001600160401b038716600090815292529020549050806116c55760405162461bcd60e51b815260206004820152602360248201527f4e6f6e626c6f636b696e674c7a4170703a206e6f2073746f726564206d65737360448201526261676560e81b6064820152608401610738565b8083836040516116d6929190612a65565b6040518091039020146117355760405162461bcd60e51b815260206004820152602160248201527f4e6f6e626c6f636b696e674c7a4170703a20696e76616c6964207061796c6f616044820152601960fa1b6064820152608401610738565b61ffff871660009081526005602052604080822090516117589089908990612a65565b90815260408051602092819003830181206001600160401b038916600090815290845282902093909355601f880182900482028301820190528682526117f0918991899089908190840183828082843760009201919091525050604080516020601f8a018190048102820181019092528881528a93509150889088908190840183828082843760009201919091525061206a92505050565b7fc264d91f3adc5588250e1551f547752ca0cfa8f6b530d243b9f9f4cab10ea8e58787878785604051611827959493929190612d40565b60405180910390a150505050505050565b3361184161130c565b6001600160a01b0316146118675760405162461bcd60e51b815260040161073890612a75565b600081116118af5760405162461bcd60e51b81526020600482015260156024820152744c7a4170703a20696e76616c6964206d696e47617360581b6044820152606401610738565b61ffff83811660008181526002602090815260408083209487168084529482529182902085905581519283528201929092529081018290527f9d5c7c0b934da8fefa9c7760c98383778a12dfbfc0c3b3106518f43fb9508ac0906060016114df565b3361191a61130c565b6001600160a01b0316146119405760405162461bcd60e51b815260040161073890612a75565b61ffff8316600090815260016020526040902061195e908383612463565b507ffa41487ad5d6728f0b19276fa1eddc16558578f5109fc39d2dc33c3230470dab8383836040516114df93929190612c23565b3361199b61130c565b6001600160a01b0316146119c15760405162461bcd60e51b815260040161073890612a75565b6001600160a01b038116611a265760405162461bcd60e51b815260206004820152602660248201527f4f776e61626c653a206e6577206f776e657220697320746865207a65726f206160448201526564647265737360d01b6064820152608401610738565b61093281612070565b604051633d7b2f6f60e21b815261ffff808616600483015284166024820152306044820152606481018290526060907f00000000000000000000000000000000000000000000000000000000000000006001600160a01b03169063f5ecbdbc90608401600060405180830381865afa158015611aaf573d6000803e3d6000fd5b505050506040513d6000823e601f3d908101601f19168201604052611ad79190810190612d7b565b90505b949350505050565b600080611b455a60966366ad5c8a60e01b89898989604051602401611b0a9493929190612df1565b60408051601f198184030181529190526020810180516001600160e01b03166001600160e01b031990931692909217909152309291906121cd565b91509150816111c4576111c48686868685612257565b60065460ff1615611b7e5760405162461bcd60e51b815260040161073890612c41565b6006805460ff191660011790557f62e78cea01bee320cd4e420270b5ea74000d11b0c9f74754ebdbfc544b05a258611bb33390565b604051611bc091906126b8565b60405180910390a1565b60065460ff16611c135760405162461bcd60e51b815260206004820152601460248201527314185d5cd8589b194e881b9bdd081c185d5cd95960621b6044820152606401610738565b6006805460ff191690557f5db9ee0a495bf2e6ff9c91a7834c1ba4fdd244a5e8aa4e537bd38aeae4b073aa33611bb3565b611c4c612367565b6001600160a01b03821615611d335760008060008060007f00000000000000000000000000000000000000000000000000000000000000006001600160a01b0316636386c1c7886040518263ffffffff1660e01b8152600401611caf91906126b8565b61010060405180830381865afa158015611ccd573d6000803e3d6000fd5b505050506040513d601f19601f82011682018060405250810190611cf19190612e45565b505050600f9490940b8a5260208a01929092526001600160a01b031660408901526001600160801b0316606088015265ffffffffffff16608087015250505050505b919050565b611d40612395565b6001600160a01b03821615611d335760008060008060007f00000000000000000000000000000000000000000000000000000000000000006001600160a01b031663987ee156886040518263ffffffff1660e01b8152600401611da391906126b8565b60c060405180830381865afa158015611dc0573d6000803e3d6000fd5b505050506040513d601f19601f82011682018060405250810190611de49190612ef6565b6001600160a01b039c8d168c5260208c019590955260408b019390935290991660608901526080880152151560a0870152509395945050505050565b60408051606081018252600080825260208201819052918101919091527f00000000000000000000000000000000000000000000000000000000000000006001600160a01b031663047fc9aa6040518163ffffffff1660e01b8152600401602060405180830381865afa158015611e9b573d6000803e3d6000fd5b505050506040513d601f19601f82011682018060405250810190611ebf9190612c6b565b815290565b61ffff861660009081526001602052604081208054611ee290612a2a565b80601f0160208091040260200160405190810160405280929190818152602001828054611f0e90612a2a565b8015611f5b5780601f10611f3057610100808354040283529160200191611f5b565b820191906000526020600020905b815481529060010190602001808311611f3e57829003601f168201915b50505050509050805160001415611fcd5760405162461bcd60e51b815260206004820152603060248201527f4c7a4170703a2064657374696e6174696f6e20636861696e206973206e6f742060448201526f61207472757374656420736f7572636560801b6064820152608401610738565b611fd88787516122f4565b60405162c5803160e81b81526001600160a01b037f0000000000000000000000000000000000000000000000000000000000000000169063c580310090849061202f908b9086908c908c908c908c90600401612f55565b6000604051808303818588803b15801561204857600080fd5b505af115801561205c573d6000803e3d6000fd5b505050505050505050505050565b50505050565b600080546001600160a01b038381166001600160a01b0319831681178455604051919092169283917f8be0079c531659141344cd1fd0a4f28419497f9722a3daafe3b4186f6b6457e09190a35050565b6060816120ce81601f612c9a565b101561210d5760405162461bcd60e51b815260206004820152600e60248201526d736c6963655f6f766572666c6f7760901b6044820152606401610738565b6121178284612c9a565b8451101561215b5760405162461bcd60e51b8152602060048201526011602482015270736c6963655f6f75744f66426f756e647360781b6044820152606401610738565b60608215801561217a57604051915060008252602082016040526121c4565b6040519150601f8416801560200281840101858101878315602002848b0101015b818310156121b357805183526020928301920161219b565b5050858452601f01601f1916604052505b50949350505050565b6000606060008060008661ffff166001600160401b038111156121f2576121f26126cc565b6040519080825280601f01601f19166020018201604052801561221c576020820181803683370190505b50905060008087516020890160008d8df191503d92508683111561223e578692505b828152826000602083013e909890975095505050505050565b8180519060200120600560008761ffff1661ffff168152602001908152602001600020856040516122889190612fbc565b9081526040805191829003602090810183206001600160401b0388166000908152915220919091557fe183f33de2837795525b4792ca4cd60535bd77c53b7e7030060bfcf5734d6b0c906122e59087908790879087908790612fd8565b60405180910390a15050505050565b61ffff82166000908152600360205260409020548061231257506127105b808211156123625760405162461bcd60e51b815260206004820181905260248201527f4c7a4170703a207061796c6f61642073697a6520697320746f6f206c617267656044820152606401610738565b505050565b6040805160a08101825260008082526020820181905291810182905260608101829052608081019190915290565b6040518060c0016040528060006001600160a01b03168152602001600081526020016000815260200160006001600160a01b03168152602001600081526020016000151581525090565b8280546123eb90612a2a565b90600052602060002090601f01602090048101928261240d5760008555612453565b82601f1061242657805160ff1916838001178555612453565b82800160010185558215612453579182015b82811115612453578251825591602001919060010190612438565b5061245f9291506124d7565b5090565b82805461246f90612a2a565b90600052602060002090601f0160209004810192826124915760008555612453565b82601f106124aa5782800160ff19823516178555612453565b82800160010185558215612453579182015b828111156124535782358255916020019190600101906124bc565b5b8082111561245f57600081556001016124d8565b61ffff8116811461093257600080fd5b60008083601f84011261250e57600080fd5b5081356001600160401b0381111561252557600080fd5b60208301915083602082850101111561253d57600080fd5b9250929050565b80356001600160401b0381168114611d3357600080fd5b6000806000806000806080878903121561257457600080fd5b863561257f816124ec565b955060208701356001600160401b038082111561259b57600080fd5b6125a78a838b016124fc565b90975095508591506125bb60408a01612544565b945060608901359150808211156125d157600080fd5b506125de89828a016124fc565b979a9699509497509295939492505050565b801515811461093257600080fd5b60006020828403121561261057600080fd5b813561142b816125f0565b60006020828403121561262d57600080fd5b813561142b816124ec565b6000806040838503121561264b57600080fd5b8235612656816124ec565b946020939093013593505050565b60008060006040848603121561267957600080fd5b8335612684816124ec565b925060208401356001600160401b0381111561269f57600080fd5b6126ab868287016124fc565b9497909650939450505050565b6001600160a01b0391909116815260200190565b634e487b7160e01b600052604160045260246000fd5b604051601f8201601f191681016001600160401b038111828210171561270a5761270a6126cc565b604052919050565b60006001600160401b0382111561272b5761272b6126cc565b50601f01601f191660200190565b60008060006060848603121561274e57600080fd5b8335612759816124ec565b925060208401356001600160401b0381111561277457600080fd5b8401601f8101861361278557600080fd5b803561279861279382612712565b6126e2565b8181528760208385010111156127ad57600080fd5b816020840160208301376000602083830101528094505050506127d260408501612544565b90509250925092565b6001600160a01b038116811461093257600080fd5b6000806000806080858703121561280657600080fd5b8435612811816124ec565b93506020850135612821816127db565b92506040850135612831816125f0565b91506060850135612841816125f0565b939692955090935050565b60006020828403121561285e57600080fd5b5035919050565b60005b83811015612880578181015183820152602001612868565b8381111561206a5750506000910152565b600081518084526128a9816020860160208601612865565b601f01601f19169290920160200192915050565b60208152600061142b6020830184612891565b600080604083850312156128e357600080fd5b82356128ee816124ec565b915060208301356128fe816124ec565b809150509250929050565b60006020828403121561291b57600080fd5b813561142b816127db565b60008060008060006080868803121561293e57600080fd5b8535612949816124ec565b94506020860135612959816124ec565b93506040860135925060608601356001600160401b0381111561297b57600080fd5b612987888289016124fc565b969995985093965092949392505050565b6000806000606084860312156129ad57600080fd5b83356129b8816124ec565b925060208401356129c8816124ec565b929592945050506040919091013590565b600080600080608085870312156129ef57600080fd5b84356129fa816124ec565b93506020850135612a0a816124ec565b92506040850135612a1a816127db565b9396929550929360600135925050565b600181811c90821680612a3e57607f821691505b60208210811415612a5f57634e487b7160e01b600052602260045260246000fd5b50919050565b8183823760009101908152919050565b6020808252818101527f4f776e61626c653a2063616c6c6572206973206e6f7420746865206f776e6572604082015260600190565b835181526020808501511515818301526040808601511515818401528451600f0b60608085019190915285830151608080860191909152868301516001600160a01b0390811660a080880191909152838901516001600160801b031660c08801528289015165ffffffffffff1660e08801528751821661010088015294870151610120870152928601516101408601529085015190911661016084015283015161018083015282015115156101a08201526101c08101611ada565b60f09290921b6001600160f01b0319168252600282015260220190565b61ffff861681526001600160a01b038516602082015260a060408201819052600090612bb090830186612891565b84151560608401528281036080840152612bca8185612891565b98975050505050505050565b60008060408385031215612be957600080fd5b505080516020909101519092909150565b81835281816020850137506000828201602090810191909152601f909101601f19169091010190565b61ffff84168152604060208201526000611ad7604083018486612bfa565b60208082526010908201526f14185d5cd8589b194e881c185d5cd95960821b604082015260600190565b600060208284031215612c7d57600080fd5b5051919050565b634e487b7160e01b600052601160045260246000fd5b60008219821115612cad57612cad612c84565b500190565b600060208284031215612cc457600080fd5b815161142b816125f0565b600082821015612ce157612ce1612c84565b500390565b8284823760609190911b6001600160601b0319169101908152601401919050565b600061ffff808816835280871660208401525084604083015260806060830152612d35608083018486612bfa565b979650505050505050565b61ffff86168152608060208201526000612d5e608083018688612bfa565b6001600160401b0394909416604083015250606001529392505050565b600060208284031215612d8d57600080fd5b81516001600160401b03811115612da357600080fd5b8201601f81018413612db457600080fd5b8051612dc261279382612712565b818152856020838501011115612dd757600080fd5b612de8826020830160208601612865565b95945050505050565b61ffff85168152608060208201526000612e0e6080830186612891565b6001600160401b03851660408401528281036060840152612d358185612891565b805165ffffffffffff81168114611d3357600080fd5b600080600080600080600080610100898b031215612e6257600080fd5b885180600f0b8114612e7357600080fd5b60208a015160408b01519199509750612e8b816127db565b60608a01519096506001600160801b0381168114612ea857600080fd5b9450612eb660808a01612e2f565b9350612ec460a08a01612e2f565b925060c0890151612ed4816124ec565b60e08a0151909250612ee5816124ec565b809150509295985092959890939650565b60008060008060008060c08789031215612f0f57600080fd5b8651955060208701519450604087015193506060870151612f2f816127db565b608088015160a08901519194509250612f47816125f0565b809150509295509295509295565b61ffff8716815260c060208201526000612f7260c0830188612891565b8281036040840152612f848188612891565b6001600160a01b0387811660608601528616608085015283810360a08501529050612faf8185612891565b9998505050505050505050565b60008251612fce818460208701612865565b9190910192915050565b61ffff8616815260a060208201526000612ff560a0830187612891565b6001600160401b038616604084015282810360608401526130168186612891565b90508281036080840152612bca818561289156fea264697066735822122060c9a00d1df10c00cf80f3e2af9c486dd700b2b0d9d7a888723441e1b0bbac6e64736f6c634300080a0033",
  "linkReferences": {},
  "deployedLinkReferences": {}
}