{
  "_format": "hh-sol-artifact-1",
  "contractName": "PancakeVeReceiver",
  "sourceName": "contracts/PancakeVeReceiver.sol",
  "abi": [
    {
      "inputs": [
        {
          "internalType": "address",
          "name": "_endpoint",
          "type": "address"
        }
      ],
      "stateMutability": "nonpayable",
      "type": "constructor"
    },
    {
      "anonymous": false,
      "inputs": [
        {
          "indexed": false,
          "internalType": "uint16",
          "name": "_srcChainId",
          "type": "uint16"
        },
        {
          "indexed": false,
          "internalType": "bytes",
          "name": "_srcAddress",
          "type": "bytes"
        },
        {
          "indexed": false,
          "internalType": "uint64",
          "name": "_nonce",
          "type": "uint64"
        },
        {
          "indexed": false,
          "internalType": "bytes",
          "name": "_payload",
          "type": "bytes"
        },
        {
          "indexed": false,
          "internalType": "bytes",
          "name": "_reason",
          "type": "bytes"
        }
      ],
      "name": "MessageFailed",
      "type": "event"
    },
    {
      "anonymous": false,
      "inputs": [
        {
          "indexed": true,
          "internalType": "address",
          "name": "previousOwner",
          "type": "address"
        },
        {
          "indexed": true,
          "internalType": "address",
          "name": "newOwner",
          "type": "address"
        }
      ],
      "name": "OwnershipTransferred",
      "type": "event"
    },
    {
      "anonymous": false,
      "inputs": [
        {
          "indexed": true,
          "internalType": "address",
          "name": "veCakeProxy",
          "type": "address"
        },
        {
          "indexed": true,
          "internalType": "address",
          "name": "pancakeProfileProxy",
          "type": "address"
        }
      ],
      "name": "ProxyContractUpdated",
      "type": "event"
    },
    {
      "anonymous": false,
      "inputs": [
        {
          "indexed": false,
          "internalType": "uint16",
          "name": "_srcChainId",
          "type": "uint16"
        },
        {
          "indexed": false,
          "internalType": "bytes",
          "name": "_srcAddress",
          "type": "bytes"
        },
        {
          "indexed": false,
          "internalType": "uint64",
          "name": "_nonce",
          "type": "uint64"
        },
        {
          "indexed": false,
          "internalType": "bytes32",
          "name": "_payloadHash",
          "type": "bytes32"
        }
      ],
      "name": "RetryMessageSuccess",
      "type": "event"
    },
    {
      "anonymous": false,
      "inputs": [
        {
          "indexed": false,
          "internalType": "uint16",
          "name": "_dstChainId",
          "type": "uint16"
        },
        {
          "indexed": false,
          "internalType": "uint16",
          "name": "_type",
          "type": "uint16"
        },
        {
          "indexed": false,
          "internalType": "uint256",
          "name": "_minDstGas",
          "type": "uint256"
        }
      ],
      "name": "SetMinDstGas",
      "type": "event"
    },
    {
      "anonymous": false,
      "inputs": [
        {
          "indexed": false,
          "internalType": "address",
          "name": "precrime",
          "type": "address"
        }
      ],
      "name": "SetPrecrime",
      "type": "event"
    },
    {
      "anonymous": false,
      "inputs": [
        {
          "indexed": false,
          "internalType": "uint16",
          "name": "_remoteChainId",
          "type": "uint16"
        },
        {
          "indexed": false,
          "internalType": "bytes",
          "name": "_path",
          "type": "bytes"
        }
      ],
      "name": "SetTrustedRemote",
      "type": "event"
    },
    {
      "anonymous": false,
      "inputs": [
        {
          "indexed": false,
          "internalType": "uint16",
          "name": "_remoteChainId",
          "type": "uint16"
        },
        {
          "indexed": false,
          "internalType": "bytes",
          "name": "_remoteAddress",
          "type": "bytes"
        }
      ],
      "name": "SetTrustedRemoteAddress",
      "type": "event"
    },
    {
      "anonymous": false,
      "inputs": [
        {
          "indexed": true,
          "internalType": "address",
          "name": "userAddress",
          "type": "address"
        },
        {
          "indexed": false,
          "internalType": "uint256",
          "name": "userId",
          "type": "uint256"
        },
        {
          "indexed": false,
          "internalType": "int128",
          "name": "amount",
          "type": "int128"
        },
        {
          "indexed": false,
          "internalType": "uint256",
          "name": "end",
          "type": "uint256"
        },
        {
          "indexed": true,
          "internalType": "address",
          "name": "cakePoolProxy",
          "type": "address"
        },
        {
          "indexed": false,
          "internalType": "uint128",
          "name": "cakeAmount",
          "type": "uint128"
        },
        {
          "indexed": false,
          "internalType": "uint48",
          "name": "lockEndTime",
          "type": "uint48"
        },
        {
          "indexed": false,
          "internalType": "uint256",
          "name": "totalSupply",
          "type": "uint256"
        }
      ],
      "name": "SyncMsgReceived",
      "type": "event"
    },
    {
      "inputs": [],
      "name": "DEFAULT_PAYLOAD_SIZE_LIMIT",
      "outputs": [
        {
          "internalType": "uint256",
          "name": "",
          "type": "uint256"
        }
      ],
      "stateMutability": "view",
      "type": "function"
    },
    {
      "inputs": [
        {
          "internalType": "uint16",
          "name": "",
          "type": "uint16"
        },
        {
          "internalType": "bytes",
          "name": "",
          "type": "bytes"
        },
        {
          "internalType": "uint64",
          "name": "",
          "type": "uint64"
        }
      ],
      "name": "failedMessages",
      "outputs": [
        {
          "internalType": "bytes32",
          "name": "",
          "type": "bytes32"
        }
      ],
      "stateMutability": "view",
      "type": "function"
    },
    {
      "inputs": [
        {
          "internalType": "uint16",
          "name": "_srcChainId",
          "type": "uint16"
        },
        {
          "internalType": "bytes",
          "name": "_srcAddress",
          "type": "bytes"
        }
      ],
      "name": "forceResumeReceive",
      "outputs": [],
      "stateMutability": "nonpayable",
      "type": "function"
    },
    {
      "inputs": [
        {
          "internalType": "uint16",
          "name": "_version",
          "type": "uint16"
        },
        {
          "internalType": "uint16",
          "name": "_chainId",
          "type": "uint16"
        },
        {
          "internalType": "address",
          "name": "",
          "type": "address"
        },
        {
          "internalType": "uint256",
          "name": "_configType",
          "type": "uint256"
        }
      ],
      "name": "getConfig",
      "outputs": [
        {
          "internalType": "bytes",
          "name": "",
          "type": "bytes"
        }
      ],
      "stateMutability": "view",
      "type": "function"
    },
    {
      "inputs": [
        {
          "internalType": "uint16",
          "name": "_remoteChainId",
          "type": "uint16"
        }
      ],
      "name": "getTrustedRemoteAddress",
      "outputs": [
        {
          "internalType": "bytes",
          "name": "",
          "type": "bytes"
        }
      ],
      "stateMutability": "view",
      "type": "function"
    },
    {
      "inputs": [
        {
          "internalType": "uint16",
          "name": "_srcChainId",
          "type": "uint16"
        },
        {
          "internalType": "bytes",
          "name": "_srcAddress",
          "type": "bytes"
        }
      ],
      "name": "isTrustedRemote",
      "outputs": [
        {
          "internalType": "bool",
          "name": "",
          "type": "bool"
        }
      ],
      "stateMutability": "view",
      "type": "function"
    },
    {
      "inputs": [],
      "name": "lzEndpoint",
      "outputs": [
        {
          "internalType": "contract ILayerZeroEndpoint",
          "name": "",
          "type": "address"
        }
      ],
      "stateMutability": "view",
      "type": "function"
    },
    {
      "inputs": [
        {
          "internalType": "uint16",
          "name": "_srcChainId",
          "type": "uint16"
        },
        {
          "internalType": "bytes",
          "name": "_srcAddress",
          "type": "bytes"
        },
        {
          "internalType": "uint64",
          "name": "_nonce",
          "type": "uint64"
        },
        {
          "internalType": "bytes",
          "name": "_payload",
          "type": "bytes"
        }
      ],
      "name": "lzReceive",
      "outputs": [],
      "stateMutability": "nonpayable",
      "type": "function"
    },
    {
      "inputs": [
        {
          "internalType": "uint16",
          "name": "",
          "type": "uint16"
        },
        {
          "internalType": "uint16",
          "name": "",
          "type": "uint16"
        }
      ],
      "name": "minDstGasLookup",
      "outputs": [
        {
          "internalType": "uint256",
          "name": "",
          "type": "uint256"
        }
      ],
      "stateMutability": "view",
      "type": "function"
    },
    {
      "inputs": [
        {
          "internalType": "uint16",
          "name": "_srcChainId",
          "type": "uint16"
        },
        {
          "internalType": "bytes",
          "name": "_srcAddress",
          "type": "bytes"
        },
        {
          "internalType": "uint64",
          "name": "_nonce",
          "type": "uint64"
        },
        {
          "internalType": "bytes",
          "name": "_payload",
          "type": "bytes"
        }
      ],
      "name": "nonblockingLzReceive",
      "outputs": [],
      "stateMutability": "nonpayable",
      "type": "function"
    },
    {
      "inputs": [],
      "name": "owner",
      "outputs": [
        {
          "internalType": "address",
          "name": "",
          "type": "address"
        }
      ],
      "stateMutability": "view",
      "type": "function"
    },
    {
      "inputs": [],
      "name": "pancakeProfileProxy",
      "outputs": [
        {
          "internalType": "address",
          "name": "",
          "type": "address"
        }
      ],
      "stateMutability": "view",
      "type": "function"
    },
    {
      "inputs": [
        {
          "internalType": "uint16",
          "name": "",
          "type": "uint16"
        }
      ],
      "name": "payloadSizeLimitLookup",
      "outputs": [
        {
          "internalType": "uint256",
          "name": "",
          "type": "uint256"
        }
      ],
      "stateMutability": "view",
      "type": "function"
    },
    {
      "inputs": [],
      "name": "precrime",
      "outputs": [
        {
          "internalType": "address",
          "name": "",
          "type": "address"
        }
      ],
      "stateMutability": "view",
      "type": "function"
    },
    {
      "inputs": [],
      "name": "renounceOwnership",
      "outputs": [],
      "stateMutability": "nonpayable",
      "type": "function"
    },
    {
      "inputs": [
        {
          "internalType": "uint16",
          "name": "_srcChainId",
          "type": "uint16"
        },
        {
          "internalType": "bytes",
          "name": "_srcAddress",
          "type": "bytes"
        },
        {
          "internalType": "uint64",
          "name": "_nonce",
          "type": "uint64"
        },
        {
          "internalType": "bytes",
          "name": "_payload",
          "type": "bytes"
        }
      ],
      "name": "retryMessage",
      "outputs": [],
      "stateMutability": "payable",
      "type": "function"
    },
    {
      "inputs": [
        {
          "internalType": "uint16",
          "name": "_version",
          "type": "uint16"
        },
        {
          "internalType": "uint16",
          "name": "_chainId",
          "type": "uint16"
        },
        {
          "internalType": "uint256",
          "name": "_configType",
          "type": "uint256"
        },
        {
          "internalType": "bytes",
          "name": "_config",
          "type": "bytes"
        }
      ],
      "name": "setConfig",
      "outputs": [],
      "stateMutability": "nonpayable",
      "type": "function"
    },
    {
      "inputs": [
        {
          "internalType": "uint16",
          "name": "_dstChainId",
          "type": "uint16"
        },
        {
          "internalType": "uint16",
          "name": "_packetType",
          "type": "uint16"
        },
        {
          "internalType": "uint256",
          "name": "_minGas",
          "type": "uint256"
        }
      ],
      "name": "setMinDstGas",
      "outputs": [],
      "stateMutability": "nonpayable",
      "type": "function"
    },
    {
      "inputs": [
        {
          "internalType": "uint16",
          "name": "_dstChainId",
          "type": "uint16"
        },
        {
          "internalType": "uint256",
          "name": "_size",
          "type": "uint256"
        }
      ],
      "name": "setPayloadSizeLimit",
      "outputs": [],
      "stateMutability": "nonpayable",
      "type": "function"
    },
    {
      "inputs": [
        {
          "internalType": "address",
          "name": "_precrime",
          "type": "address"
        }
      ],
      "name": "setPrecrime",
      "outputs": [],
      "stateMutability": "nonpayable",
      "type": "function"
    },
    {
      "inputs": [
        {
          "internalType": "uint16",
          "name": "_version",
          "type": "uint16"
        }
      ],
      "name": "setReceiveVersion",
      "outputs": [],
      "stateMutability": "nonpayable",
      "type": "function"
    },
    {
      "inputs": [
        {
          "internalType": "uint16",
          "name": "_version",
          "type": "uint16"
        }
      ],
      "name": "setSendVersion",
      "outputs": [],
      "stateMutability": "nonpayable",
      "type": "function"
    },
    {
      "inputs": [
        {
          "internalType": "uint16",
          "name": "_remoteChainId",
          "type": "uint16"
        },
        {
          "internalType": "bytes",
          "name": "_path",
          "type": "bytes"
        }
      ],
      "name": "setTrustedRemote",
      "outputs": [],
      "stateMutability": "nonpayable",
      "type": "function"
    },
    {
      "inputs": [
        {
          "internalType": "uint16",
          "name": "_remoteChainId",
          "type": "uint16"
        },
        {
          "internalType": "bytes",
          "name": "_remoteAddress",
          "type": "bytes"
        }
      ],
      "name": "setTrustedRemoteAddress",
      "outputs": [],
      "stateMutability": "nonpayable",
      "type": "function"
    },
    {
      "inputs": [
        {
          "internalType": "address",
          "name": "newOwner",
          "type": "address"
        }
      ],
      "name": "transferOwnership",
      "outputs": [],
      "stateMutability": "nonpayable",
      "type": "function"
    },
    {
      "inputs": [
        {
          "internalType": "uint16",
          "name": "",
          "type": "uint16"
        }
      ],
      "name": "trustedRemoteLookup",
      "outputs": [
        {
          "internalType": "bytes",
          "name": "",
          "type": "bytes"
        }
      ],
      "stateMutability": "view",
      "type": "function"
    },
    {
      "inputs": [
        {
          "internalType": "address",
          "name": "_veCakeProxy",
          "type": "address"
        },
        {
          "internalType": "address",
          "name": "_pancakeProfileProxy",
          "type": "address"
        }
      ],
      "name": "updateProxyContract",
      "outputs": [],
      "stateMutability": "nonpayable",
      "type": "function"
    },
    {
      "inputs": [],
      "name": "veCakeProxy",
      "outputs": [
        {
          "internalType": "address",
          "name": "",
          "type": "address"
        }
      ],
      "stateMutability": "view",
      "type": "function"
    }
  ],
  "bytecode": "0x60a06040523480156200001157600080fd5b5060405162002b0c38038062002b0c8339810160408190526200003491620000a6565b8080620000413362000056565b6001600160a01b031660805250620000d89050565b600080546001600160a01b038381166001600160a01b0319831681178455604051919092169283917f8be0079c531659141344cd1fd0a4f28419497f9722a3daafe3b4186f6b6457e09190a35050565b600060208284031215620000b957600080fd5b81516001600160a01b0381168114620000d157600080fd5b9392505050565b6080516129ee6200011e6000396000818161041e0152818161054c015281816107c2015281816108b801528181610a0101528181610ec4015261140801526129ee6000f3fe6080604052600436106101465760003560e01c80621d35671461014b57806307e0db171461016d5780630df374831461018d57806310ddb137146101ad57806327dd4439146101cd5780633d8b38f6146102035780633f1f4fa41461023357806342d65a8d1461026e5780635b8c41e61461028e57806366ad5c8a146102dd578063715018a6146102fd5780637533d788146103125780638cfd8f5c1461033f5780638d8c4851146103775780638da5cb5b14610397578063950c8a74146103ac5780639f38369a146103cc578063a6c3d165146103ec578063b353aaa71461040c578063baf3292d14610440578063c446183414610460578063cbed8b9c14610476578063d1deba1f14610496578063df2a5b3b146104a9578063eb8d72b7146104c9578063ee087a9b146104e9578063f2fde38b14610509578063f5ecbdbc14610529575b600080fd5b34801561015757600080fd5b5061016b610166366004611fe5565b610549565b005b34801561017957600080fd5b5061016b61018836600461207a565b61077a565b34801561019957600080fd5b5061016b6101a8366004612097565b61082a565b3480156101b957600080fd5b5061016b6101c836600461207a565b610870565b3480156101d957600080fd5b506006546101ed906001600160a01b031681565b6040516101fa91906120c3565b60405180910390f35b34801561020f57600080fd5b5061022361021e3660046120d7565b6108ef565b60405190151581526020016101fa565b34801561023f57600080fd5b5061026061024e36600461207a565b60036020526000908152604090205481565b6040519081526020016101fa565b34801561027a57600080fd5b5061016b6102893660046120d7565b6109bb565b34801561029a57600080fd5b506102606102a93660046121e2565b6005602090815260009384526040808520845180860184018051928152908401958401959095209452929052825290205481565b3480156102e957600080fd5b5061016b6102f8366004611fe5565b610a68565b34801561030957600080fd5b5061016b610b44565b34801561031e57600080fd5b5061033261032d36600461207a565b610b7f565b6040516101fa91906122e0565b34801561034b57600080fd5b5061026061035a3660046122f3565b600260209081526000928352604080842090915290825290205481565b34801561038357600080fd5b506007546101ed906001600160a01b031681565b3480156103a357600080fd5b506101ed610c19565b3480156103b857600080fd5b506004546101ed906001600160a01b031681565b3480156103d857600080fd5b506103326103e736600461207a565b610c28565b3480156103f857600080fd5b5061016b6104073660046120d7565b610d3f565b34801561041857600080fd5b506101ed7f000000000000000000000000000000000000000000000000000000000000000081565b34801561044c57600080fd5b5061016b61045b366004612341565b610df9565b34801561046c57600080fd5b5061026061271081565b34801561048257600080fd5b5061016b61049136600461235e565b610e7e565b61016b6104a4366004611fe5565b610f3a565b3480156104b557600080fd5b5061016b6104c43660046123d0565b611150565b3480156104d557600080fd5b5061016b6104e43660046120d7565b611229565b3480156104f557600080fd5b5061016b610504366004612411565b6112aa565b34801561051557600080fd5b5061016b610524366004612341565b611337565b34801561053557600080fd5b5061033261054436600461243f565b6113d7565b337f00000000000000000000000000000000000000000000000000000000000000006001600160a01b0316146105c65760405162461bcd60e51b815260206004820152601e60248201527f4c7a4170703a20696e76616c696420656e64706f696e742063616c6c6572000060448201526064015b60405180910390fd5b61ffff8616600090815260016020526040812080546105e490612490565b80601f016020809104026020016040519081016040528092919081815260200182805461061090612490565b801561065d5780601f106106325761010080835404028352916020019161065d565b820191906000526020600020905b81548152906001019060200180831161064057829003601f168201915b50505050509050805186869050148015610678575060008151115b80156106a057508051602082012060405161069690889088906124cb565b6040518091039020145b6106fb5760405162461bcd60e51b815260206004820152602660248201527f4c7a4170703a20696e76616c696420736f757263652073656e64696e6720636f6044820152651b9d1c9858dd60d21b60648201526084016105bd565b6107718787878080601f01602080910402602001604051908101604052809392919081815260200183838082843760009201919091525050604080516020601f8a018190048102820181019092528881528a93509150889088908190840183828082843760009201919091525061148892505050565b50505050505050565b33610783610c19565b6001600160a01b0316146107a95760405162461bcd60e51b81526004016105bd906124db565b6040516307e0db1760e01b815261ffff821660048201527f00000000000000000000000000000000000000000000000000000000000000006001600160a01b0316906307e0db17906024015b600060405180830381600087803b15801561080f57600080fd5b505af1158015610823573d6000803e3d6000fd5b5050505050565b33610833610c19565b6001600160a01b0316146108595760405162461bcd60e51b81526004016105bd906124db565b61ffff909116600090815260036020526040902055565b33610879610c19565b6001600160a01b03161461089f5760405162461bcd60e51b81526004016105bd906124db565b6040516310ddb13760e01b815261ffff821660048201527f00000000000000000000000000000000000000000000000000000000000000006001600160a01b0316906310ddb137906024016107f5565b61ffff83166000908152600160205260408120805482919061091090612490565b80601f016020809104026020016040519081016040528092919081815260200182805461093c90612490565b80156109895780601f1061095e57610100808354040283529160200191610989565b820191906000526020600020905b81548152906001019060200180831161096c57829003601f168201915b5050505050905083836040516109a09291906124cb565b60405180910390208180519060200120149150509392505050565b336109c4610c19565b6001600160a01b0316146109ea5760405162461bcd60e51b81526004016105bd906124db565b6040516342d65a8d60e01b81526001600160a01b037f000000000000000000000000000000000000000000000000000000000000000016906342d65a8d90610a3a90869086908690600401612539565b600060405180830381600087803b158015610a5457600080fd5b505af1158015610771573d6000803e3d6000fd5b333014610ac65760405162461bcd60e51b815260206004820152602660248201527f4e6f6e626c6f636b696e674c7a4170703a2063616c6c6572206d7573742062656044820152650204c7a4170760d41b60648201526084016105bd565b610b3c8686868080601f01602080910402602001604051908101604052809392919081815260200183838082843760009201919091525050604080516020601f89018190048102820181019092528781528993509150879087908190840183828082843760009201919091525061150192505050565b505050505050565b33610b4d610c19565b6001600160a01b031614610b735760405162461bcd60e51b81526004016105bd906124db565b610b7d6000611717565b565b60016020526000908152604090208054610b9890612490565b80601f0160208091040260200160405190810160405280929190818152602001828054610bc490612490565b8015610c115780601f10610be657610100808354040283529160200191610c11565b820191906000526020600020905b815481529060010190602001808311610bf457829003601f168201915b505050505081565b6000546001600160a01b031690565b61ffff8116600090815260016020526040812080546060929190610c4b90612490565b80601f0160208091040260200160405190810160405280929190818152602001828054610c7790612490565b8015610cc45780601f10610c9957610100808354040283529160200191610cc4565b820191906000526020600020905b815481529060010190602001808311610ca757829003601f168201915b50505050509050805160001415610d1d5760405162461bcd60e51b815260206004820152601d60248201527f4c7a4170703a206e6f20747275737465642070617468207265636f726400000060448201526064016105bd565b610d38600060148351610d30919061256d565b839190611767565b9392505050565b33610d48610c19565b6001600160a01b031614610d6e5760405162461bcd60e51b81526004016105bd906124db565b818130604051602001610d8393929190612584565b60408051601f1981840301815291815261ffff85166000908152600160209081529190208251610db893919290910190611e68565b507f8c0400cfe2d1199b1a725c78960bcc2a344d869b80590d0f2bd005db15a572ce838383604051610dec93929190612539565b60405180910390a1505050565b33610e02610c19565b6001600160a01b031614610e285760405162461bcd60e51b81526004016105bd906124db565b600480546001600160a01b0319166001600160a01b0383161790556040517f5db758e995a17ec1ad84bdef7e8c3293a0bd6179bcce400dff5d4c3d87db726b90610e739083906120c3565b60405180910390a150565b33610e87610c19565b6001600160a01b031614610ead5760405162461bcd60e51b81526004016105bd906124db565b6040516332fb62e760e21b81526001600160a01b037f0000000000000000000000000000000000000000000000000000000000000000169063cbed8b9c90610f0190889088908890889088906004016125a5565b600060405180830381600087803b158015610f1b57600080fd5b505af1158015610f2f573d6000803e3d6000fd5b505050505050505050565b61ffff86166000908152600560205260408082209051610f5d90889088906124cb565b90815260408051602092819003830190206001600160401b03871660009081529252902054905080610fdd5760405162461bcd60e51b815260206004820152602360248201527f4e6f6e626c6f636b696e674c7a4170703a206e6f2073746f726564206d65737360448201526261676560e81b60648201526084016105bd565b808383604051610fee9291906124cb565b60405180910390201461104d5760405162461bcd60e51b815260206004820152602160248201527f4e6f6e626c6f636b696e674c7a4170703a20696e76616c6964207061796c6f616044820152601960fa1b60648201526084016105bd565b61ffff8716600090815260056020526040808220905161107090899089906124cb565b90815260408051602092819003830181206001600160401b038916600090815290845282902093909355601f88018290048202830182019052868252611108918991899089908190840183828082843760009201919091525050604080516020601f8a018190048102820181019092528881528a93509150889088908190840183828082843760009201919091525061150192505050565b7fc264d91f3adc5588250e1551f547752ca0cfa8f6b530d243b9f9f4cab10ea8e5878787878560405161113f9594939291906125de565b60405180910390a150505050505050565b33611159610c19565b6001600160a01b03161461117f5760405162461bcd60e51b81526004016105bd906124db565b600081116111c75760405162461bcd60e51b81526020600482015260156024820152744c7a4170703a20696e76616c6964206d696e47617360581b60448201526064016105bd565b61ffff83811660008181526002602090815260408083209487168084529482529182902085905581519283528201929092529081018290527f9d5c7c0b934da8fefa9c7760c98383778a12dfbfc0c3b3106518f43fb9508ac090606001610dec565b33611232610c19565b6001600160a01b0316146112585760405162461bcd60e51b81526004016105bd906124db565b61ffff83166000908152600160205260409020611276908383611ee8565b507ffa41487ad5d6728f0b19276fa1eddc16558578f5109fc39d2dc33c3230470dab838383604051610dec93929190612539565b336112b3610c19565b6001600160a01b0316146112d95760405162461bcd60e51b81526004016105bd906124db565b600680546001600160a01b03199081166001600160a01b03858116918217909355600780549092169284169283179091556040517f715a6dd0f286ba00cb211b70b211b86b08e8496da8111a0b55c990ee054de6f690600090a35050565b33611340610c19565b6001600160a01b0316146113665760405162461bcd60e51b81526004016105bd906124db565b6001600160a01b0381166113cb5760405162461bcd60e51b815260206004820152602660248201527f4f776e61626c653a206e6577206f776e657220697320746865207a65726f206160448201526564647265737360d01b60648201526084016105bd565b6113d481611717565b50565b604051633d7b2f6f60e21b815261ffff808616600483015284166024820152306044820152606481018290526060907f00000000000000000000000000000000000000000000000000000000000000006001600160a01b03169063f5ecbdbc90608401600060405180830381865afa158015611457573d6000803e3d6000fd5b505050506040513d6000823e601f3d908101601f1916820160405261147f9190810190612619565b95945050505050565b6000806114eb5a60966366ad5c8a60e01b898989896040516024016114b09493929190612686565b60408051601f198184030181529190526020810180516001600160e01b03166001600160e01b03199093169290921790915230929190611874565b9150915081610b3c57610b3c86868686856118fe565b6040805160a0810182526000808252602082018190529181018290526060810182905260808101919091526040805160c081018252600080825260208201819052918101829052606081018290526080810182905260a081019190915260408051606081018252600080825260208201819052918101919091528380602001905181019061158f91906127a7565b80945081955082935050505082604001516001600160a01b031682600001516001600160a01b03167f3decb682f13a92ea769b5ced3c44f6ca92eda0c4b95f56dabb2c33e87dd67fd184602001518660000151876020015188606001518960800151886000015160405161163f96959493929190958652600f9490940b602086015260408501929092526001600160801b0316606084015265ffffffffffff16608083015260a082015260c00190565b60405180910390a380516116529061199b565b80602001511561166857815161166890846119d2565b80604001511561077157600754825160208401516040808601516060870151608088015160a0890151935163926baddf60e01b81526001600160a01b03968716600482015260248101959095526044850192909252841660648401526084830152151560a482015291169063926baddf9060c401600060405180830381600087803b1580156116f657600080fd5b505af115801561170a573d6000803e3d6000fd5b5050505050505050505050565b600080546001600160a01b038381166001600160a01b0319831681178455604051919092169283917f8be0079c531659141344cd1fd0a4f28419497f9722a3daafe3b4186f6b6457e09190a35050565b60608161177581601f612874565b10156117b45760405162461bcd60e51b815260206004820152600e60248201526d736c6963655f6f766572666c6f7760901b60448201526064016105bd565b6117be8284612874565b845110156118025760405162461bcd60e51b8152602060048201526011602482015270736c6963655f6f75744f66426f756e647360781b60448201526064016105bd565b606082158015611821576040519150600082526020820160405261186b565b6040519150601f8416801560200281840101858101878315602002848b0101015b8183101561185a578051835260209283019201611842565b5050858452601f01601f1916604052505b50949350505050565b6000606060008060008661ffff166001600160401b038111156118995761189961212b565b6040519080825280601f01601f1916602001820160405280156118c3576020820181803683370190505b50905060008087516020890160008d8df191503d9250868311156118e5578692505b828152826000602083013e909890975095505050505050565b8180519060200120600560008761ffff1661ffff1681526020019081526020016000208560405161192f919061288c565b9081526040805191829003602090810183206001600160401b0388166000908152915220919091557fe183f33de2837795525b4792ca4cd60535bd77c53b7e7030060bfcf5734d6b0c9061198c90879087908790879087906128a8565b60405180910390a15050505050565b80156113d4576006546040516366d49bab60e01b8152600481018390526001600160a01b03909116906366d49bab906024016107f5565b6006546001600160a01b0316611a215760405162461bcd60e51b8152602060048201526014602482015273766543616b6550726f787920697320656d70747960601b60448201526064016105bd565b6001600160a01b03821615611e0e57600654604051636386c1c760e01b8152600091829182916001600160a01b031690636386c1c790611a659088906004016120c3565b61010060405180830381865afa158015611a83573d6000803e3d6000fd5b505050506040513d601f19601f82011682018060405250810190611aa79190612906565b50505050509250925092506000611ac084600f0b611e12565b90506000611ad48660000151600f0b611e12565b905081611b6d57600081118015611aef575060008660200151115b15611b6857600654602087015160405163650e150560e01b81526001600160a01b038a8116600483015260248201859052604482019290925291169063650e1505906064015b600060405180830381600087803b158015611b4f57600080fd5b505af1158015611b63573d6000803e3d6000fd5b505050505b611d50565b80821015611c22576006546001600160a01b0316637c82344788611b91858561256d565b6040518363ffffffff1660e01b8152600401611bae92919061299f565b600060405180830381600087803b158015611bc857600080fd5b505af1158015611bdc573d6000803e3d6000fd5b505050508386602001511115611b6857600654602087015160405163cb5f06cd60e01b81526001600160a01b039092169163cb5f06cd91611b35918b919060040161299f565b80821115611cdb576006546040516301395c5960e31b81526001600160a01b03898116600483018190526024830152909116906309cae2c890604401600060405180830381600087803b158015611c7857600080fd5b505af1158015611c8c573d6000803e3d6000fd5b50505050600081118015611ca4575060008660200151115b15611b6857600654604051637c82344760e01b81526001600160a01b0390911690637c82344790611b35908a90859060040161299f565b8386602001511115611d5057600654602087015160405163cb5f06cd60e01b81526001600160a01b039092169163cb5f06cd91611d1d918b919060040161299f565b600060405180830381600087803b158015611d3757600080fd5b505af1158015611d4b573d6000803e3d6000fd5b505050505b6001600160a01b038316610771576000611d7487606001516001600160801b031690565b90506000611d8b886080015165ffffffffffff1690565b60065460408a810151905163b27a34bb60e01b81526001600160a01b038d8116600483015291821660248201526044810186905260648101849052929350169063b27a34bb90608401600060405180830381600087803b158015611dee57600080fd5b505af1158015611e02573d6000803e3d6000fd5b50505050505050505050505b5050565b600080821215611e645760405162461bcd60e51b815260206004820181905260248201527f53616665436173743a2076616c7565206d75737420626520706f73697469766560448201526064016105bd565b5090565b828054611e7490612490565b90600052602060002090601f016020900481019282611e965760008555611edc565b82601f10611eaf57805160ff1916838001178555611edc565b82800160010185558215611edc579182015b82811115611edc578251825591602001919060010190611ec1565b50611e64929150611f5c565b828054611ef490612490565b90600052602060002090601f016020900481019282611f165760008555611edc565b82601f10611f2f5782800160ff19823516178555611edc565b82800160010185558215611edc579182015b82811115611edc578235825591602001919060010190611f41565b5b80821115611e645760008155600101611f5d565b61ffff811681146113d457600080fd5b60008083601f840112611f9357600080fd5b5081356001600160401b03811115611faa57600080fd5b602083019150836020828501011115611fc257600080fd5b9250929050565b80356001600160401b0381168114611fe057600080fd5b919050565b60008060008060008060808789031215611ffe57600080fd5b863561200981611f71565b955060208701356001600160401b038082111561202557600080fd5b6120318a838b01611f81565b909750955085915061204560408a01611fc9565b9450606089013591508082111561205b57600080fd5b5061206889828a01611f81565b979a9699509497509295939492505050565b60006020828403121561208c57600080fd5b8135610d3881611f71565b600080604083850312156120aa57600080fd5b82356120b581611f71565b946020939093013593505050565b6001600160a01b0391909116815260200190565b6000806000604084860312156120ec57600080fd5b83356120f781611f71565b925060208401356001600160401b0381111561211257600080fd5b61211e86828701611f81565b9497909650939450505050565b634e487b7160e01b600052604160045260246000fd5b604051606081016001600160401b03811182821017156121635761216361212b565b60405290565b60405160a081016001600160401b03811182821017156121635761216361212b565b604051601f8201601f191681016001600160401b03811182821017156121b3576121b361212b565b604052919050565b60006001600160401b038211156121d4576121d461212b565b50601f01601f191660200190565b6000806000606084860312156121f757600080fd5b833561220281611f71565b925060208401356001600160401b0381111561221d57600080fd5b8401601f8101861361222e57600080fd5b803561224161223c826121bb565b61218b565b81815287602083850101111561225657600080fd5b8160208401602083013760006020838301015280945050505061227b60408501611fc9565b90509250925092565b60005b8381101561229f578181015183820152602001612287565b838111156122ae576000848401525b50505050565b600081518084526122cc816020860160208601612284565b601f01601f19169290920160200192915050565b602081526000610d3860208301846122b4565b6000806040838503121561230657600080fd5b823561231181611f71565b9150602083013561232181611f71565b809150509250929050565b6001600160a01b03811681146113d457600080fd5b60006020828403121561235357600080fd5b8135610d388161232c565b60008060008060006080868803121561237657600080fd5b853561238181611f71565b9450602086013561239181611f71565b93506040860135925060608601356001600160401b038111156123b357600080fd5b6123bf88828901611f81565b969995985093965092949392505050565b6000806000606084860312156123e557600080fd5b83356123f081611f71565b9250602084013561240081611f71565b929592945050506040919091013590565b6000806040838503121561242457600080fd5b823561242f8161232c565b915060208301356123218161232c565b6000806000806080858703121561245557600080fd5b843561246081611f71565b9350602085013561247081611f71565b925060408501356124808161232c565b9396929550929360600135925050565b600181811c908216806124a457607f821691505b602082108114156124c557634e487b7160e01b600052602260045260246000fd5b50919050565b8183823760009101908152919050565b6020808252818101527f4f776e61626c653a2063616c6c6572206973206e6f7420746865206f776e6572604082015260600190565b81835281816020850137506000828201602090810191909152601f909101601f19169091010190565b61ffff8416815260406020820152600061147f604083018486612510565b634e487b7160e01b600052601160045260246000fd5b60008282101561257f5761257f612557565b500390565b8284823760609190911b6001600160601b0319169101908152601401919050565b600061ffff8088168352808716602084015250846040830152608060608301526125d3608083018486612510565b979650505050505050565b61ffff861681526080602082015260006125fc608083018688612510565b6001600160401b0394909416604083015250606001529392505050565b60006020828403121561262b57600080fd5b81516001600160401b0381111561264157600080fd5b8201601f8101841361265257600080fd5b805161266061223c826121bb565b81815285602083850101111561267557600080fd5b61147f826020830160208601612284565b61ffff851681526080602082015260006126a360808301866122b4565b6001600160401b038516604084015282810360608401526125d381856122b4565b80518015158114611fe057600080fd5b8051600f81900b8114611fe057600080fd5b80516001600160801b0381168114611fe057600080fd5b805165ffffffffffff81168114611fe057600080fd5b600060c0828403121561272557600080fd5b60405160c081016001600160401b03811182821017156127475761274761212b565b8060405250809150825161275a8161232c565b80825250602083015160208201526040830151604082015260608301516127808161232c565b60608201526080838101519082015261279b60a084016126c4565b60a08201525092915050565b60008060008385036101c08112156127be57600080fd5b60608112156127cc57600080fd5b6127d4612141565b855181526127e4602087016126c4565b60208201526127f5604087016126c4565b6040820152935060a0605f198201121561280e57600080fd5b50612817612169565b612823606086016126d4565b81526080850151602082015260a085015161283d8161232c565b604082015261284e60c086016126e6565b606082015261285f60e086016126fd565b6080820152915061227b856101008601612713565b6000821982111561288757612887612557565b500190565b6000825161289e818460208701612284565b9190910192915050565b61ffff8616815260a0602082015260006128c560a08301876122b4565b6001600160401b038616604084015282810360608401526128e681866122b4565b905082810360808401526128fa81856122b4565b98975050505050505050565b600080600080600080600080610100898b03121561292357600080fd5b61292c896126d4565b97506020890151965060408901516129438161232c565b955061295160608a016126e6565b945061295f60808a016126fd565b935061296d60a08a016126fd565b925060c089015161297d81611f71565b60e08a015190925061298e81611f71565b809150509295985092959890939650565b6001600160a01b0392909216825260208201526040019056fea26469706673582212203e9bb75e2b30def737369c1f3dc4cf235aa06354bf92fad7d933300eabbebe4064736f6c634300080a0033",
  "linkReferences": {},
  "deployedLinkReferences": {}
}